:020000040800F2
:105C0000A83B0020015D0008EDAB0008C95D00085D
:105C100095A0000855720008D9D9000800000000BE
:105C200000000000000000000000000073BB00083E
:105C30009982000800000000535D0008D5BF0008ED
:105C40001B5D00081B5D00081B5D00081B5D000854
:105C50001B5D00081B5D00081B5D00081B5D000844
:105C60001B5D00081B5D0008958600081B5D000891
:105C70001B5D00081B5D00081B5D00081B5D000824
:105C80001B5D00081B5D0008256500081B5D000802
:105C9000B5D800081B5D00081B5D00081B5D0008EF
:105CA0001B5D00081B5D00081B5D00081B5D0008F4
:105CB00049C000086DC000081B5D00081B5D00089E
:105CC0001B5D00081B5D00081B5D00081B5D0008D4
:105CD0001B5D00081B5D000859D800081B5D00080B
:105CE0001B5D00081B5D00081B5D0008DFF80CD081
:105CF00000F0D6FB004800471B650008A83B0020C9
:105D00000648804706480047FEE7FEE7FEE7FEE755
:105D1000FEE7FEE7FEE7FEE7FEE7FEE7F9BF000865
:105D2000ED5C0008EFF3108072B6704780F31088C6
:105D30007047324A1368012B04D04FF001031360FF
:105D40002F4A10602F4A11602F484FF08051016098
:105D50007047EFF3108272B62848016891B14FF096
:105D6000000101602648016829B1EFF3098121E9AA
:105D7000F00F00680160234909680968B1E8F00F75
:105D800081F3098882F310884EF0040E70471D4994
:105D900008601B494FF00000086018494FF00100EF
:105DA00008601A481A49D0F8002041EA020101604F
:105DB00015484FF08051016016480068006880F374
:105DC000088861B662B670471EF0040F0CBFEFF38F
:105DD0000880EFF3098020E9F00F40F804ED1EF091
:105DE000040F0CBF80F3088880F3098800B508F021
:105DF000B3F95DF804EB4EF0040E7047F00200209A
:105E0000E8020020EC02002004ED00E020ED00E0BC
:105E10000000FFFF08ED00E02DE9F05F05460020DF
:105E200092469B4688460646814640241BE028460B
:105E300041464746224600F08EFA53465A46C01A5B
:105E4000914110D311461846224600F075FA2D1ADA
:105E500067EB01084F4622460120002100F06CFA52
:105E600017EB00094E41201EA4F10104DFDC484677
:105E700031462A464346BDE8F09F10B5431A934287
:105E800009D28318881803E010F8011D03F8011DDA
:105E9000521EF9D210BD40EA01039B0703D009E06E
:105EA00008C9121F08C0042AFAD203E011F8013B06
:105EB00000F8013B521EF9D210BDD2B201E000F849
:105EC000012B491EFBD270470022F6E710B513469E
:105ED0000A4604461946FFF7F0FF204610BDF0B40D
:105EE00080EA0102D40F4200B2EB410F02D2024617
:105EF000084611464A0042D0C30DDDB2C1F3C75275
:105F0000AD1A202D35DAC1F3160141F4000204B1B7
:105F10005242C5F1200602FA06F12A411044B3EBC1
:105F2000D05F23D0C4B1012DA0EBC35009DCF0BC7D
:105F30004FF0004202EAC352DBB200F5000000F06D
:105F400023BA400000F1807000EBC350A0F18070D4
:105F500040EAD170490009E0490841EAC071A0EB6C
:105F6000C35000F50000400800EBC350F0BC00F047
:105F700002BA6142012202EB4101001BF6E7F0BCCC
:105F8000704781F00041AAE780F00040A7E780EA6F
:105F9000010210B502F00043400022D04A001FD099
:105FA000010E01EB1261C0F35600C2F3560240F439
:105FB000000042F40002A0FB022000047F39140418
:105FC00000D0401C50EA124001D44000491EC2B229
:105FD0000C0604EBD010401C4008802A02D003E0DD
:105FE000002010BD20F00100002900DA0020184335
:105FF00010BD30B480EA010202F0004530F00042EA
:1060000021F0004013D090B1C30DD40DC2F316019E
:10601000C0F31600E41A41F4000140F400027D349C
:10602000914201D3641C00E04900002C02DA30BC2C
:10603000002070474FF400000023914201D3891AD9
:10604000034340084FEA4101F7D151B1914202D1D7
:106050004FF0004105E002D24FF0010101E06FF086
:10606000010103EBC450284430BC00F084B92DE991
:10607000FE4F81EA030404F0004421F00041009443
:106080004FF0000B23F0004350EA01045ED052EAC7
:1060900003045BD0C3F30A54C1F30A552C44A4F2A1
:1060A000F3340194A0FB0254C1F3130141F48011B5
:1060B000C3F3130343F4801301FB024400FB034EBC
:1060C000840A970A44EA815447EA8357A4FB076885
:1060D00002958D0A05FB07854FEA932C04FB0C54AF
:1060E0002705029D4FEA065847EA1637B5EB080523
:1060F0006EEB070C870E920E47EA811742EA831275
:10610000A7FB0201B6EB0B0164EB00042B0D43EA85
:106110000C335E1844EB1C50DA465146E7FB020193
:10612000C5F313044FEA0B3343EA14534FEA043226
:10613000019C43EA0603A4F10C040294009CCDE9FF
:1061400000B400F05EF903B0BDE8F08F0020014616
:10615000F9E72DE9F04D81EA030404F0004B21F04A
:10616000004514464FF0000A23F0004150EA0502B2
:1061700020D054EA01021DD0C5F30A570246C5F3E8
:106180001303C1F31300C1F30A5640F4801543F41E
:106190008013A7EB0608101BD64608F2FD3873EBF8
:1061A000050002D308F1010801E092185B41B8F143
:1061B000000F03DA00200146BDE8F08D00204FF407
:1061C0008011064684460EE0171B73EB050705D3C6
:1061D000121B63EB050306434CEA010C49084FEA26
:1061E000300092185B4150EA0107EDD152EA0300FA
:1061F00012D082EA040083EA0501084305D0101B8F
:10620000AB4106D20122002306E000224FF00043FA
:1062100002E06FF0010253101AEB06004CEB08513C
:1062200010EB0A0041EB0B01BDE8F04D00F0DAB8CD
:10623000C10F80EAE0700844CA079623002100F0ED
:10624000A3B896230022114600F09EB80EB5C10FE8
:1062500080EAE0700844CA07002140F233438DE829
:106260000E000A460B4600F0CCF803B000BD00F06B
:10627000004220F00040C10DC0F3160040F40000C1
:106280007F2901DA00207047962903DCC1F19601CD
:10629000C84001E096398840002AF4D04042704757
:1062A00020F00040C10DC0F3160040F400007F292B
:1062B00001DA00207047962903DCC1F19601C8403D
:1062C000704796398840704770B5C1F30A5201F0A3
:1062D00000450024C1F3130140F2FF3341F4801163
:1062E0009A4201DA002070BD40F233439A42A2F292
:1062F000334203DC524200F02EF800E090402C4381
:10630000F1D0404270BDC1F30A5210B5C1F3130180
:1063100040F2FF3341F480119A4201DA002010BDAF
:1063200040F233439A42A2F2334203DC524200F07D
:1063300012F810BD904010BD202A04DB203A00FA6C
:1063400002F1002070479140C2F1200320FA03F3CC
:10635000194390407047202A04DB203A21FA02F0CA
:106360000021704721FA02F3D040C2F1200291408F
:106370000843194670470029A8BF7047401C4900D0
:1063800008BF20F00100704710B4B0FA80FC00FA9A
:106390000CF050EA010404BF10BC704749B1CCF1C5
:1063A000200421FA04F411FA0CF118BF0121214351
:1063B0000843A3EB0C01CB1D4FEA00614FEA10200C
:1063C00042BF002010BC704700EBC35010440029AE
:1063D000A4BF10BC7047401C490008BF20F001005A
:1063E00010BC704710B5141E73F1000408DA401C8D
:1063F00041F1000192185B411A4301D120F00100E4
:1064000010BD2DE9F04D92469B4611B1B1FA81F2D3
:1064100002E0B0FA80F220329046FFF78DFF04468A
:106420000F4640EA0A0041EA0B0153465A46084328
:1064300013D0114653EA010019D0C8F1400250466A
:10644000FFF789FF05460E46504659464246FFF77C
:1064500073FF084305D0012004E020463946BDE81B
:10646000F08D0020054346EAE0762C4337430A9836
:106470006305E40AA0EB08000022FD0A44EA475441
:106480000A3002D500200146E9E7010510196941EB
:10649000DDE9084500196941BDE8F04DA2E70000BB
:1064A000064C074D06E0E06840F0010394E8070061
:1064B00098471034AC42F6D3FFF71CFCF4F0000808
:1064C00014F1000870B58C1810F8015B15F0070383
:1064D00001D110F8013B2A1106D110F8012B03E07D
:1064E00010F8016B01F8016B5B1EF9D12B0705D485
:1064F0000023521E0DD401F8013BFAE710F8013BCE
:10650000CB1A921C03E013F8015B01F8015B521EE9
:10651000F9D5A142D8D3002070BD10B508F04FFCCA
:10652000002010BD70B507F041FE0C4D4FF408740B
:106530002146284600F030F8012807D1284600F00F
:1065400028F8074A1080012082F8240021462846B6
:1065500000F008F8BDE8704007F036BE00240140A6
:10656000F4240020090AC94301607047002904D0BF
:10657000816841F0010181607047816821F001016B
:1065800081607047014600208968490700D50120D5
:106590007047C06C80B2704710B5024600200B0AED
:1065A0005468C9B20C401168194202D0002C00D0C6
:1065B000012010BD014600208968090700D501208F
:1065C0007047C9B2002A03D042680A43426070474C
:1065D00042688A434260704710B542680E4B1A40C9
:1065E0000C790B6842EA04221343436082680B4B28
:1065F0001A40D1E9024323434C7942EA440213434F
:106600008360C26A22F47002097C491EC9B242EA60
:106610000151C16210BD0000FFFEF0FFFDF7F1FF68
:1066200008B54FF4C06004F015FB12208DF800008F
:1066300001208DF8010006218DF802108DF803006D
:10664000684604F0D5FA08BD70B5072609290AD9AD
:10665000C568A1F10A0404EB4404A640B543A34075
:106660001D43C56007E0056901EB4104A640B54341
:10667000A3401D4305611F23072A09D2446B521E04
:1066800002EB820293409C4391400C43446370BDF3
:106690000D2A09D2046BD21F02EB820293409C4365
:1066A00091400C43046370BDC46A0D3A02EB820250
:1066B00093409C4391400C43C46270BD816841F09B
:1066C000080181607047002904D0816841F4A0016D
:1066D00081607047816821F4A00181607047816802
:1066E00041F004018160704708B50121042004F0E5
:1066F000DFFE0820ADF8000000208DF80300694699
:10670000014802F0C9F908BD0008014010B5FFF7C3
:10671000EBFF00F005F8BDE81040FFF781BF000077
:1067200010B586B00121480204F0C2FE4FF440408B
:1067300004F098FE002001908DF808008DF8090003
:106740004FF460210391049001208DF81400154C42
:1067500001A92046FFF740FF07230122032120461D
:10676000FFF772FF01224FF408712046FFF729FF5F
:1067700001212046FFF7FAFE2046FFF79FFF204643
:10678000FFF718FF0028FAD12046FFF7A8FF2046A0
:10679000FFF7F8FE0028FAD101212046FFF793FF0A
:1067A00006B010BD0024014001884FF6FF729142EF
:1067B00001D2491C018070470178FF2901D2491C90
:1067C000017070472DE9F041002500240027394869
:1067D000B0F84A00202802D02846BDE8F081364EA5
:1067E00096F8260196F82711884260D3002086F893
:1067F0002601352105F0A2FDC0F340258DB32121EE
:10680000384605F09BFD0246B08CB6F82811401AB8
:1068100001B2B6F92A01B1EB800F07DB96F82C0123
:1068200000EB4001C1EB002044B228E0B1EB400F87
:1068300006DB96F82C01C0EBC010400044B21EE00D
:10684000884204DC96F82C01404244B217E04042F2
:10685000B1EB800F06DC96F82C0100EB400044B24F
:106860000DE011E0B1EB400F04DC96F82C01400084
:1068700044B204E0884202DB96F82C0144B21019BD
:10688000002801DBC6F830010C48407A01280ED000
:1068900000223D21384606F0AFFF3846D6F83011C9
:1068A00006F050FE05460021384606F089FE2846CF
:1068B00093E70000EC23002028220020BE350020B2
:1068C0002DE9F05F04460D464FF0000A227E0127B5
:1068D00000264FF0030BA5F1210104F58E7004F59D
:1068E00091794FF006080A2A75D2DFE802F00575A3
:1068F000F0EF24242424242402291DD894F8101114
:10690000022918D1FFF750FFB4F81C01B4F90A119D
:10691000884210DBFA346677A6776684E68426859B
:1069200084F82A6084F82B6054F8DA0C008AA0827C
:1069300004F8E27CFA3C95E1022D0CD0062D21D022
:10694000072D1FD0032D3ED0052D3CD0242D3AD04D
:10695000252D38D086E1FFF727FFB4F81C01B4F9E4
:106960000A118842E7DBA4F81C61206A018842888A
:10697000114401EBD171491089B2502204F01EF983
:1069800027766FE194F810110229D4D1FFF70CFF9C
:10699000B4F81C01B4F90A118842CCDBA4F81C61DC
:1069A000B4F8F400A4F8F60084F81561206A0188B0
:1069B0004288114401EBD171491089B2502204F090
:1069C000FDF827764EE194F81001022801D0012845
:1069D000B1D1277646E144E1022D1CD0062D2FD0FF
:1069E000072D38D0022948D8FFF7DEFEB4F81C0185
:1069F000B4F90A1188429EDBFA346677A67766847A
:106A0000E684268584F82A6084F82B60022004F846
:106A1000E20CFA3C26E1F034B4F90400B4F90010B9
:106A2000401AB4F90810F03C4A42824201DA81422D
:106A300090DC504606F0DAFEE78284F8188011E117
:106A400094F81501002885D0504606F0CFFEE78265
:106A500084F8188006E134F9F40FB4F90210401AF2
:106A6000B4F90C10F43C4A42824201DA814203DC60
:106A700084F8166184F818B0F4E04FF0090A032D89
:106A800006D0052D04D0242D18D0252D3DD0E9E0C9
:106A900094F8100101280CD1206AB4F9F010008894
:106AA000401AB4F90611814204DBA4F816A084F858
:106AB00018A0D7E0E78284F81880D3E094F810019A
:106AC0000725022804D001280AD0CBE09BE03DE056
:106AD000206A0088B0F5C07F01D2E5822576C1E04A
:106AE0004846FFF761FEB4F82201B4F90C11884260
:106AF00006DBA4F8226194F8170110B1E58225762F
:106B0000B0E0E68284F818A0ACE094F81001012807
:106B100016D14846FFF748FEB4F82201B4F90C112B
:106B200088420DDBA4F82261206AB4F9F0100088D5
:106B3000401AB4F90611814203DBE68284F818A0FA
:106B400090E00820E08284F818A08BE0222D01D08C
:106B5000232D30D194F8180108B184F8257194F8E8
:106B6000250118B104F59070FFF71EFE94F8250179
:106B7000052188B194F8100101280DD1B4F8200145
:106B8000B4F90C21904204DBA4F82061E182217663
:106B900002E084F82561E68294F8100101280AD108
:106BA000206AB4F9F0200088801AB4F906218242E4
:106BB00001DBE1822176212D01D0232D52D194F8E1
:106BC0001001022802D001280AD04BE0206A008878
:106BD000B0F57A5F46D3A4F816B00420207641E0E1
:106BE0004846FFF7E1FDB4F82201B4F90C118842E0
:106BF00038DBA4F8226194F8170188B3A4F816B022
:106C0000042020762EE0B4F9F400B4F9F610401A0E
:106C100094F8161129B1B4F9FE10814201DC84F810
:106C20001880206AB4F9FC1000880844B4F9F01008
:106C3000814205DB504606F0D9FDE78284F81880D2
:106C4000B4F9F400B4F904110844216A09888142B6
:106C500008DB504606F0CAFDA4F816B004202076E2
:106C600000E02676207EBDE8F09F000010B50022EF
:106C70005021024802F080FCC0B210BD0058004014
:106C800010B500240E4A1079D17840EA0121880B12
:106C9000002804D0022810D003280BD00DE0C1F347
:106CA0000D01002082F82D009184106A502205F019
:106CB000EDF802E0012082F82D00204610BD000012
:106CC000282200202DE9F84F0025D0489621807811
:106CD000B1FBF0F40821B1FBF0F65A21B1FBF0F161
:106CE00000912421B1FBF0F73021B1FBF0F8DFF87F
:106CF00020934FF0000A99F81001002804D00128D1
:106D000005D0022811D106E0A9F81AA10DE0C1486A
:106D1000FFF74AFD09E03521002005F00FFBC0F325
:106D2000402010B1012089F8100199F80000DFF827
:106D3000E8B20A287ED2DFE800F0053386F1F0F0F1
:106D4000F0F0F0F0C9F8ECA0D9F8200008E030F835
:106D50001510D9F8EC201144C9F8EC106D1CEDB2F7
:106D6000B542F4D3D9F8EC0090FBF6F0A9F8F000A6
:106D7000BBF84A0060B189F818A0A9F816A0A9F8D4
:106D80001CA1A9F820A1A9F822A1012189F80010CD
:106D9000012801D0042801D189F800A0BDE8F88FAE
:106DA000BBF89200A9F8F800BBF8A200A9F8FA0015
:106DB000BBF89A00A9F8FC00BBF8B200A9F8FE00E5
:106DC000BBF8AA00A9F80001BBF8BA00A9F80201B3
:106DD000BBF8CA00A9F80401BBF8C200A9F8060173
:106DE000BBF8D200A9F80801BBF8DA00A9F80A013B
:106DF000BBF8E200A9F80C01BBF84A00032805D053
:106E0000052803D0242801D0252802D1032189F8A0
:106E100000100221022803D0062801D0072801D142
:106E200089F80010A0F12102022A01D889F8001087
:106E3000002800E0E7E0B1D189F810A1A9F816A078
:106E400089F800A0AAE789F811A189F812A189F8A8
:106E500013A189F814A1C9F8ECA070E0B44209D8D4
:106E6000D9F82010601E31F81000D9F8EC10084451
:106E7000C9F8EC000098844219D3D9F820000188A1
:106E8000428811444908621E30F8122030F814007C
:106E900010444008081A00B2B9F9FA10814202DD24
:106EA0004942814203DB5B480938FFF785FCBC425D
:106EB0001CD3D9F82000E11B30F8111030F8142051
:106EC000891A09B20088B9F9F62090420EDBB9F9A7
:106ED0000001884208DCB9F9FE00884204DB4D4815
:106EE0000838FFF769FC01E089F812A1444524D372
:106EF000D9F82000A4EB080130F8111030F8140084
:106F0000081A05B2B9F82400B9F90411884206DB61
:106F10004048C01FFFF750FC03E069E058E089F8E3
:106F200013A1B9F902014042A84204DB3948801F8D
:106F3000FFF742FC01E089F814A1641EE4B2002CC2
:106F40008CD1D9F8EC0090FBF6F0A9F8F4003148A8
:106F500099F811110122401F00F0B0F82D4899F85E
:106F600012110622001F00F0A9F82A4899F81311FF
:106F70000222C01E00F0A2F8264899F8141103223C
:106F8000801E00F09BF89BF84A102148FFF798FC00
:106F900099F81800042804D0052806D0062808D03F
:106FA0000AE0072089F8000006E0082089F80000C0
:106FB00002E0042089F80000BBF84A0000287FF4B2
:106FC00041AF89F810A1A9F816A089F800A0E5E65C
:106FD0009BF84A100E48FFF773FCBBF84A000028E4
:106FE000F5D189F810A1A9F816A089F800A0D5E676
:106FF000BBF84A000028EAD189F810A1A9F816A028
:1070000089F800A0CAE689F800A0C7E62E00002093
:107010002822002042230020EC2300202DE9F04705
:1070200024484FF0050AA0F800A01E2303825A242A
:10703000048116250584092606834FF48277078587
:1070400042F6244CA0F838C04FF03208A0F8308047
:107050004FF4C879A0F84090C822A0F848204B21EE
:10706000A0F850101448A0F82AA08385C48505868E
:1070700046868786A0F83880A0F836C0A0F83A90F7
:107080008287C18750218170282101831421418387
:10709000A0F19E0140F8AE1C4FF4005181840A21FA
:1070A00080F859100621A0F85C100221A0F85E10AB
:1070B000BDE8F0877E240020F622002010B50024D1
:1070C000914202D3FFF778FB01E0002101702046D6
:1070D00010BD000008B572B6022000900023044ADB
:1070E0005021044802F02AFCC0B262B608BD00007C
:1070F0002B220020005800402DE9F041244C0026AE
:1071000001276078234D05283FD2DFE800F0030A0D
:1071100017393C0095F82900002800D16770BDE8B8
:10712000F08195F829000028F9D106F049FFFFF712
:107130009DFD06F053FF02206070F0E795F82800EF
:10714000022816D106F03CFFFFF7C4FF804606F088
:1071500045FFB8F1010F04D085F82A7085F82C702E
:1071600001E085F82A60FFF78BFDFFF7ABFDFFF725
:1071700029FB95F82A000128D1D103206070CEE7C1
:1071800004206070CBE76670C9E76670C7E700004F
:1071900028220020F4020020014804F04BBB00002C
:1071A0005B25002010B50446A41D4EF6052044F8CA
:1071B000060C4FF47A7024F8020C64202060002042
:1071C00020712149C4F8051040F6AC51C4F80910EB
:1071D00040F2DC51C4F80D104FF4FA71C4F81110EC
:1071E000C821C4F81510C4F81900602262771E2265
:1071F000A2770622E2774022228461846062134AE9
:10720000A26249F64041E162114921634FF6E85319
:107210006363A163E2630A21216484F84400216B63
:10722000C4F84510616B4C3444F8031C60700121B4
:10723000A170E1706060A060523C5E21204600F0C9
:1072400095FAA4F85E0010BDD007030020A1070046
:10725000E0930400FEE7000010B5044604494979B4
:10726000204600F06BF92046BDE8104000F088B8D9
:107270002D33002010B50C4988420AD101214C065B
:10728000204604F007F92046BDE81040002104F034
:1072900001B901218C06204604F0FCF82046BDE827
:1072A0001040002104F0F6B800640040F0B5827A86
:1072B00001219140304C226842F0010222602E4DA3
:1072C0001C352A688A432A602B4A067B0C322B4BDA
:1072D000002E14D116688E4316604688C78846EA89
:1072E0000746877A03EBC707C7F840660688878892
:1072F00046EA0746877A03EBC707C7F84466067B6A
:10730000012E14D116680E4316604288068842EAA0
:107310000642867A03EBC606C6F84026C2888688EF
:1073200042EA0642867A03EBC603C3F84426124AB1
:10733000C37A121D3BB113680B4313600E4A0389D5
:10734000143223B106E013688B431360F6E7136829
:107350008B4313600389012B02D113680B43136025
:10736000407B012802D1286808432860206820F06B
:1073700001002060F0BD0000006600400060004099
:107380001FB5044600218DF80A1001228DF80B204C
:107390008DF80C1002F092FD034604F00DFB5B0526
:1073A0001B0CADF800304005000CADF802004FF6A4
:1073B000C070ADF80400ADF80600ADF808108DF807
:1073C0000D206846FFF772FF01220221204600F0DF
:1073D00029F81FBD38B50121480604F04DF80121F8
:1073E000052004F065F84FF48050ADF80000182037
:1073F0008DF8030003248DF80240094D69462846A4
:1074000001F04AFBE914ADF8001048218DF8031093
:107410008DF802406946284601F03EFB38BD000069
:1074200000080140002A03D042690A4342617047C4
:1074300042698A434261704710B50022036823F015
:1074400002030360036843F0010303604FF6FF7318
:1074500000E0521C4468E40701D19A42F9D1426825
:10746000D2073ED08A79012A3DD0026822F08002FC
:107470000260CA79012A3BD0026822F04002026011
:107480000A7A012A39D0026822F0200202604A7A80
:10749000012A37D0026822F0100202608A7A012A9B
:1074A00035D0026822F008020260CA7A012A33D07D
:1074B000026822F0040202608A78CC78920742EADD
:1074C00004620C7942EA04424C79098842EA045287
:1074D000491E0A43C261016821F0010101600021D7
:1074E00020E0002010BD026842F080020260C0E788
:1074F000026842F040020260C2E7026842F02002E5
:107500000260C4E7026842F010020260C6E7026847
:1075100042F008020260C8E7026842F0040202601A
:10752000CAE7491C4268D20701D09942F9D14068A4
:10753000C00701D0002010BD012010BD3EB504469B
:107540000D462046FFF796FE684600F0A4F800229C
:107550008DF8062001238DF807308DF808308DF85E
:1075600009208DF80A208DF80B208DF802200A489A
:1075700000EB0511087B8DF8030008798DF80400F5
:10758000087A8DF805000888ADF8000069462046A5
:10759000FFF752FF3EBD0000ECED000870B500247F
:1075A0000B4D002202212846FFF73CFF00F02AF88D
:1075B000084803F037FF0748283802F053FB00F073
:1075C0000BF8FFF707FF2846FFF746FE204670BD81
:1075D00000640040A423002008B54FF4C06003F00D
:1075E00039FB14208DF8000000208DF801000320E5
:1075F0008DF8020001208DF80300684603F0F8FAC8
:1076000008BD000002490422A1F10C0003F010BFE4
:10761000B023002010B500EB0113D3F8B04104F003
:1076200004041472002C2CD0D3F8B041E408546048
:1076300003F5D8731C6804F0020454725C6804F00B
:107640000F0494725C68240AD4749C68D4729C6899
:10765000240A14739C68240C54739C68240E94733D
:10766000DC68D473DC68240A1474DC68240C547459
:10767000DB681B0E937449B1016941F0200101617F
:1076800010BDD3F8B041640D1460D1E7C16841F07A
:107690002001C16010BD00218171C1710172417270
:1076A0008172C1728170C170032101710221417127
:1076B00001210180704730B50246002093685B01CC
:1076C0000AD49068000101D5012005E09068C0004F
:1076D00001D5022000E0042004283BD002EB001278
:1076E000D2F8803103F00103C2F880310B7A93B3F2
:1076F000D2F880414D681C434B7A43EAC5031C43D2
:10770000C2F880418B7A03F00F038B7202F5C072CE
:10771000536823F00F03536053688C7A23435360FC
:10772000CB7A8C7B0D7B43EA04634C7B240444EAD4
:10773000052423439360CB7B8C7C43EA04634C7C1D
:10774000097C240444EA01210B43D360116841F011
:107750000101116030BDFFE7D2F880314C7A23433C
:107760000C8843EA4453C2F88031CBE770B5FF235D
:10777000FF22084D05F5807605E010F8014B5440D6
:107780002A5D5A40335D491E4C1CF6D142EA032063
:1077900070BD00004C00002070B586B0002601AA24
:1077A00000212148FFF736FF2049019889880DF113
:1077B0000F05884206D19DF80C0018B99DF80E00FF
:1077C00008280ED01A490198D1F80610884204D032
:1077D0000198A0F5E061FE3923D19DF80C0050B16D
:1077E0001FE01449012081F82900124829463C3045
:1077F00003F0D2FD15E09DF80E00082811D104F029
:1078000065FB04466CB1042020700822294604F16F
:107810000800FEF732FB019860600021204604F06A
:10782000BBFB06B0304670BD006400405025002010
:107830002D330020682300202DE9F0410125204C44
:10784000012794F82810002908D00026012908D023
:1078500002291AD084F82860BDE8F08184F82870E5
:10786000FAE717491F3101F11D0003F0B9FDC0B25D
:1078700028B902F01BFD054684F82960A685002D75
:10788000EAD1022084F82800E6E70D482C30FEF704
:107890008BFF02F007FF05463DB1042D05D10948D5
:1078A000FFF7DAFC0A2006F0DEFF052D04D1A08DDB
:1078B00040F226218842CFD984F82870CCE7000016
:1078C000682300200064004010B586B0044604F030
:1078D0002DFA0190002202928DF80C208DF80D20D7
:1078E00008208DF80E0020788DF80F000822214620
:1078F0000DF10F00FEF7C1FA01A90248FFF7DBFE08
:1079000006B010BD006400402DE9F041002621487A
:10791000FEF74AFF1F4C00252C3C94F889010128F2
:1079200005D1022084F88901A585E5852563A17A22
:10793000607A41EA00200104E27A207B41EA0221D8
:10794000084320F0704784F84D502764124A3846A7
:10795000616C02F0BFFA6064E36B01464022184696
:1079600004F0A4FA94F8500130B1012801D084F851
:1079700050513046BDE8F081A08D94F852118842F4
:10798000F7D340223946E06B03F024F9012084F854
:107990005001EEE7C4200020CDCC4C3F0020084928
:1079A0004FF6FF72B1F8421002EAC121054AB2F85F
:1079B0007E318B4202D0A2F87E1101207047000078
:1079C000EC230020982000200020064A064992F867
:1079D0008831B1F87A108B4202D082F888110120E8
:1079E0007047000098200020EC2300202DE9FC4186
:1079F00000260196454CB4F87001010A8DF8041078
:107A00008DF80500424F0225082301AA542138466B
:107A1000009502F00BF8092301AA5421384600957D
:107A200002F004F8B4F87411080A8DF804008DF817
:107A30000510102301AA54213846009501F0F6FFE5
:107A4000112301AA54213846009501F0EFFFB4F844
:107A50007611080A8DF804008DF80510142301AA88
:107A600054213846009501F0E1FF152301AA542165
:107A70003846009501F0DAFFB4F87E11080A8DF857
:107A800004008DF805101E2301AA542138460095E4
:107A900001F0CCFF1F2301AA54213846009501F0C4
:107AA000C5FFB4F87811080A8DF804008DF80510A8
:107AB000192301AA54213846009501F0B7FFB4F804
:107AC0007C01010A8DF804108DF805001B2301AA22
:107AD00054213846009501F0A9FFB4F87A01010A53
:107AE0008DF804108DF805001A2301AA5421384698
:107AF000009501F09BFFC0B2012184F88911A68591
:107B0000E685266384F86E11BDE8FC81982000208C
:107B1000005800402DE9F04F00200021DFF8D890F8
:107B200099F8514199F86A814A4699F8006092F8AB
:107B30005031D2F88051DFF8C4A0D26B8446072EB2
:107B400056D2DFE806F0042B2B2B2D2B2B00012B1C
:107B50001AD109E052F823601768F61BB54201DA22
:107B6000491CC9B25B1CDBB2A342F3D3414509D324
:107B70001168C9F864110121A9F82410042189F8B9
:107B8000001001E0A9F824C0BAF84A10002905D174
:107B9000A9F824C089F850C189F800C0BDE8F08F69
:107BA000154E012B96F84DB00FD1BBF1000F0CD143
:107BB00009E0166852F82370F61BB54201DA491C39
:107BC000C9B25B1CDBB2A342F3D3414501D389F8B0
:107BD00000C0BAF84A1019B9A9F824C089F800C041
:107BE000BBF1010FDAD1A9F824C089F800C0D5E7AC
:107BF00089F800C0D2E7000098200020EC23002084
:107C00002DE9F047344842F2D85420F8324C002194
:107C100020F82A1C642520F8225C41F2040620F892
:107C20001A6C012220F8122C45F6016720F80A7C14
:107C300040F20D2C20F802CCC180C181DFF89C807D
:107C4000DFF89C900321C1824FF45461C18302216B
:107C5000C1844BF62073C3850023C3861F23C387CB
:107C60002048A0F870411F4C0020A4F87201204663
:107C7000A0F87451A0F87661A0F87821A0F87A7184
:107C8000A0F87CC10020A4F87E012046C0F88081C5
:107C9000C0F8849180F888312346402083F8510150
:107CA0001846A0F86A11A0F86C115030D86350380B
:107CB00080F889111946002081F88A0181F88D0128
:107CC000084680F88E21002000F0D8FDBDE8F0477E
:107CD000002000F0E5BD000028240020400D030036
:107CE00020BF020098200020F8B572B602251A4C79
:107CF0001A4E1823E21C54213046009501F058FD1D
:107D000062B6002184F82A1084F8281084F829101B
:107D1000217901F0080201231AB184F8283084F88F
:107D20002A3001F0040010B104F8293F637072B6E4
:107D30000223094A542109323046009501F038FDEA
:107D4000054A03230B3254213046009501F030FDE3
:107D5000C0B262B6F8BD0000982000200058004074
:107D60001CB50020019080218DF804108DF80500CD
:107D7000022000901C2301AA5421024801F056FE63
:107D8000C0B21CBD005800400020704770B5104CB8
:107D900094F82220D30F0F480021FEF73DF8B4F8E5
:107DA0007A200346A2FB0306002505FB036302FBC2
:107DB0000131000940EA0170090964220023FEF73D
:107DC0002BF8401C60810449A1F87001284670BD61
:107DD000EC23002000093D00982000201CB5002164
:107DE00001910D49B1F87A21110A8DF8041001288A
:107DF00003D141F020008DF804008DF8052072B603
:107E0000022000901A2301AA5421044801F00EFE1A
:107E1000C0B262B61CBD000098200020005800408F
:107E200000201249124AB1F8423092F88811162BFC
:107E300006D34FF4F073B3FBF1F382F851310DE048
:107E40000D2B06D34FF49673B3FBF1F382F8513147
:107E500004E0BE23B3FBF1F382F851314FF46173B8
:107E6000B3FBF1F182F8521170470000EC230020BF
:107E7000982000202DE9F05F4FF00109814D012687
:107E8000814F687800244FF0040B4FF0020A4FF046
:107E90000308052874D2DFE800F0030E1FD8E600BF
:107EA00087F8284006F08CF8FFF75AFF06F096F89E
:107EB0006E70BDE8F09F87F8286006F081F8FFF744
:107EC00095FD044606F08AF8012C02D085F8018061
:107ED000EFE785F801A0ECE7FFF7A2FF95F8260091
:107EE000012808D185F8264085F82740FFF7FCFED9
:107EF0008146FFF709FDFFF767FD012803D1FFF772
:107F000045FF85F88941FFF749FD012803D1FFF7B7
:107F10003BFF85F88941DFF874B1BBF84A0028B906
:107F200095F88901022801D185F86E6195F86E01F6
:107F3000012806D185F86E4185F85041AC85EC8565
:107F40002C63FFF7E7FDB9F1010F05D087F8296031
:107F500087F82B602C6401E087F82940BBF84A00C1
:107F6000062821D2DFE800F003062006101085F86D
:107F70008A6119E02878042803D085F88A4113E043
:107F80007DE085F88A610FE04148808800F00100BB
:107F900098B195F8340085F88C012878042813D01E
:107FA00095F88C0185F88A0195F8890101280ED091
:107FB00095F88B0101280AD00BE095F8340026EAE9
:107FC000000085F88C01E8E785F88A61ECE785F820
:107FD0008A4195F88D1195F88A01814205D0FFF705
:107FE000FDFE95F88A0185F88D0197F82B00012890
:107FF0000AD097F82C00012806D087F828A095F819
:108000008D01012807D008E087F8288087F82B40E9
:1080100087F82C40F3E785F8274095F827000328D8
:1080200003D385F8274085F8894195F8890110B96F
:10803000FFF796FE6E7097F8280003287FF448AF8C
:1080400085F8274085F8018033E705F0B9FF87F808
:1080500028800D490F48183103F0B4FC05F0BEFF2D
:1080600085F801B025E705F0ABFF87F828B001F0EF
:10807000B7FD85F8274005F0B1FF6C7019E76C700B
:1080800017E7000098200020F4020020EC230020D5
:1080900050250020005800400246002092F832107F
:1080A000002902D0012900D0022092F8311041B3FA
:1080B000012926D0042924D0062922D0C92920D07C
:1080C000CA291ED0CB291CD0CC291AD0CD2918D032
:1080D000CE2916D0CF2914D0D02912D0D12910D032
:1080E000D2290ED0D3290CD0D4290AD0D52908D032
:1080F000D62906D0FC2904D0FD2902D0FE2900D0C3
:10810000012050637047000010B50121024800F0C3
:1081100045FD0249887010BD000C0140340000206C
:1081200074283DD2DFE800F03A3A3A3A3A3A3A3A1D
:108130003A3A3A3A3A3C3C3C3A3A3A3A3A3A3C3C95
:108140003C3C3C3C3C3C3C3C3A3A3A3A3A3A3A3A7F
:108150003A3C3A3A3A3A3C3C3C3C3C3A3A3A3A3C71
:108160003A3A3A3A3A3A3C3C3C3C3C3C3C3C3C3C5B
:108170003C3C3C3C3C3C3C3C3C3C3C3C3C3C3C3C3F
:108180003C3C3C3C3C3C3C3C3A3A3A3A3A3A3A3A3F
:108190003A3A3A3A3A3A3A3A3A3A3A3A0020704750
:1081A0000420704710B50448FEF7FCFFBDE81040FE
:1081B000014803F0DFBC00005B25002010B5044837
:1081C00000F016FEBDE81040014803F006BD0000B7
:1081D0002D33002010B5044801F08EFDBDE810409D
:1081E000014803F035BD00005025002010B50548BA
:1081F00003F0BCF8BDE8104040F6FA020149022045
:1082000002F030BEBB25002010B540F6FA0103484D
:10821000FDF75AFE01490320087210BDBB2500205E
:1082200002F012FB184C4FF4F9760025A078401CA0
:10823000C0B2A070052806D3A57001F0F9FCFFF7C5
:1082400063FF05F0E1FA2089401C80B22081B04232
:1082500012D325810C480A30FEF7A6FA0B48FEF728
:10826000ABFA0B484078022801D101F001FF094820
:10827000016881F010010160FFF7DEFA00F082FA78
:10828000022006F0F0FAD1E724030020BF200020EE
:108290002E0000200C0C01407047000070B540F625
:1082A000FA0529460A48FDF70FFE094C4EF605204F
:1082B000206003202072A91E2046FFF757FAA4F879
:1082C000F8082A462146BDE87040022002F0CABDE7
:1082D000BB25002070B5044600204FF0E025AA69B8
:1082E00069690A4B0A4E1B68B3FBF6F363438B4282
:1082F00001D9012070BD8C18A9698A4201D9511A8F
:1083000000E0611A9942F7D370BD00000000002020
:1083100040420F0070B504460026002501290ED00A
:10832000601CFEF749FA257020780A2801D901203F
:10833000A07060780A2800D9A570304670BD20462C
:10834000FEF73AFA6570EFE770B500252A4E4FF454
:108350000051304600F022FC01462848FFF7DAFFC2
:108360004FF48041304600F019FC0146234CE01CDC
:10837000FFF7D0FF4FF40041304600F00FFC0146FC
:10838000A01DFFF7C7FF80211D4800F007FC014634
:1083900004F10900FFF7BEFFA1781A4821B1017866
:1083A00021F00101017003E0017841F00101017049
:1083B000617921B1017821F00201017003E00178B7
:1083C00041F002010170217A21B1017821F004010C
:1083D000017003E0017841F004010170E17A21B1FC
:1083E000017821F00801017003E0017841F00801F3
:1083F0000170284670BD0000001001404425002097
:10840000000801402E0000200749FF220A704A7030
:1084100000208870CA700A7148718A71CA71087226
:108420004A728A72C8727047442500200C480121A4
:1084300041700021017041F6B87181802021418096
:10844000084981600849C1600849416108490161E2
:10845000084981610849C16108490162704700000B
:108460006C310020F19F0008719F0008499F0008AF
:10847000659F0008ED9F00086D9F0008B99F0008E8
:108480002DE9F047174600250646DFF8D8A09AF8F0
:108490000240002964D0002F62D0BAF8042038448A
:1084A00090425DD88846B6FBF4F004FB1060C0B281
:1084B00060B1201A00F0FF0950464F45C36825D827
:1084C0003A4641463046BDE8F0471847B7FBF4F05E
:1084D00000F0FF090AE0DAF80C3022464146304647
:1084E0009847301986B2A0446D1CEDB24D45F2D3C9
:1084F000B7FBF4F004FB1070C2B2002A30D0414642
:108500003046DAF80C30BDE8F04718474A46414695
:108510003046984706EB090086B2C844A7EB090924
:1085200099FBF4F0C7B25FB90CE0DAF80C302246E0
:10853000414630469847301986B2A0446D1CEDB2D2
:10854000BD42F2D399FBF4F004FB1090C2B2002AB2
:1085500006D041463046DAF80C30BDE8F0471847FF
:10856000BDE8F0876C31002070B506460D4600244A
:1085700005E0002000F006F83055641CA4B2AC42BF
:10858000F7D370BD0146014803F0CBBA0038004074
:1085900070B505460E46002404E0285DFFF7F2FFA3
:1085A000641CA4B2B442F8D370BD00002DE9F047BA
:1085B000174600250646DFF8D8A09AF802400029A1
:1085C00064D0002F62D0BAF80430C2199A425DD844
:1085D0008846B0FBF4F104FB1100C0B260B1201A70
:1085E00000F0FF0950464F45836825D83A4641467A
:1085F0003046BDE8F0471847B7FBF4F000F0FF093C
:108600000AE0DAF8083022464146304698473019E9
:1086100086B2A0446D1CEDB24D45F2D3B7FBF4F029
:1086200004FB1070C2B2002A30D041463046DAF85E
:108630000830BDE8F04718474A464146304698475B
:1086400006EB090086B2C844A7EB090999FBF4F0D0
:10865000C7B25FB90CE0DAF808302246414630462E
:108660009847301986B2A0446D1CEDB2BD42F2D3DA
:1086700099FBF4F004FB1090C2B2002A06D04146E8
:108680003046DAF80830BDE8F0471847BDE8F08713
:108690006C31002010B505F089FD102000F014F8B1
:1086A00030B10549012081F82600102000F006F8BD
:1086B000BDE8104005F088BD982000200149086001
:1086C000704700001404014001460020054A12686A
:1086D0000A40044B14331B680B4202D0002A00D01E
:1086E000012070470004014030B51B4A83790168BE
:1086F000002B2AD013688B431360111D0B6804688C
:10870000A3430B60017911440B68046823430B6099
:10871000114C08342168036899432160231D1968AE
:108720000568A94319604179102905D011440A68E8
:10873000006802430A6030BD21680268114321606D
:10874000196800680143196030BD0079104402685F
:108750008A43026030BD00000004014008B54FF4B8
:10876000C06002F077FA0A208DF8000001208DF831
:10877000010007218DF802108DF80300684602F011
:1087800037FA08BD70B5204D002695F88000002806
:108790000ED103F0B5FB044654B11822214605F171
:1087A0006800FDF76AFB204603F09AFBA5F882609B
:1087B00095F8680000281CD004281AD195F880008C
:1087C000012803D110488230FDF7EEFF0E486C30CF
:1087D00000F040FB04280DD085F8686085F88060C3
:1087E000B5F8820040F22621884202D905F8686F68
:1087F0002E7670BD012085F880000448FEF72CFD20
:108800000A2006F030F8EBE76823002000640040FF
:1088100070B50025002805D0012806D0022807D011
:10882000032070BDFFF7F0FC12E0FFF737FD0FE00B
:10883000084C4EF6052020600020207240F6F8011A
:108840002046FEF793FFA4F8F808204603F030FA1C
:10885000284670BDBB2500200021074A002803D010
:10886000012804D0032070470220107201E001208B
:108870001072084670470000BB25002010B5044662
:10888000064A012805D00221104600F08EF9204644
:1088900010BD0221104600F08AF9F8E700080140F7
:1088A00010B50446064A012805D02021104600F0E4
:1088B0007CF9204610BD2021104600F078F9F8E739
:1088C0000008014002F0D4B92DE9FE4FFFF746FF42
:1088D0000121042002F0ECFD0121082002F0E8FD56
:1088E0000121102002F0E4FD0121084602F0E0FD24
:1088F00001214F4800F024F91024ADF80840032569
:108900008DF80A508DF80B40DFF828A102A95046D7
:1089100000F0C2F81021504600F049F90127ADF8E7
:1089200008708DF80A504FF048088DF80B8002A9A6
:10893000504600F0B1F84FF00209ADF808908DF8FC
:108940000A508DF80B4002A9504600F0A5F8082007
:10895000ADF808008DF80A508DF80B4002A950467A
:1089600000F09AF80821504600F021F92602ADF8EF
:1089700008608DF80A508DF80B4002A9504600F0AF
:108980008BF83146504600F012F94020ADF808004F
:108990008DF80A508DF80B40DFF89CA002A95046D4
:1089A00000F07AF84021504600F001F92601ADF8B8
:1089B00008608DF80A5018208DF80B0002A9504667
:1089C00000F06AF83146504600F0EFF8062002F059
:1089D000D5FDADF808908DF80A508DF80B4002A92E
:1089E000504600F059F8ADF808408DF80B8002A908
:1089F000504600F051F80421002000F01FF80094C8
:108A000000208DF804000C208DF805008DF806700C
:108A10006846FFF769FE2020ADF808008DF80A507F
:108A20008DF80B4002A9504600F036F8BDE8FE8FE5
:108A300000023000000C01400008014010B58A0718
:108A4000120F0F23934021F00304054921448C6841
:108A50009C438C608B68904003438B6010BD00008A
:108A60000000014008480749016008494160084981
:108A700081600849C1600021017441748174C1742E
:108A800001757047E1DD00080C030020099500081E
:108A90003D9500082D9500082DE9F0410022CC7885
:108AA00004F00F03E40601D58C7823430C784FF0D3
:108AB0000F0714F0FF0F4FF0010C1CD005680CFAE3
:108AC00002F40E882640A64211D1960007FA06F855
:108AD00025EA080503FA06F848EA0505CE78282EA7
:108AE00002D0482E02D002E0446100E00461521C32
:108AF000082AE4D305600A88FF2A1ED945680022A7
:108B000002F108060CFA06F40E882640A64210D19F
:108B1000960007FA06F825EA080503FA06F848EA77
:108B20000505CE78282E00D14461CE78482E00D19C
:108B30000461521C082AE3D34560BDE8F0810000BF
:108B4000F0B5154C002801DAE36900E06368C0F372
:108B50000346420D120185B2C0F301579540032F21
:108B600007D0C2020CD50322B240934343F0706297
:108B700009E023F07062636823F07063636002E0D1
:108B8000AB4343F0706201B12A43002801DAE2618D
:108B9000F0BD6260F0BD0000000001400246002010
:108BA00092680A4200D0012070474161704701611C
:108BB0007047002101E000BF491C8142FBD3704790
:108BC0007CB5044600266672012500950195208833
:108BD0006FF0C7035B22074901F0A6FAA0F5E06138
:108BE000C63903D040F2DE31C84201D165727CBD86
:108BF00066727CBD8CEE000841F2013070470000C7
:108C000010B50B467F2801D9042010BD054900EBA3
:108C1000C00001EB40010A3112221846FDF72DF980
:108C2000002010BDBB2500201FB5002003900A487E
:108C30000168009141680191806802900C216846AA
:108C4000FEF794FD0390054C2080022103A8FEF757
:108C50008DFD608004B010BDE8F7FF1F29330020B0
:108C600005490A7802700988090A41700349098890
:108C70008170090AC1707047280000202A00002076
:108C800070B500260024354D002907D0012917D0E2
:108C9000022926D0032935D0032070BD10B1012848
:108CA00003D03CE06879106039E010680A2801DBE5
:108CB000042070BD6979814231D0687102242EE0B0
:108CC00010B1012804D02AE0D5F80600106026E093
:108CD000D5F806101068814221D0C5F8060002249C
:108CE0001DE010B1012804D019E0D5F80A00106089
:108CF00015E0D5F80A101068814210D0C5F80A00B6
:108D000001240CE010B1012803D008E0A87B10601A
:108D100005E0A97B1068814201D0A8730124012CD1
:108D200009D18F210D48FEF721FDA5F88F000B48D2
:108D300002F053FF0646022C0ED18F210748FEF7A2
:108D400015FDA5F88F00054802F047FF06460448C8
:108D5000FEF782FAFEF740FC304670BD2D3300204E
:108D60000064004070B50023202901D3032070BDAA
:108D70000F4C04EB810110B1012804D00BE0D1F8B5
:108D80000F00106007E0D1F80F501068854202D044
:108D9000C1F80F000123012B08D18F210448FEF7F1
:108DA000E5FCA4F88F00024802F017FF002070BD18
:108DB0002D330020802901D303207047074B03EB9C
:108DC000810110B1012804D006E0D1F891001060B3
:108DD00002E01068C1F89100002070472D33002098
:108DE00000207047014802F051BD00002D330020E3
:108DF00010B5044640F291212046FDF765F84EF685
:108E00000520206009206071C820C4F80600C4F85D
:108E10000A000020A0738F212046FEF7A7FCA4F8CB
:108E20008F0010BD10B500241D210848FDF74CF837
:108E300007490020C1F80200C4EBC4020A44507282
:108E4000641CE4B2002CF5D010BD000010330020EB
:108E5000BE3500207CB50146012500200090019020
:108E600004240A1D6E4613788DF800308DF8010039
:108E700090788DF80200D0788DF8030033462046B4
:108E800000F008F818B93046FEF71EFD05462846E2
:108E90007CBD00002DE9F04F85B0804615461C468C
:108EA0000026B146A8780222332811D034280FD0EA
:108EB000352813D0372811D0362814D095F80190D2
:108EC000B9F1000F12D06270304605B0BDE8F08FE6
:108ED0006B78042B0AD362703046F6E76B782BB1BF
:108EE00062703046F1E762703046EEE70968DFF8FD
:108EF000FCC3FF4FA1F5C06A6FF49853BAF5FF7A2F
:108F00001CD0DFF8F0A3DAF806A08A4531D10121A0
:108F1000DFF8E4A34FF0000B372872D078DC21286B
:108F200071D05DDC13286FD053DC4FF00B03102899
:108F30006BD011286AD0122869D1DDE010B18028E9
:108F400017D117E02879697940EA0121EB48807848
:108F50004006000E814204D3081A81B2E84802F0AC
:108F6000EBFEA879E97940EA0120E64981F834006E
:108F7000012672E0E8792979AA7940EA01606979E5
:108F8000090441EA02210843C01815D0A0F56C403D
:108F9000FE3811D010EB0C0F0CD100F08FFF2071B8
:108FA00000F092FF607137F81B0FA0713888000A3B
:108FB000E07152E0012088E702F0FEFC207102F02F
:108FC000B5FE607137F8190FA0713888000AE0719A
:108FD00043E014287ED015287DD020283CD1E6E03F
:108FE000332879D006DC222877D0302876D0312873
:108FF00032D1FDE0342872D0352871D036282BD1FB
:1090000027E128E104E0DDE0A3E028E03EE023E002
:10901000602866D010DC41287ED006DC3A287CD05F
:109020003B287BD0402817D117E1422877D043282E
:1090300076D0502810D17AE1822872D006DC7028D0
:1090400070D075286FD0802806D1A4E183286BD01A
:1090500084286AD0FE2869D06170304635E79AF8D6
:10906000090001280FD000223D21484604F0C4FB2E
:109070006A68E978484604F07AFA60700021484648
:1090800004F05CFBE9E7637030461EE79AF80900DC
:1090900001280BD09C4981F8102199487838B0F804
:1090A0004A00222805D0232803D005E0637030460B
:1090B0000BE76868C1F8380100223D21484604F0FA
:1090C0009BFBE87890B16968484604F035FA607017
:1090D000002107E05CE066E0A2E07DE080E0AEE039
:1090E000B5E028E1484604F06BFAB6E769684846FF
:1090F00004F028FA6070EBE79AF8090001281FD005
:1091000082483D21D0F80620484604F075FB607087
:10911000E878C0B169680AE0A4E071E078E0FEE0B8
:1091200001E167E126E134E178E186E1D9E14846F1
:1091300004F002FA60700021484604F041FA8CE71E
:1091400063703046C1E66968484604F0FBF9607018
:10915000F1E7484604F04AFB60709AF807000028DF
:1091600090D003208AF809003421584603F0E6F82D
:1091700020F001023421584603F0A2F900222021F8
:10918000584603F09DF90221584604F019FA64E7A5
:109190009AF809000128A8D08AF809108AF80AB0BC
:1091A0008AF8071059E7484604F0E0FB55E7B8F1A4
:1091B000040F02D12046FEF787FB032005F0ECFBED
:1091C00000F056FFFFF718FD010E2171010C6171CF
:1091D000010AA171E07140E7201DFFF741FD3CE766
:1091E000EA782B1D0121484603F0AAF9607034E7A4
:1091F000EA78231D0021484603F0A2F960702CE7AD
:10920000EA782B1D0121484603F080FD607024E7B9
:10921000EA78231D0021484603F078FD60701CE7C2
:10922000B8F1040F03D12046FEF74EFB0126687803
:10923000EA782B1D012104F047F960700DE768788A
:10924000EA78231D002104F03FF9607005E76270A1
:1092500003E7627001E76270FFE6284602F0D2FD84
:109260006070FAE614216846FCF72EFE00271421F0
:109270006846FCF729FE69463846FFF7C1FC84F8CA
:1092800001B09DF8000020719DF8000030B1E7703A
:109290002046FEF719FB022005F07EFB9DF8010039
:1092A000F0B104281CD80025E94647F0800810E0FA
:1092B000C4F804B084F8038009EB8500D0F80200FC
:1092C00060602046FEF700FB022005F065FB6D1C88
:1092D000EDB29DF80100A842EAD8022005F05CFB3F
:1092E0007F1CFFB27F2FC2D312E00000FFFF00FE01
:1092F000103300202D330020BE3500202E0000202A
:109300006424002098200020282200205B250020D3
:1093100084F801B0FF20E070C4F804B09DE6E8785E
:10932000FFF79AFA99E6E878FFF772FA95E6DAF825
:109330000200606091E6B8F1040F02D12046FEF70A
:10934000C3FAE87830B1012807D0022808D00328F2
:1093500009D00AE002F060FB07E0FEF72FFF04E00F
:10936000FEF720FF01E0FEF741FF032005F014FBAC
:1093700000F07EFE012002F073FD6070B8F1040F72
:1093800002D12046FEF7A0FA032005F005FB00F00D
:109390006FFE217161E6E8792979AA7940EA0160D6
:1093A0006979090441EA02210843C01815D0A0F5E3
:1093B0006C40FE3811D010EB0C0F0CD100F07EFD8C
:1093C000207100F081FD607137F81B0FA0713888A3
:1093D000000AE07141E6012077E502F0EDFA207124
:1093E00002F0A4FC607137F8190FA0713888000AE8
:1093F000E07132E62879697940EA0120B7F819105E
:10940000814201D0012628E6FFF7F6FB010E21710B
:10941000010C6171010AA171E0711EE62879697978
:1094200040EA0120B7F81910814201D0012614E664
:109430003221062000F024FC0FE64FF0000AD0464F
:109440002879697940EA0120A979EA7941EA022577
:10945000B7F81910814201D00126FEE52046FEF73B
:1094600033FA012625B92748C08C00EB400085B2AD
:1094700040F2DC572946484604F05EF860700DE083
:109480003521484602F05AFFC0F3402040B932204F
:1094900005F082FA08F132081FFA88F8B845EFD3D0
:1094A000322005F079FA6942484604F045F86070C8
:1094B0000DE03521484602F041FFC0F3402040B99D
:1094C000322005F069FA08F132081FFA88F8B84529
:1094D000EFD30AF1010A0AF0FF0ABAF1030FC9D368
:1094E000BBE5E878002884D12D792846FEF718FEE0
:1094F00008B10420E9E42946484602F01FFF6060F5
:10950000ABE500005B25002010B5074A4FF48061F1
:10951000002804D01046FFF74AFB002010BD10467B
:10952000FFF743FBF9E70000000C01404FF4006136
:109530000148FFF733BB0000000C014010B5074A9B
:109540004FF40061002804D01046FFF730FB0020E4
:1095500010BD1046FFF729FBF9E70000000C0140A1
:10956000002904D0018841F480610180704701889E
:1095700021F48061018070472DE9F04707460E46CF
:1095800090464FF40054250102E0641E601C0FD089
:109590002946384600F092F80028F6D101213846D5
:1095A00000F074F84FF480552C46DFF8749007E013
:1095B000BDE8F047092000F0CDBA641E601C0DD054
:1095C0004946384600F02EF80028F6D0F1B242465F
:1095D000384600F0B4FA124C641C07E0BDE8F047CE
:1095E0000A2000F0B7BA6D1E681C14D02146384618
:1095F00000F018F80028F6D000213846FFF7B0FF39
:109600000121384600F04EF801213846FFF7A8FF47
:109610000120BDE8F087BDE8F0470E2000F09ABABF
:1096200001000300034600209A8A1B8B1B041A4387
:1096300022F07F42914300D101207047002904D0DD
:10964000018841F0010101807047018821F001018A
:109650000180704710B50C4988420AD101214C05A0
:10966000204601F017FF2046BDE81040002101F020
:1096700011BF01218C05204601F00CFF2046BDE8FA
:109680001040002101F006BF00540040002904D022
:10969000018841F4807101807047018821F4807154
:1096A00001807047002904D0018841F400710180D5
:1096B0007047018821F40071018070470CB50246A3
:1096C000002000920A0F019221F07F41019A002AA6
:1096D00003D0009A1432009203E0090C009A183269
:1096E0000092009A12680A4200D001200CBD0000CE
:1096F00070B586B004460D46A08820F03F0601A84C
:1097000001F0E4FE03982849B0FBF1F189B20E4361
:10971000A680228822F001022280244B2A689A42E5
:1097200009D85200B0FBF2F080B2042800D2042025
:10973000491C218423E0EB88A3F53F46FF3E0BD074
:1097400002EBC20303EB0212B0FBF2F080B240F472
:109750008040020506D007E002EB4202B0FBF2F0C7
:1097600080B2F6E740F0010040F400404FF49672FA
:1097700051434FF47A72B1FBF2F1491C2184A0836A
:10978000208840F00100208020884FF6F531084005
:10979000A9886A89114301432180A889298908433E
:1097A000208106B070BD000040420F00A08601007D
:1097B0002DE9FF5F8A460E9D16464FF400594C4630
:1097C0004FF4003702E0641E601C0FD03946009849
:1097D000FFF774FF0028F6D101210098FFF756FF2C
:1097E0004FF4805B5F46DFF84C8108E004B009204D
:1097F000BDE8F05F00F0AEB97F1E781C0ED0414688
:109800000098FFF70FFF0028F6D00AF0FF010022B2
:10981000009800F094F95C46474F08E004B00A2035
:10982000BDE8F05F00F096B9641E601C11D03946A7
:109830000098FFF7F7FE0028F6D001210098FFF707
:10984000FDFE0399009800F083F95C463A4FBF1C77
:1098500008E004B00B20BDE8F05F00F07BB9641EA7
:10986000601C0BD039460098FFF7DCFE0028F6D0CC
:1098700001210098FFF70AFF5C4608E004B00C20C5
:10988000BDE8F05F00F066B9641E601C0ED0414672
:109890000098FFF7C7FE0028F6D00AF0FF0101226A
:1098A000009800F04CF9234C641C0EE004B00D202D
:1098B000BDE8F05F00F04EB9BBF1010B05D204B07A
:1098C0000E20BDE8F05F00F045B921460098FFF793
:1098D000A9FE0028F0D0174F3F371BE0012D07D11C
:1098E00000210098FFF73CFE01210098FFF7DAFE07
:1098F0004C4602E0641E601C16D039460098FFF703
:1099000091FE0028F6D0009800F016F906F8010B39
:109910006D1EADB2002DE1D101210098FFF720FEB0
:1099200004B00120BDE8F09F04B00320BDE8F05F63
:1099300000F010B901000300820007002DE9F05F7C
:1099400081460A9D8B4616464FF40058C2464FF496
:10995000003407E0BAF1010A04D2BDE8F05F092043
:1099600000F0F8B821464846FFF7A8FE0028F1D1DC
:1099700001214846FFF78AFE4FF480573C46DFF846
:10998000A8A002E0641E601C0ED051464846FFF7B6
:1099900049FE0028F6D00BF0FF010122484600F0F6
:1099A000CEF8214C641C07E0BDE8F05F0A2000F00F
:1099B000D1B87F1E781C08D021464846FFF732FEFA
:1099C0000028F6D0184F3F3720E0BDE8F05F0E20AA
:1099D00000F0C0B8012D07D100214846FFF7C0FDB7
:1099E00001214846FFF75EFE444602E0641E601C0B
:1099F00015D039464846FFF715FE0028F6D04846F0
:109A000000F09AF806F8010B6D1EADB2002DE1D101
:109A100001214846FFF7A4FD0120BDE8F09FBDE805
:109A2000F05F032000F096B8010003002DE9F05F1D
:109A300081460A9E884615461F464FF400544FF44F
:109A4000003A02E0641E601C0FD051464846FFF702
:109A500035FE0028F6D101214846FFF717FE4FF4E6
:109A6000805B5C46DFF8C8A007E0BDE8F05F04203B
:109A700000F070B8641E601C0ED051464846FFF7D7
:109A8000D1FD0028F6D008F0FF010022484600F082
:109A900056F8DA46274C0CE0BDE8F05F052000F0F0
:109AA00059B8BAF1010A04D2BDE8F05F062000F00F
:109AB00051B821464846FFF7B5FD0028F1D0394698
:109AC000484600F045F8DA465746DFF8688008F166
:109AD000020802E07F1E781C06D041464846FFF788
:109AE000A1FD0028F6D014E0BDE8F05F072000F0EB
:109AF00031B82978484600F02BF86D1C544602E036
:109B0000641E601C0FD041464846FFF78BFD0028BD
:109B1000F6D0761EF6B2ECD201214846FFF7C2FD20
:109B20000120BDE8F09FBDE8F05F082000F012B80A
:109B30000100030082000700008AC0B27047002ABB
:109B400002D041F0010101E001F0FE010182704705
:109B5000018270477047000008B50121880501F0B7
:109B60008BFC0121082001F0A3FC4FF44060ADF80C
:109B7000000003208DF802001C208DF803006946C8
:109B80000148FEF789FF08BD000C014010B5FFF742
:109B9000E3FFBDE8104000F001B800001FB5002051
:109BA000ADF804004BF6FF70ADF806000A20ADF8E2
:109BB00008004FF48060ADF80A000001ADF80C0019
:109BC00005480090054C69462046FFF791FD0121AC
:109BD0002046FFF733FD1FBD801A060000580040E5
:109BE00010B50448FFF736FDFFF7B6FFBDE810409B
:109BF000FFF7D4BF0058004070B505460C4645F24B
:109C0000555000F029F8284600F01AF8204600F0D8
:109C10001DF800F00DF8BDE8704000F001B800003C
:109C200002494CF6CC40086070470000003000400C
:109C300002494AF6AA200860704700000030004040
:109C400001494860704700000030004001498860C9
:109C50007047000000300040014908607047000074
:109C600000300040002100220260426002728272D5
:109C7000C2744318DA72491CC9B20829F9D3704773
:109C80002DE9F04106460F460024074D08E02868FC
:109C900080F010002860384604F07EFE641CA4B2F8
:109CA000B442F4D3BDE8F0810C0C014010B5FDF7CF
:109CB000A7FFFDF7B3F905490020A1F84A000449C0
:109CC0000870487003490220887010BDEC23002002
:109CD0002C0000202E000020034A01EB410111441A
:109CE0008978C1710020704734000020014801F0DC
:109CF000FDBD00005025002010B504460020606026
:109D00002081A0724EF60520206009202072C72015
:109D1000A080E08009212046FDF728FDA4F8090075
:109D200010BD0000F0B40020254B234F0026DC8A34
:109D3000A3F5C873B7F84A10204A9B8CE5B20629F0
:109D400032D006DC062912D2DFE801F016182E1DEB
:109D5000181D21292DD006DC072925D010290DD06A
:109D6000202904D105E0222923D0232921D0A7F8D6
:109D70004A60F0BC00F034B85670FAE7012B00D10D
:109D800001205370F5E7012B01D14FF0010001D103
:109D9000012C03D0092C04D05670EAE70121517040
:109DA000E7E709215170E4E7012C00D1012055704B
:109DB000DFE75570DDE70000EC2300202C000020D9
:109DC00028220020054CFEF755F8FDF795F9FFF71E
:109DD000A9FFA07804F047FDF5E700002E00002061
:109DE00010B50446064A012805D002211046FEF7A8
:109DF000DCFE204610BD02211046FEF7D8FEF8E733
:109E0000000C014070B5002600242A4D002905D021
:109E1000012915D0022921D0032070BD10B10128DD
:109E200003D028E0287A106025E010680A2801DBBA
:109E3000042070BD297A81421DD0287202241AE0C4
:109E400010B1012803D016E0A888106013E0A9889B
:109E5000106881420FD0A88002240CE010B10128C4
:109E600003D008E0E888106005E0E98810688142C6
:109E700001D0E8800124012C09D109210D48FDF70A
:109E800075FCA5F809000B4801F0E2FE0646022C1D
:109E90000ED109210748FDF769FCA5F8090005481E
:109EA00001F0D6FE06460448FDF7D6F9FDF794FB0F
:109EB000304670BD50250020006400400148808875
:109EC00070470000502500200148C08870470000FE
:109ED0005025002070B5064608461546FCF7B1F936
:109EE000044629464FF07E50FCF74BF82146FCF71C
:109EF0004EF804463046FCF7A4F92946FCF747F82B
:109F00002146FBF7ECFFBDE87040FCF7C9B970B51E
:109F1000064608461546FCF78BF9044629464FF0DD
:109F20007E50FCF72EF82146FCF731F80446304607
:109F3000FCF77EF92946FCF72AF82146FBF7CFFF0C
:109F4000BDE87040FCF793B9054A4FF480510128F1
:109F500002D01046FEF72BBE1046FEF726BE0000CC
:109F6000000C01404FF4FA70FEF7B4B970470000DE
:109F7000F8B504460E461746002000900D4D01200E
:109F80006969884703208DF8000001216846FEF7C3
:109F9000FFFA200A8DF800008DF801400221684682
:109FA000FEF7F6FA39463046FEF7DEFA6969002018
:109FB0008847F8BD6C3100201CB5052001900020B9
:109FC0000090094C012061698847012101A8FEF732
:109FD000DFFA01216846FEF7C7FA61690020884769
:109FE0009DF800001CBD00006C310020704700008F
:109FF0002DE9F84306460F469046002000900024C5
:10A0000006208DF80000194D01206969884701215B
:10A010006846FEF7BDFA69690020884702208DF87E
:10A02000000069690120884701216846FEF7B0FAFF
:10A03000300A8DF800008DF8016002216846FEF7B5
:10A04000A7FA41463846FEF7A3FA69690020884717
:10A0500006E0296901208847641CE4B2C82C03D8B3
:10A06000286A8047C007F4D1BDE8F8836C3100202E
:10A07000012080F3108805480168054A01F4E06179
:10A0800011430160BFF34F8FFEE700000CED00E0CD
:10A090000400FA05FEE701460020092908D2DFE89E
:10A0A00001F005080A0C0E10121416004FF480700F
:10A0B0007047802070474020704720207047102054
:10A0C0007047082070470420704702207047012025
:10A0D00070470023022210281AD008DC01281FD064
:10A0E00002281BD0042817D0082809D112E0202804
:10A0F0000CD0402815D0802806D0B0F5807F01D044
:10A100000420704700220CE001220AE0032208E04C
:10A11000042206E0052204E0062202E0072200E015
:10A1200008220A70184670472DE9F04FDDE909C989
:10A1300000260025A846541EE7B252086D1CADB299
:10A14000002AFAD1DFF8C8A040F2C672BCF1000FB5
:10A1500005D0B9F1010F0ED01046BDE8F08FB1F86F
:10A1600000B0834501D21046F7E731F8142082424F
:10A170003FD95046F1E7B1F800B0834501D95046C8
:10A18000EBE731F81440844233D21046E5E701D0C2
:10A190006D1EADB2F219D2B2540831F81420BCF1E0
:10A1A000000F1DD092468346DA4521D801EB4406C4
:10A1B0007688BCF1000F16D0B2468346DA4515D337
:10A1C000801AB11A09B200EB8000400000B290FB87
:10A1D000F1F004EB8401490008440FFA80F80CE028
:10A1E00082469346E0E78246B346E7E7264600E02C
:10A1F0002746BE4201D8002DC9D1B9F1010F03D0C5
:10A20000A3EB080000B2A8E708EB030000B2A4E744
:10A2100022FCFFFF10B50024002901D0084610BD24
:10A2200090F83210012904D190F833101F3003F058
:10A23000D5FB204610BD10B50A46002490F8331017
:10A24000104601F0A1F9204610BD10B500240029E8
:10A2500001D0084610BD90F83210012903D1002129
:10A260001F3003F001FC204610BD10B50846002445
:10A27000002101F0C5F9204610BD10B500240029C9
:10A2800001D0084610BD90F83210012903D10021F9
:10A290001F3003F00BFC204610BD10B5084600240B
:10A2A000002101F0C5F9204610BD000010B50024C2
:10A2B0004C4B18785874587898749878D874D87823
:10A2C0001875A3F11F00FDF7E7FE0146987CCF2823
:10A2D00050D017DCCA2834D00BDC04282BD003DC88
:10A2E00048B301287CD122E0062879D0C92877D14B
:10A2F00022E0CB282AD0CC282DD0CD2830D0CE2893
:10A300006ED132E0D52853D008DCA0F1D00005286A
:10A3100066D2DFE800F034393E434800D6284CD0FE
:10A32000FC284FD0FD2852D0FE2859D154E02D48AA
:10A330001F3800F073F953E02A481F3800F084F802
:10A340004EE028481F3800F095F949E025481F38AD
:10A3500000F036F944E023481F3800F0E1F83FE010
:10A3600020481F3800F0E4F83AE01E481F3800F09B
:10A37000E7F835E01B481F3800F036F830E01948A0
:10A380001F3800F0E5F82BE016481F3800F044F8BD
:10A3900026E014481F3800F0FBF821E011481F3870
:10A3A000FFF738FF1CE00F481F38FFF74EFF17E09C
:10A3B0000C481F38FFF761FF12E00A481F3800F011
:10A3C000CFF80DE007481F3800F012F908E0054803
:10A3D0001F3800F015F903E002481F3800F06EF84E
:10A3E000204610BD8723002010B50024002901D08D
:10A3F000084610BD90F83210012903D1FF211F300B
:10A4000003F084FB204610BD10B50846002400214F
:10A4100001F038F9204610BD10B50024002901D004
:10A42000084610BD90F83210012903D100211F30D9
:10A4300003F0C2FB204610BD10B5084600240021E1
:10A4400001F050F9204610BD08460021002800D137
:10A450000846704710B508460024002101F010F9A5
:10A46000204610BD0F4A92880260002242600272AC
:10A4700042720822827290F83020C27290F8312025
:10A4800002738A784273CA7882730A79C2734A79EE
:10A4900002748A794274C979817401460248FDF7D1
:10A4A0000AB90000502500200064004010B508469D
:10A4B00000240021FFF710FC204610BD38B5002411
:10A4C00000220092002901D0084638BD0F4A90F8BA
:10A4D0002210D17390F83220012A05D06A4600205C
:10A4E000FFF790FC204638BD2330C278037842EA5B
:10A4F0000362437880781B0443EA00200243009201
:10A500006A460120FFF77EFCECE70000E42400200F
:10A5100010B508460024002101F07CF9204610BD4A
:10A5200008460021002800D10846704700207047E7
:10A5300008460021002800D10846704700207047D7
:10A5400008460021002800D10846704700207047C7
:10A5500008460021002800D10846704700207047B7
:10A5600010B50024002901D0084610BD90F8321023
:10A57000012903D100211F3003F0C6FA204610BD87
:10A5800010B508460024002101F062F8204610BDF5
:10A5900010B50024002901D0084610BD90F83210F3
:10A5A000012903D100211F3003F04CFB204610BDD0
:10A5B00010B508460024002101F0A6F8204610BD81
:10A5C00008460021002800D10846704710B508460B
:10A5D0000024002101F0B0F8204610BD10B50A4655
:10A5E000002490F83310104601F0C8F8204610BD42
:10A5F00008460021002800D1084670470020704717
:10A6000008460021002800D10846704710B50846CA
:10A610000024002101F0C8F8204610BD00220029C6
:10A6200001D00846704790F8201059B190F82310D7
:10A6300041B190F8241029B190F8251011B190F88B
:10A64000260010B9024901204870104670470000EA
:10A650002E000020002000220A714A718A71CA71FE
:10A6600003494A78012A01D102224A70704700004A
:10A670002E00002010B50024002901D0084610BD8E
:10A6800090F83210012903D100211F3003F0DCFAC9
:10A69000204610BD10B508460024002101F054F8F2
:10A6A000204610BD7CB501240020002100910191BD
:10A6B000584D95F83110CF295FD017DCCA2943D007
:10A6C0000BDC042931D003DC29B3012927D127E091
:10A6D00006292FD0C92922D131E0CB2939D0CC2964
:10A6E0003CD0CD293FD0CE297DD141E0D52962D0C3
:10A6F00008DCA1F1D001052975D2DFE801F043485B
:10A700004D525700D6295BD0FC295ED0FD2961D07F
:10A71000FE2968D163E069463E48FFF75FFF62E0CB
:10A7200069463C48FFF796FF5DE069463948FFF708
:10A73000BDFE58E06946374800F06EF853E06946C0
:10A740003448FFF787FE4EE069463248FFF7A2FF24
:10A7500049E069462F48FFF739FF44E069462D4834
:10A76000FFF7E4FE3FE069462A48FFF7E7FE3AE0DC
:10A7700069462848FFF7EAFE35E069462548FFF7B5
:10A7800043FE30E069462348FFF7E8FE2BE06946C8
:10A790002048FFF751FE26E069461E48FFF708FFF4
:10A7A00021E069461B48FFF746FD1CE06946194851
:10A7B000FFF75BFD17E069461648FFF76EFD12E0F4
:10A7C00069461448FFF7DCFE0DE069461148FFF7C3
:10A7D00015FF08E069460F48FFF718FF03E06946D8
:10A7E0000C48FFF795FE696B012903D0022901D0BF
:10A7F000032901D18DF8021010B1052806D006E01A
:10A8000069460448FFF72EFE044600E00524204672
:10A810007CBD00006823002010B50A46002490F893
:10A820003310104600F0CEFF204610BD04F08EF924
:10A830000446204600F02EFB204600F039F80120A7
:10A8400004F011F8F2E7000070B53C210420FFF796
:10A8500017FAFEF7E7FA0120FEF7E6F9FDF7E6FD45
:10A86000FFF744FA0F4D0124082800D12C70FEF7A1
:10A87000B9FA082800D12C70FCF78EFC082800D10A
:10A880002C70FCF78BFE02F041FE00F069FD0828F9
:10A8900000D12C700448807B012801D10348047248
:10A8A00070BD0000103300202D330020BB25002098
:10A8B0002DE9F05F06464FF00008DFF8E8B29BF89C
:10A8C0000700002810D0B84841688E427DD046600D
:10A8D0000025B64F4FF0030AC5EBC50000EB0B0493
:10A8E000607A012803D04FE10020BDE8F09F4FF0CF
:10A8F0000108A07A0D2818D2DFE800F00725495298
:10A900006D7D929BA8C1CAFDFB00C4F80B600022BC
:10A910002721284601F0D4FD3521284601F00EFDFF
:10A9200000F0010010B184F80AA016E13421284695
:10A9300001F004FD40F001023421284601F0C0FD81
:10A940000120A07209E100222721284601F0B8FD6C
:10A9500007EB8509D9F80F00FBF778FC944A954B73
:10A96000FBF785FBFBF7B0FC02462721284601F0E8
:10A97000A7FDD9F817202621284601F0A1FD0222C3
:10A980002021284601F09CFD0220A072E5E0222152
:10A99000284601F0D3FC0028C7D184F80AA0DCE0E7
:10A9A00007EB8500D0F81300FBF750FC804A814B81
:10A9B000FBF75DFBFBF788FC02462721284601F0E8
:10A9C0007FFD01222021284600E0E8E001F078FD2B
:10A9D0000420A072C1E03521284601F0AFFC00F050
:10A9E00001000028A1D100222721284601F068FD9E
:10A9F0000620A072B1E02121284601F09FFC07EB60
:10AA00008501D1F81B2068498968114481428CDC9A
:10AA100000222721284601F053FD0620A0729CE069
:10AA20002221284601F08AFC002801D10720A072CB
:10AA300093E03421284601F081FC40F001023421EA
:10AA4000284601F03DFD0820A07286E007EB850056
:10AA5000D0F81300FBF7FAFB554A564BFBF707FB00
:10AA6000FBF732FC02462721284601F029FD02228D
:10AA70002021284601F024FD0920A0726DE022214A
:10AA8000284601F05BFC002867D10A20A07264E030
:10AA90002121284601F052FC81463621284601F04A
:10AAA0004DFC07EB8501A9EB0000D1F81F1000EB6E
:10AAB00001093421284601F041FC20F00102342133
:10AAC000284601F0FDFC4A462121284601F0F8FC09
:10AAD00000222D21284601F0F3FC002220212846E7
:10AAE00001F0EEFC0121284602F06AFD0B20A07265
:10AAF00033E009E0FFE73521284601F01FFC80051F
:10AB00002BD50C20A07228E03421284601F016FC39
:10AB100020F001023421284601F0D2FC00222D2130
:10AB2000284601F0CDFC00222121284601F0C8FC76
:10AB300000223921284601F0C3FC0121284602F0F9
:10AB40003FFD0220607200222021284601F0B8FC5F
:10AB500000223921284601F0B3FCD4F80B00164935
:10AB6000301A884210D3C5EBC500584480F809A0BC
:10AB70003421284601F0E2FB20F00102342128466E
:10AB800001F09EFC0020B0E66D1CEDB2002D3FF4FC
:10AB9000A3AEB8F1000F02D100208BF8070000200F
:10ABA000A3E60000BE350020380000205B25002011
:10ABB0008DEDB5A0F7C6F03F905F010010B5002401
:10ABC000002303E020F813105B1CDBB29342F9D39F
:10ABD000204610BD10B50024002303E040F82310E8
:10ABE0005B1CDBB29342F9D3204610BD70470000D6
:10ABF00070B50F23C27801260178002A1ED0144AAE
:10AC0000126802F4E062C2F5E062120AC2F10404C2
:10AC1000D3404578A54082781A402A43120101F1B9
:10AC2000E02181F80024007800F01F018E404009E7
:10AC3000800000F1E020C0F8006170BD01F01F004D
:10AC400086404809800000F1E020C0F8806170BDB6
:10AC50000CED00E00249084302490860704700001B
:10AC60000000FA050CED00E001708280C38070479F
:10AC700010B5D023C92200216D48FFF7F5FF6C48BD
:10AC8000FF23062201210830FFF7EEFF68484FF648
:10AC9000FF742346002202211030FFF7E5FF6448CD
:10ACA0002346002203211830FFF7DEFF60482346C9
:10ACB000002204212030FFF7D7FF5D482346002201
:10ACC00004212830FFF7D0FF5948234600220621EF
:10ACD0003030FFF7C9FF564823460022072138309D
:10ACE000FFF7C2FF52482346002208214030FFF7F9
:10ACF000BBFF4F482F23002209214830FFF7B4FF44
:10AD00004B48234600220A215030FFF7ADFF484848
:10AD1000234600220B215830FFF7A6FF4448234664
:10AD200000220C216030FFF79FFF4148234600229C
:10AD30000D216830FFF798FF3D48FF2300220E21C8
:10AD40007030FFF791FF3A48FF2301220F2178303E
:10AD5000FFF78AFF36480623002210218030FFF7D4
:10AD600083FF33480623002211218830FFF77CFF40
:10AD70002F482346002212219030FFF775FF2C4800
:10AD80002346002213219830FFF76EFF2848234600
:10AD900000221421A030FFF767FF25482346002238
:10ADA0001521A830FFF760FF214823460022162115
:10ADB000B030FFF759FF1E48234600221721B83054
:10ADC000FFF752FF1A48234600221821C030FFF730
:10ADD0004BFF1748234600221921C830FFF744FFD4
:10ADE0001348234600221A21D030FFF73DFF1048B8
:10ADF000234600221B21D830FFF736FF0C4823469C
:10AE000000221C21E030FFF72FFF094823460022D3
:10AE10001D21E830FFF728FF0548234600221E21A8
:10AE2000F030FFF721FF0248F830C48010BD000069
:10AE3000EC230020002808D001280AD002280CD0DA
:10AE400003280ED1C002FDF71BBB4FF4A860FDF72D
:10AE500017BB4FF4A070FDF713BB4FF41460FDF760
:10AE60000FBB7047002808D001280AD002280CD058
:10AE700003280ED1C002FDF799BB4FF4A860FDF77F
:10AE800095BB4FF4A070FDF791BB4FF41460FDF734
:10AE90008DBB70472DE9F04F89B082460024002019
:10AEA0000890142103A8FBF70FF800200290DFF8A8
:10AEB000E89399F80800F94E00274FF0010809F6C9
:10AEC000FA0B01280FD099F80800022873D0777088
:10AED00099F80800307000250BEB84041BF805007E
:10AEE000012869D032E270787F2807D3042089F8DE
:10AEF00008003846777009B0BDE8F08F00EBC0005D
:10AF000009EB40010A31122203A8FAF7B6FFE34D1C
:10AF10009DF80C001035E24A37284BD01EDC222861
:10AF200075D010DC132873D006DC102834D011281B
:10AF300043D012286DD16FE014286BD015286AD049
:10AF40002128F7D1AEE030380DF11603072860D282
:10AF5000DFE800F0B1BA5FC5CE303000CF49103124
:10AF60009528096877D00EDC912875D006DC422838
:10AF700073D0502872D09028DCD1CEE092286ED0C9
:10AF80009328D7D115E196380728E0D2DFE800F002
:10AF9000F4F3F241F1F0EF009DF80E509DF81240ED
:10AFA000DDF816202146284602F0E1FA0021284665
:10AFB00002F0C4FBAFE1B6E1B7E100223D21029807
:10AFC00002F01AFC9DF80EA09DF81240DDF8160064
:10AFD000019000223D21504602F00EFC24B1012CCC
:10AFE00007D0022C0AD00DE05046019902F0AAFACF
:10AFF00008E05046019902F09FFA03E050462968A4
:10B0000002F0A0FA0021504602F0DAFA83E14DE0A6
:10B0100039E07EE13CE041E09F486038D0F806200E
:10B020003D21029802F0E8FB9DF80EA09DF8124029
:10B03000DDF8160001909848603800EB8A00D0F8DF
:10B0400006203D21504602F0D7FB4CB1012C0CD01C
:10B05000022C0FD012E0E7E061E054E059E098E004
:10B060005046019902F06EFA08E05046019902F04C
:10B0700063FA03E05046296802F064FA0021504662
:10B0800002F09EFA47E19DF80E0002F0AFFB42E1AC
:10B090009DF80E00002102F063FA3CE19DF80E00DD
:10B0A00002F064FCFDF7A8FD286034E17B48103015
:10B0B000FDF7D6FD2FE19DF80E009DF8124001210D
:10B0C000224601F03DFA26E19DF80E009DF812405F
:10B0D000724B22461033002101F032FA1BE19DF839
:10B0E0000E009DF812400121224602F0EDF912E116
:10B0F0009DF80E009DF81240684B22461033002147
:10B1000002F0E2F907E19DF80E402046FDF7A4FBAE
:10B1100001E1D2F802002860FDE0B770FBE09DF885
:10B120000E009DF8124034B1012C0FD0022C17D024
:10B13000032C25D0EFE0C0EBC0001044407A01287A
:10B1400002D086F80280E6E0B770E4E0352101F035
:10B15000F5F8800501D5B770DDE086F80280DAE009
:10B16000352101F0EBF8400507D5B770D3E0C4E016
:10B17000B3E0A1E096E083E05AE086F80280CAE0FE
:10B18000222101F0DBF810B186F80280C3E0B7702D
:10B19000C1E0B07830B1F068824502D3B770C6F82C
:10B1A0000CA0B8E0DDF80E005044F06086F8028094
:10B1B000B1E09DF80E40DDF812000B2C31D2DFE833
:10B1C00004F006090C0F141B1E21242A2D0008442C
:10B1D0002860A0E0081A28609DE0414329609AE0B9
:10B1E00008B3B1FBF0F0286095E0002802DA404295
:10B1F000286090E028608EE0014029608BE00143E8
:10B20000296088E04140296085E010B10020286075
:10B2100081E00120FBE7C14029607CE0814029609A
:10B2200079E082F8068076E09DF80E00707072E09A
:10B230009DF80E40DDF812309DF81600062C1CD249
:10B24000DFE804F003070B0F1317994263D1707006
:10B2500061E099425FD070705DE099425BD9707097
:10B2600059E0994257D3707055E0994253D27070AB
:10B2700051E099424FD870704DE0022090714AE041
:10B280009DF80E009DF81240044B22461033012118
:10B2900001F056F93FE00000BB25002038000020F7
:10B2A000BE3500209DF80E009DF812402B4B224623
:10B2B000012102F009F92EE09DF80E40DDF8125050
:10B2C0000BF804800BEB0400077103F03FFC014610
:10B2D0000BEB8400816085611DE09DF80E400BF84A
:10B2E00004800BEB0400077103F030FC01460BEB0C
:10B2F00084008160296881610DE09DF80E400BEBB0
:10B3000004000079012801D02F6004E0C5F8008016
:10B3100001E003209071B07800287FF4D9AD7078F7
:10B32000401C7070D4E57770D2E503F00FFC0BEB96
:10B3300085018A6889691144884207D90BEB0500A9
:10B3400080F804800BF80570A760A7616D1CEDB252
:10B35000042DFFF4C3AD0898CDE50000480000209F
:10B36000014800F0F7BA0000BB25002010B50446E4
:10B3700040F6FA012046FAF7A7FD4EF605202060B8
:10B38000002060600320207240F6F8012046FCF7A0
:10B39000EDF9A4F8F80810BD2DE9F04105460E4678
:10B3A00000270024284600F04BF808B1012714E0DC
:10B3B000B5F90220A96804EBC202305D8854641C10
:10B3C000E4B2082CF4D36888401C00B2B5F904102C
:10B3D00090FBF1F201FB120068803846BDE8F08175
:10B3E00030B500240022B0F90230B0F90050AB4271
:10B3F00001D1012414E0B0F90050836802EBC505C7
:10B400005B5D8B54521CD2B2082AF4D30188491CCC
:10B4100009B2B0F9042091FBF2F302FB1311018091
:10B42000204630BD002101804180C1800846704720
:10B430000023038043808280C38081601846704768
:10B4400010B500214288521C12B2B0F9043092FBB0
:10B45000F3F403FB1422B0F90000904200D1012163
:10B46000084610BD034A516821F440410143516030
:10B470007047000000100240054A002903D0D1693E
:10B480000143D1617047D1698143D16170470000A8
:10B4900000100240054A002903D0116901431161DF
:10B4A000704711698143116170470000001002402C
:10B4B000054A002903D09169014391617047916960
:10B4C00081439161704700000010024010B5264A88
:10B4D000516801F00C01254B002927D0042927D001
:10B4E000082928D00360516801F0F0010909204BB8
:10B4F0005C5C0168E1404160546804F4E064240A43
:10B500001C5D21FA04F48460546804F46054E40A75
:10B510001B5DD940C160526802F44042920B144B4B
:10B520001B1F9A5CB1FBF2F1016110BD0360DAE709
:10B5300010490160D7E7516801F47011536803F4B2
:10B540008033022404EB914133B153689B0307D548
:10B55000064B59430160C6E7074B59430160C2E7F8
:10B56000044B59430160BEE70010024000127A000C
:10B57000180000200024F40000093D000149C871B2
:10B5800070470000001002400022002914D0012959
:10B5900014D0022914D0032914D0042914D0052969
:10B5A00014D0062914D0072914D0082914D0092949
:10B5B00014D00A2914D014E0122212E0172210E04D
:10B5C00014220EE013220CE016220AE0152208E0F5
:10B5D000192206E0182204E01A2202E01B2200E0F1
:10B5E0001C22002303714371044901EBC2014A8804
:10B5F000120A82718978C17118467047EC230020C5
:10B600000022002902D0012902D002E01D2200E020
:10B610001E22002303714371044901EBC2014A88D1
:10B62000120A82718978C17118467047EC23002094
:10B63000002206490B881B0A03710B7843714B8863
:10B640001B0A83718978C17110467047222300203C
:10B65000094991F82A10012901D10B21817000219B
:10B6600001714171054A938C1B0A837192F8242061
:10B67000C271084670470000F40200202822002012
:10B680000020704730B50024FF22002904D0012992
:10B6900016D0022916D016E00A22114B03F15005EC
:10B6A000B3F852301B0A0371AB7843710C4B03F1B2
:10B6B0005805B3F85A301B0A8371AB78C37102E0A6
:10B6C000082200E00F22491E1E2907D2044901EB7F
:10B6D000C2014A88120A82718978C171204630BD40
