:020000040800F2
:10000000482800200101000849430008C9010008F0
:10001000573A000847120008A352000800000000E9
:10002000000000000000000000000000EB4E00088F
:10003000192700080000000053010008CF500008F5
:100040001B0100081B0100081B0100081B01000820
:100050001B0100081B0100081B0100081B01000810
:100060001B0100081B010008852800081B0100086F
:100070001B0100081B0100081B0100081B010008F0
:100080001B0100081B010008410400081B010008B7
:10009000935200081B0100081B0100081B01000807
:1000A0001B0100081B0100081B0100081B010008C0
:1000B000415100086D5100081B0100081B01000898
:1000C0001B0100081B0100081B0100081B010008A0
:1000D0001B0100081B010008055200081B01000855
:1000E0001B0100081B0100081B010008DFF80CD0F1
:1000F00000F08EF900480047350400084828002029
:100100000648804706480047FEE7FEE7FEE7FEE7B1
:10011000FEE7FEE7FEE7FEE7FEE7FEE7E150000848
:10012000ED000008EFF3108072B6704780F310887E
:100130007047324A1368012B04D04FF0010313605B
:100140002F4A10602F4A11602F484FF080510160F4
:100150007047EFF3108272B62848016891B14FF0F2
:10016000000101602648016829B1EFF3098121E906
:10017000F00F00680160234909680968B1E8F00FD1
:1001800081F3098882F310884EF0040E70471D49F0
:1001900008601B494FF00000086018494FF001004B
:1001A00008601A481A49D0F8002041EA02010160AB
:1001B00015484FF08051016016480068006880F3D0
:1001C000088861B662B670471EF0040F0CBFEFF3EB
:1001D0000880EFF3098020E9F00F40F804ED1EF0ED
:1001E000040F0CBF80F3088880F3098800B505F080
:1001F000FBFC5DF804EB4EF0040E7047C4000020D9
:10020000BC000020C000002004ED00E020ED00E074
:100210000000FFFF08ED00E0F0B480EA0102D40F17
:100220004200B2EB410F02D20246084611464A0094
:1002300042D0C30DDDB2C1F3C752AD1A202D35DA5D
:10024000C1F3160141F4000204B15242C5F1200687
:1002500002FA06F12A411044B3EBD05F23D0C4B1B7
:10026000012DA0EBC35009DCF0BC4FF0004202EAC4
:10027000C352DBB200F5000000F09CB8400000F172
:10028000807000EBC350A0F1807040EAD17049004B
:1002900009E0490841EAC071A0EBC35000F5000035
:1002A000400800EBC350F0BC00F07BB86142012273
:1002B00002EB4101001BF6E7F0BC704781F0004102
:1002C000AAE780F00040A7E780EA010210B502F03B
:1002D0000043400022D04A001FD0010E01EB126102
:1002E000C0F35600C2F3560240F4000042F400028C
:1002F000A0FB022000047F39140400D0401C50EA07
:10030000124001D44000491EC2B20C0604EBD010CA
:10031000401C4008802A02D003E0002010BD20F0DD
:100320000100002900DA0020184310BDC10F80EA47
:10033000E0700844CA079623002100F03BB89623DA
:100340000022114600F036B800F0004220F00040D4
:10035000C10DC0F3160040F400007F2901DA00202F
:100360007047962903DCC1F19601C84001E0963937
:100370008840002AF4D04042704720F00040C10D70
:10038000C0F3160040F400007F2901DA0020704716
:10039000962903DCC1F19601C84070479639884020
:1003A00070470029A8BF7047401C490008BF20F0D3
:1003B0000100704710B4B0FA80FC00FA0CF050EA6B
:1003C000010404BF10BC704749B1CCF1200421FAEC
:1003D00004F411FA0CF118BF012121430843A3EBE7
:1003E0000C01CB1D4FEA00614FEA102042BF0020F4
:1003F00010BC704700EBC35010440029A4BF10BCD0
:100400007047401C490008BF20F0010010BC704735
:10041000064C074D06E0E06840F0010394E8070051
:1004200098471034AC42F6D3FFF764FEB06C000876
:10043000D06C000810B506F0EBFA002010BD0000EB
:1004400010B505F009FC4FF408710A4800F034F8C3
:10045000012807D1074800F02BF807490880012040
:1004600081F824004FF40871024800F007F805F005
:1004700003FC10BD002401401022002000220A12BB
:10048000D3430360704721B1826842F00102826069
:1004900003E0826822F0010282607047014600207A
:1004A0008A6802F004020AB1012000E000207047CF
:1004B0000146C86C80B2704770B502460020002328
:1004C00000240B125568CEB205EA060415681D40DB
:1004D00015B10CB1012000E0002070BD01460020E4
:1004E0008A6802F008020AB1012000E0002070478B
:1004F00010B50023CBB21AB144681C43446002E03B
:1005000044689C43446010BD30B50246002000237F
:1005100050680F4C20400D790C6844EA05242043B4
:10052000506090680B4C2040D1E902542C434D7927
:1005300044EA450420439060D06A20F470000C7CAB
:10054000641EE4B2234340EA0350D06230BD000091
:10055000FFFEF0FFFDF7F1FF08B54FF4C06003F0B8
:100560002DFF12208DF8000001208DF801000620DB
:100570008DF8020001208DF80300684603F0E6FEC6
:1005800008BDF0B504460D4600200021092D11DDFF
:10059000E068A5F10A0606EB4607072606FA07F10A
:1005A0008843A5F10A0606EB460603FA06F108435E
:1005B000E0600CE0206905EB4507072606FA07F125
:1005C000884305EB450603FA06F108432061072A34
:1005D0000FDA606B561E06EB86071F2606FA07F138
:1005E0008843561E06EB860605FA06F1084360634B
:1005F00022E00D2A0FDA206BD61F06EB86071F2696
:1006000006FA07F18843D61F06EB860605FA06F1BF
:100610000843206310E0E06AA2F10D0606EB8607AE
:100620001F2606FA07F18843A2F10D0606EB86069F
:1006300005FA06F10843E062F0BD816841F0080167
:100640008160704721B1826842F4A002826003E0B9
:10065000826822F4A00282607047816841F0040140
:100660008160704708B50121042004F059F8082082
:10067000ADF8000000208DF803006946014802F043
:1006800051FB08BD0008014010B5FFF7EBFF00F07B
:1006900003F8FFF761FF10BD00B585B001214802E6
:1006A00004F03EF84FF4404004F00EF800200090B3
:1006B0008DF804008DF805004FF4602002900020B2
:1006C000039001208DF8100069461548FFF71CFFC4
:1006D0000723012203211248FFF753FF01224FF4A1
:1006E00008710F48FFF704FF01210D48FFF7CBFE0B
:1006F0000B48FFF7A2FF00BF0948FFF7EFFE0028F5
:10070000FAD10748FFF7A9FF00BF0548FFF7C6FE6B
:100710000028FAD101210248FFF794FF05B000BD7F
:100720000024014001884FF6FF72914202DA0188ED
:10073000491C018070470168491C11B10168491CBE
:10074000016070470178FF2902DA0178491C0170C5
:10075000704770B504460D460026A07C09287ED25D
:10076000DFE800F005425ED2DDDEDFE0E100022DD1
:1007700001D0202D0CD194F88201012801DB022048
:10078000A07494F8830101282DDB0220A0742AE0D4
:10079000212D03D0222D01D0232D24D194F88801BE
:1007A000012810DB002084F8820184F8880184F895
:1007B000890184F88A0184F88B0184F88C0184F81B
:1007C0008D010120A074222D01D0232D0BD104F521
:1007D000C670FFF7B7FF94F88C01B4F96211884234
:1007E00001DB0620A074A2E004F5C670FFF7AAFFA3
:1007F00094F88C01B4F96411884210DB002084F86D
:10080000820184F8880184F8890184F88A0184F8D7
:100810008B0184F88C0184F88D010220A07486E09D
:10082000022D0BD194F88201012801DB0820A0746D
:1008300094F88301012801DB0820A074202D05D144
:1008400094F88201022801DB0320A074222D03D03A
:10085000232D01D0292D10D194F86A0100E063E026
:1008600001280AD1A0690088A0F5005006B2B4F9A9
:100870006001B04201DD0620A074212D05D0232D9A
:1008800003D0282D01D0292D15D194F86A01022812
:1008900007D1A0690068B0F57A5F0CD30420A0747A
:1008A00009E094F86A01012805D194F88A01012829
:1008B00001DB0420A074272D03D0282D01D0292D81
:1008C00021D194F88B01012802DB012084F88D01ED
:1008D00094F88D01012816DB04F5C670FFF732FF8E
:1008E00094F86A0101280ED194F88C01B4F96611CC
:1008F000884205DD002084F88C010520A07402E008
:10090000002084F88D0112E094F88401032805DCAE
:1009100094F88601022801DB0820A07407E006E0B5
:1009200005E004E003E002E00020A07400BF00BF87
:10093000A07C70BD10B5002400225021024802F0B6
:10094000EDFAC4B2204610BD0058004070B5002634
:10095000002400251048C0780F49897840EA012515
:10096000AC1300BF6CB9C5F30D0500210A4880F82F
:100970002910C561014620228869294604F094FBAC
:1009800007E0022C05D0032C03D10121024880F896
:100990002910304670BD0000782000202DE9F04776
:1009A0000024A0460025A14600260027FE4890F816
:1009B0002C01401E00F0FF08FB4890F86801012858
:1009C00002D1FA48FFF7BEFEF74890F86901032804
:1009D00005DB0020F44981F8690181F86801F248DB
:1009E00090F88E0109287CD2DFE800F0053AB7FDC7
:1009F000FCFBFAF9F8000020EB49C1F8440100249F
:100A00000CE0E948806950F82400E749D1F8441126
:100A10000844E549C1F84401601C44B24445F0DB98
:100A2000E148D0F8440190FBF8F000B2DE49A1F8AB
:100A30004801DF48B0F84A0088B1002088740021DE
:100A4000D948C1740020D84981F86801022081F892
:100A50006A010020A1F89201012081F88E017FE255
:100A60000020D149C1F84C01002422E0CE48806921
:100A700030F8240006B2CC48B0F94871F01B0FFAE8
:100A800080F9C948B0F95201484505DBC648B0F9BC
:100A90005201404248450ADDC348806950F82400AD
:100AA000C149D1F84C110844BF49C1F84C01601C40
:100AB00044B2202CDAD3BC48D0F84C01400900B233
:100AC000B949A1F85001BA48B0F84A00022804D048
:100AD000B748B0F84A00202818D1B348B0F950619F
:100AE00000E038E2B0F94871F01B0FFA80F9AE4827
:100AF000B0F95201484505DBAB48B0F9520140421C
:100B0000484503DD0220A84981F88E01A848B0F8C5
:100B10004A00212809D0A648B0F84A00222804D06B
:100B2000A348B0F84A00232808D19F48B0F84801EC
:100B30009D49A1F85001022081F88E019C48B0F82F
:100B40004A0048B90020984981F8680181F86A0193
:100B5000A1F8920181F88E0102E20020924981F809
:100B60006C0181F86D0181F86E0181F86F0181F8E7
:100B7000700181F8710181F8720181F8730181F8C7
:100B8000740181F8750181F8760181F8770181F8A7
:100B9000780181F8790181F87A0181F87B01844834
:100BA000B0F8920000B2A1F852018148B0F8A2005A
:100BB00000B2A1F854017E48B0F89A0000B2A1F842
:100BC00056017B48B0F8B20000B2A1F8580178484D
:100BD000B0F8AA0000B2A1F85A0105E0AEE1A0E128
:100BE00092E18CE186E178E17148B0F8BA0000B298
:100BF000A1F85C016E48B0F8CA0000B2A1F85E012D
:100C00006B48B0F8C20000B2A1F860016848B0F8C3
:100C1000D20000B2A1F862016548B0F8DA0000B273
:100C2000A1F864016248B0F8E20000B2A1F86601E0
:100C30004FFA88F441E05C488069008806B25A485F
:100C4000806930F8240007B2F01B05B25648B0F9AD
:100C50005401A84204DA55480930FFF773FD09E052
:100C60005148B0F954014042A84203DD4F480A30D0
:100C7000FFF768FD4C488169601E31F8200006B21C
:100C80004948806930F8240007B2F01B05B2464895
:100C9000B0F95601A84204DA44480B30FFF752FD80
:100CA00009E04148B0F956014042A84203DD3F48FF
:100CB0000C30FFF747FD601E44B2002CBBDC4FFA3E
:100CC00088F44AE038488169601F31F8200006B294
:100CD0003548806930F8240007B2F01B05B232486D
:100CE000B0F95201A84204DC30480F30FFF72AFD6A
:100CF00003E000202C4981F878012B48B0F95E010F
:100D0000B0F5005F04D32848808B0FFA80F900E02B
:100D1000A9462548B0F95E01484504DC2348113056
:100D2000FFF710FD03E000201F4981F87A011E48FB
:100D3000B0F95C014042A84204DC1B48B0F95C01F8
:100D4000A84204DA19481230FFF7FCFC03E0002047
:100D5000154981F87B01601E44B2052CB2DA4FFAC6
:100D600088F41DE010488169A4F10A0031F82000E0
:100D700006B20D48806930F8240007B2F01B05B2B6
:100D80000948B0F95A01A84208DC0748B0F95801EF
:100D9000A84203DB05480D30FFF7D4FC601E44B2C7
:100DA0000A2CDFDA004805E078200020E12100204D
:100DB000481E002090F87211022200F5C17000F068
:100DC0006DF9694890F87311022200F2831000F067
:100DD00065F9654890F8741100F5C27000F040F9AB
:100DE000614890F8751100F2851000F039F95E48FD
:100DF00090F8761100F5C37000F032F95A4890F877
:100E0000771100F2871000F02BF9574890F878110D
:100E1000032200F5C47000F041F9534890F87A11AC
:100E2000032200F5C57000F039F94F4890F87B11A6
:100E3000032200F28B1000F031F94C4890F84A1070
:100E40004948FFF786FC4848807C042807D10320E6
:100E50004549A1F89201062081F88E012EE0424812
:100E6000807C052807D108203F49A1F8920107207E
:100E700081F88E0122E03C48807C062807D10420BE
:100E80003949A1F89201072081F88E0116E0364811
:100E9000807C072807D105203349A1F8920106205C
:100EA00081F88E010AE03048807C082806D10120B4
:100EB0002D49A1F89201032081F88E012B48B0F84A
:100EC0004A0048B90020284981F8680181F86A0180
:100ED000A1F8920181F88E0142E02448B0F84A005E
:100EE00038B90020204981F86801A1F8920181F801
:100EF0008E0135E000201C4981F88E0130E0002091
:100F0000194981F88E012BE01848B0F84A0038B929
:100F10000020154981F86A01A1F8920181F88E013B
:100F20001EE01248B0F84A0038B900200E4981F896
:100F30006A01A1F8920181F88E0111E00B48B0F826
:100F40004A0038B90020084981F86A01A1F89201E5
:100F500081F88E0104E00020034981F88E0100BF72
:100F600000BFBDE8F087000078200020481E002068
:100F700006213948A0F892104621A0F8A2101021AD
:100F8000A0F89A100E21A0F8B2100221A0F8AA1021
:100F90004FF42F71A0F8BA10BE21A0F8CA100A2190
:100FA000A0F8C2104621A0F8D2101421A0F8DA103F
:100FB000A0F8E210B0F8920000B22849A1F852015E
:100FC0002548B0F8A20000B2A1F854012248B0F8B8
:100FD0009A0000B2A1F856011F48B0F8B20000B262
:100FE000A1F858011C48B0F8AA0000B2A1F85A01B3
:100FF0001948B0F8BA0000B2A1F85C011648B0F880
:10100000C20000B2A1F860011348B0F8CA0000B2F3
:10101000A1F85E011048B0F8D20000B2A1F8620158
:101020000D48B0F8DA0000B2A1F864010A48B0F83F
:10103000E20000B2A1F86601202081F82C01102006
:10104000A1F83E010820A1F8400101F12C004861FF
:101050008030886170470000481E00207820002002
:10106000024600201A2902DB0523137015E014291B
:1010700002DB0423137010E00D2902DB032313703D
:101080000BE0062902DB0223137006E0032902DBD2
:101090000123137001E00023137070472DE9F04124
:1010A00004460D4616460027B54203DB2046FFF7EF
:1010B00049FB01E0002020703846BDE8F0810000C7
:1010C00038B5002402200023044A5021009004482F
:1010D00002F048F9C4B2204638BD00007A20002052
:1010E0000058004010B5012424480078052841D25A
:1010F000DFE800F0030B16383C00214890F8290087
:1011000010B901201D49087035E01D4890F82900EC
:1011100028B9FFF70FFC04460220184908702AE09E
:10112000174890F82800022813D1FFF7C9FF04469A
:10113000012C06D00121124880F82A1080F82C10CA
:1011400003E000210E4880F82A10FFF7FFFBFFF7AD
:1011500025FC0B4890F82A00012802D103200749FA
:10116000087008E004200549087004E000200349E5
:10117000087000E000BF00BF10BD00007820002014
:10118000CC00002010B502460B460020002100BF15
:1011900004E0002442F821404C1CE1B29942F8DB03
:1011A00010BDF0B502460B460021002400260025A4
:1011B0000020FF2000BF10E0575C7840002408E0CA
:1011C000054605F0010640100EB180F0E000671CF6
:1011D000FCB2082CF4DB4F1CF9B29942ECDBF0BDF9
:1011E0000146084690F8D020012A09D190F8D22073
:1011F000FA2A08DA90F8D220521C80F8D22002E0B5
:10120000002280F8D220B0F8D420FA2A04DAB0F80C
:10121000D420521CA0F8D420B0F8DC204FF6FA738A
:101220009A4204DAB0F8DC20521CA0F8DC20B0F8B6
:10123000D8204FF6FA739A4204DAB0F8D820521C3C
:10124000A0F8D820704700BFFEE770B504460D46F1
:101250002946204600F08BF92946204600F0A2F8E6
:1012600070BD000010B504460B48844209D101212D
:10127000480603F045FA00214FF0007003F040FAF1
:1012800008E00121880603F03BFA00214FF080605E
:1012900003F036FA10BD00000064004010B50021D4
:1012A000837A012202FA03F13D4A126842F00102F8
:1012B0003B4B1A603A4A1C3212688A43384B1C3343
:1012C0001A60027BCAB9364A0C3212688A43344B20
:1012D0000C331A604288C38842EA0343304A4032E2
:1012E000847A42F834300288838842EA03432C4AE5
:1012F0004032847A02EBC4025360027B012A19D186
:10130000274A0C3212680A43254B0C331A60428874
:10131000038842EA0343224A4032847A42F8343056
:10132000C288838842EA03431D4A4032847A02EB32
:10133000C4025360C27A3AB9194A121D12688A432C
:10134000174B1B1D1A6006E0154A121D12680A434E
:10135000134B1B1D1A60028932B9114A14321268EC
:101360008A430F4B14331A600289012A06D10C4AB2
:10137000143212680A430A4B14331A60427B012A62
:1013800006D1074A1C3212680A43054B1C331A6007
:10139000034A126822F00102014B1A6010BD0000DE
:1013A000006600407FB505460C4600208DF80A0017
:1013B00001208DF80B0000208DF80C0020884005DE
:1013C000000CADF80000A0884005000CADF802004C
:1013D0000020ADF80400ADF80600ADF808000120CB
:1013E0008DF80D0001220221284600F02DF86846F4
:1013F000FFF754FF7FBD000008B50121480603F048
:101400006FF90121052003F08BF94FF48050ADF8FE
:10141000000018208DF8030003208DF802006946B3
:10142000084801F07FFC4FF40060ADF80000482050
:101430008DF8030003208DF802006946014801F091
:1014400071FC08BD000801401AB143690B434361B8
:1014500002E043698B434361704730B50246002088
:101460000023146824F002041460146844F001049A
:10147000146000E05B1C546804F001041CB94FF6D2
:10148000FF74A342F6D1546804F001040CB90020A3
:101490006CE08C79012C04D1146844F08004146051
:1014A00003E0146824F080041460CC79012C04D18A
:1014B000146844F04004146003E0146824F040040D
:1014C00014600C7A012C04D1146844F020041460D8
:1014D00003E0146824F0200414604C7A012C04D139
:1014E000146844F01004146003E0146824F010043D
:1014F00014608C7A012C04D1146844F00804146040
:1015000003E0146824F008041460CC7A012C04D1A0
:10151000146844F00404146003E0146824F0040424
:1015200014608C78A407CD7844EA05640D7944EA08
:1015300005444D7944EA05540D886D1E2C43D46151
:10154000146824F001041460002300E05B1C54685C
:1015500004F001041CB14FF6FF74A342F6D15468A5
:1015600004F001040CB1002000E0012030BD3EB5C4
:1015700005460C462846FFF775FE684600F022F93E
:1015800000208DF8060001208DF807008DF8080076
:1015900000208DF809008DF80A008DF80B008DF8F9
:1015A0000200E08860B901208DF8030007208DF863
:1015B000040002208DF805000320ADF800001AE0B9
:1015C000E08801280BD102208DF803000B208DF854
:1015D000040004208DF80500ADF800000BE00120A8
:1015E0008DF8030007208DF8040002208DF8050017
:1015F0000320ADF8000069462846FFF72EFF3EBDE8
:101600002DE9F04100270024002600251E4800781F
:1016100000F0070505F1C904C92C01D3D02C00D96D
:10162000C9241948007800F008050DB9002602E029
:10163000082D00D1012615480088A04203D1134887
:10164000C088B0421DD0002202211148FFF7FCFEE5
:1016500000F036F80D48443003F00FF80B48C68010
:10166000048040F2FE700949888001F11C0002F0FC
:1016700035F800F00FF8FFF7BFFE04490448FFF704
:10168000E4FD3846BDE8F0812C000020601C0020FD
:101690000064004008B54FF4C06002F08FFE1420D3
:1016A0008DF8000000208DF8010003208DF8020065
:1016B00001208DF80300684602F048FE08BD0000D6
:1016C00010B508220249A1F10C0002F0DDFF10BDA7
:1016D000B01C002010B500F5D87303EB01131B6894
:1016E00003F004031372137A53B900F5D87303EBB4
:1016F00001131B6840F2FF7404EA5353136009E0BE
:1017000000F5D87303EB01131B686FF0604404EA23
:10171000D303536000F5D87303EB01131B6803F088
:101720000203537200F5D87303EB01135B6803F0F7
:101730000F03937200F5D87303EB01135B681B0A68
:10174000D37400F5D87303EB01139B68D37200F5D3
:10175000D87303EB01139B681C0A147300F5D8734C
:1017600003EB01139B681C0C547300F5D87303EB57
:1017700001139B681B0E937300F5D87303EB0113E1
:10178000DB68D37300F5D87303EB0113DB681C0A25
:10179000147400F5D87303EB0113DB681C0C54744C
:1017A00000F5D87303EB0113DB681B0E937421B9AA
:1017B000C36843F02003C36003E0036943F02003E0
:1017C000036110BD00218171C1710172417281728A
:1017D000C1728170C1700321017102214171012127
:1017E0000180704710B502460020936803F08063C3
:1017F000B3F1806F00D110E0936803F00063B3F1A0
:10180000006F01D1012008E0936803F08053B3F129
:10181000805F01D1022000E00420042874D002F58A
:10182000C07303EB00131B6803F0010402F5C073DF
:1018300003EB00131C600B7A7BB94B7A0C8843EAEC
:10184000445302F5C07404EB00142468234302F5EA
:10185000C07404EB0014236010E00B7A4C6843EA78
:10186000C4034C7A234302F5C07404EB00142468CB
:10187000234302F5C07404EB001423608B7A03F059
:101880000F038B7202F5C07303EB00135B6823F048
:101890000F0402F5C07303EB00135C6002F5C07324
:1018A00003EB00135B688C7A234302F5C07404EBEE
:1018B000001463608B7B1C064B7B44EA03440B7B68
:1018C00044EA0323CC7A234302F5C07404EB0014EA
:1018D000A3608B7C1C064B7C44EA03440B7C44EAEB
:1018E0000323CC7B234302F5C07404EB0014E360B4
:1018F00002F5C07303EB00131B6843F0010402F50B
:10190000C07303EB00131C6010BD00002DE9F04113
:1019100086B00024002600250027A04601AA002149
:101920001948FFF7D7FE19490988019888420CD158
:101930009DF80C0048B99DF80E00082805D1012536
:101940000120124981F8310010E01049898801987E
:1019500088420BD19DF80C0040B99DF80E00082874
:1019600004D101270120094981F83200012D06D157
:101970000DF10F010548443002F02AFE8046204652
:1019800006B0BDE8F081000000640040601C00204B
:1019900070B500250124234890F8300020B10128BB
:1019A00007D0022836D11AE001201E4981F8300004
:1019B00035E01C49273101F11D0002F036FEC5B2A9
:1019C0003DB902F07BF904460020164981F8310048
:1019D00088861CB90220134981F830001FE01148A5
:1019E0003430FEF79FFE02F0B9FB04462CB1042C04
:1019F00003D10C490C48FFF728FC052C05D10948F8
:101A0000808E40F22621884203D90120054981F8C1
:101A1000300004E00020034981F8300000BF00BF1F
:101A200070BD0000601C0020006400402DE9F84FEC
:101A30004FF000080026B146B246B3460027002406
:101A40000025002000905348C07800F04009B9F10B
:101A5000000F04D04F482630FEF764FE03E04D48E7
:101A60002830FEF75FFE4B482C30FEF764FE002066
:101A7000484981F8240081F8220081F823000846B3
:101A8000C07800F0080ABAF1000F04D0012081F8F4
:101A9000220081F824003F48C07800F0040BBBF11D
:101AA000000F05D001203B4981F8230081F8240074
:101AB000384890F82400012869D1364890F8190177
:101AC000012807D10220334981F819010020C88478
:101AD0000885C8622F484179007941EA002424042E
:101AE0002C48C179807941EA0020044324F07044F5
:101AF0002848417A007A41EA00252D042548C17A18
:101B0000807A41EA0020054325F0704500212148F4
:101B100080F84510846380F85D10056590F81E011B
:101B2000012801D12F4600E027461B4800901948A4
:101B3000C16B3846009A01F093FE1649C863084607
:101B4000C76BC08C91F81A11884203DD1348B0F8B6
:101B50004A0000B900270F491022486B394603F0AC
:101B6000A3FA01200B4981F8E00000260AE00948A9
:101B7000406B50F8260018B90020064981F8E000B3
:101B8000701CC6B2034890F8E100B042EFDC40465A
:101B9000BDE8F88F501F0020CDCC4C3F481E0020E0
:101BA00000200021084AB2F842204FF6FF7303EAF2
:101BB000C221064AB2F80C218A4203D0034AA2F895
:101BC0000C11012070470000481E0020501F00200B
:101BD0000020084991F818210749B1F87A108A4283
:101BE00006D0054991F87A10024A82F818110120AE
:101BF00070470000501F0020481E002000200A49A6
:101C000091F81E11012904D145F2016207494A8663
:101C100003E041F2015205494A860449498E024ACD
:101C2000A2F8081170470000501F0020481E002035
:101C30000020084991F81E11012905D10021054A0B
:101C400082F81E11012004E00121024A82F81E11CF
:101C500001207047501F00201CB500240020019077
:101C60006648B0F8FE0000128DF80400634890F852
:101C7000FE008DF80500614890F81E0148B9022069
:101C8000082301AA542100905D4801F0F1FBC4B281
:101C900008E00220092301AA54210090584801F0CD
:101CA000E7FBC4B25548B0F8020100128DF80400F9
:101CB000524890F802018DF80500504890F81E0136
:101CC00048B90220102301AA542100904C4801F089
:101CD000CFFBC4B208E00220112301AA54210090D6
:101CE000474801F0C5FBC4B24448B0F804010012F3
:101CF0008DF80400414890F804018DF805003F4834
:101D000090F81E0148B90220142301AA5421009022
:101D10003B4801F0ADFBC4B208E00220152301AA44
:101D200054210090364801F0A3FBC4B23348B0F808
:101D30000C0100128DF80400304890F80C018DF869
:101D400005002E4890F81E0148B902201E2301AA62
:101D5000542100902A4801F08BFBC4B208E0022015
:101D60001F2301AA54210090254801F081FBC4B231
:101D70002248B0F8060100128DF804001F4890F8C0
:101D800006018DF805000220192301AA54210090B4
:101D90001B4801F06DFBC4B21848B0F80A010012EC
:101DA0008DF80400154890F80A018DF8050002200E
:101DB0001B2301AA54210090114801F059FBC4B221
:101DC0000E48B0F8080100128DF804000B4890F896
:101DD00008018DF8050002201A2301AA5421009061
:101DE000074801F045FBC4B20120044981F81901FC
:101DF0000020C8840885C86220461CBD501F0020F2
:101E0000005800402DE9F04300200021002200236B
:101E100000248446002500260027DFF8988198F8E2
:101E2000E13098F8FA4098F8FCC098F82081B8F1B1
:101E3000070F70D2DFE808F004535455B0B1B20078
:101E40004FF00008DFF86C91A9F82481C84698F893
:101E50002480B8F1010F34D1C84698F8E080B8F179
:101E6000010F2ED101211AE0DFF84881D8F8348023
:101E700058F82160DFF83C81D8F83480D8F8007039
:101E8000F51BDFF83081D8F81081A84503DA02F19C
:101E9000010808F0FF0201F1010808F0FF01994272
:101EA000E2DBA2420DDBDFF80C81D8F83480D8F8F1
:101EB0000080DFF80091C9F8F4804FF0030889F83A
:101EC0002081DFF8F480B8F84A80B8F1000F05D11E
:101ED0004FF00008DFF8DC9089F8208166E065E0CB
:101EE00064E04FF00108DFF8CC90A9F82481C846DF
:101EF00098F82480B8F1010F2BD1C84698F8E080FB
:101F0000B8F1010F25D1C84698F84580B8F1000F07
:101F10001FD101211BE042E0DFF89880D8F834801F
:101F2000D8F80060DFF88C80D8F8348058F8217039
:101F3000F51BDFF88080D8F81081A84503DA02F19C
:101F4000010808F0FF0201F1010808F0FF019942C1
:101F5000E2DBA24205DB4FF00008DFF8589089F879
:101F60002081DFF85480B8F84A80B8F1000F05D11D
:101F70004FF00008DFF83C9089F82081DFF83480CA
:101F800098F84580B8F1010F05D14FF00008DFF84F
:101F9000249089F8208109E008E007E006E04FF08E
:101FA0000008DFF8109089F8208100BF00BFBDE86D
:101FB000F0830000501F0020481E002070B500254F
:101FC000002444F677214D4841810021418242F2AC
:101FD0001071418342F2080141840121418545F29B
:101FE0000161418640F20D2141870021A0F8421095
:101FF000A0F84A104CF2503547F23054290CA0F8A2
:102000005210A0F85A50210CA0F86210A0F86A40B3
:102010000021A0F872103D21A0F87A1040893849BB
:10202000A1F8FE003548408AA1F800013348408BF2
:10203000A1F802013148408CA1F804012F48408DDD
:10204000A1F806012D48408EA1F808012B48408FC9
:10205000A1F80A012948B0F842004FF6FF7101EAE1
:10206000C0202749A1F80C012448B0F85200000410
:10207000C1F810010846D0F810012049B1F85A10F3
:1020800008431F49C1F810011C48B0F86200000461
:10209000C1F814010846D0F814011849B1F86A10C3
:1020A00008431749C1F81401144890F87A0081F8E0
:1020B0001801082081F8E1000220A1F8FA00A1F837
:1020C000FC0001F16000086340304863022081F8A1
:1020D0001901062081F81A01002081F81B0181F8FE
:1020E0001D0181F81F01012081F81E01002000F070
:1020F00057FC002000F066FC70BD0000481E002068
:10210000501F002038B50024174890F81E01A0B9D0
:1021100002200023144A121D54210090134801F09C
:1021200047F8C4B2022001230F4A921D54210090A7
:102130000E4801F03DF8C4B213E0022003460A4AFB
:10214000083254210090094801F032F8C4B202204C
:102150000323054A0A3254210090044801F028F86C
:10216000C4B2204638BD0000501F00200058004077
:1021700038B5002402201823044A54210090044852
:1021800001F016F8C4B2204638BD0000521F0020EE
:10219000005800401CB500240020019080208DF8DC
:1021A000040000208DF8050002201C2301AA542100
:1021B0000090034801F05CF9C4B220461CBD000049
:1021C0000058004000207047002000210D4A92F87E
:1021D00022100D4AB2FBF1F10A4AB2F87A205143BB
:1021E0000A096423B2FBF3F293B2064A538152897F
:1021F000521C93B2034A53815289044BA3F8FE2028
:1022000070470000481E002000093D00501F0020BC
:102210007CB504460025002001900F48B0F8080165
:1022200000128DF80400012C05D19DF8040040F047
:1022300020008DF80400084890F808018DF805008A
:1022400002201A2301AA54210090044801F010F939
:10225000C5B228467CBD0000501F00200058004039
:10226000002000213B4A92F818210A2392FBF3F246
:10227000D0B200EB8002012303EB4201332937D0B7
:102280000CDC15291CD004DC012910D00B2957D1F6
:102290000EE01F291CD0292952D121E03D292FD041
:1022A000472935D051293BD05B2949D140E000BFB7
:1022B0001022284B83F8E1200E2283F81A2146E0F1
:1022C0001022244B83F8E120062283F81A213EE0F5
:1022D0000D22204B83F8E120062283F81A2136E0F4
:1022E0000C221C4B83F8E120062283F81A212EE0F1
:1022F0000922184B83F8E120062283F81A2126E0F0
:102300000822144B83F8E120062283F81A211EE0EC
:102310000722104B83F8E120052283F81A2116E0EA
:1023200006220C4B83F8E120052283F81A210EE0E7
:102330000522084B83F8E120042283F81A2106E0E5
:102340000422044B83F8E12083F81A2100BF00BF68
:1023500070470000501F00202DE9F04100270124A4
:10236000002500269548007805287DD2DFE800F09A
:10237000030E21FDFC000021914880F82810FFF792
:1023800009FF044601208D49087014E101218C48A1
:1023900080F82810FFF732FCFFF75EFC0446012CA2
:1023A00003D102208549087002E0032083490870A8
:1023B00001E1FFF755FF814890F8200001280DD179
:1023C00000207E4981F8200081F82100FFF7D0FE2F
:1023D0000446FFF797FE0446FFF728FBFFF7F8FBDC
:1023E0000546012D06D1FFF7EFFE07460020734991
:1023F00081F81901FFF7D4FB0646012E06D1FFF73D
:10240000E1FE074600206D4981F819016B4890F8FC
:102410001901012808D10020684981F8E000486BC3
:102420001021FEF7AFFE13E0644890F8190102286E
:102430000ED16448B0F84A0050B900205F4981F8D5
:10244000E000C8840885C862486B1021FEF79AFE38
:10245000FFF7D8FC012C0CD00121594880F8291035
:1024600080F82B10002100E0A1E054488163016551
:1024700003E00021524880F82910504890F82001CC
:10248000032804D101204D4981F81B0103E00020FD
:102490004A4981F81B014B48B0F84A0018B901209D
:1024A000464981F81B01454890F81901012804D0DC
:1024B000424890F81C01012803D100203F4981F8CF
:1024C0001B013E4890F81D013C4991F81B118842C0
:1024D0000BD03A4991F81B01FFF79AFE04463748A2
:1024E00090F81B01354981F81D01354890F82B0003
:1024F000012804D0324890F82C00012809D103218A
:102500002F4880F82810002180F82B1080F82C101C
:1025100003E002212A4880F82810284890F81D017D
:10252000012803D10020254981F82100234890F893
:10253000210003280ADB0020204981F82100FFF751
:1025400077FB074600201D4981F819011B4890F8C8
:10255000190110B9002019490870194890F828008D
:10256000032804D1154901E013E001E0087022E0DE
:1025700003F06CFA0321124880F8281000F11801CA
:10258000114802F0D9FB03F071FA04200B490870DE
:1025900011E003F05BFA0421094880F8281001F0EB
:1025A00055F803F063FA00200449087003E00020A6
:1025B0000249087000BF00BFBDE8F081501F002035
:1025C000CC000020481E002000580040014600209A
:1025D0003A22525C22B13A22525C012A00D00220F7
:1025E0003922525C042A54D03922525C062A50D037
:1025F0003922525CC92A4CD03922525CCA2A48D0AE
:102600003922525CCB2A44D03922525CCC2A40D0A9
:102610003922525CCD2A3CD03922525CCE2A38D0A5
:102620003922525CCF2A34D03922525CD02A30D0A1
:102630003922525CD12A2CD03922525CD22A28D09D
:102640003922525CD32A24D03922525CD42A20D099
:102650003922525CD52A1CD03922525CD62A18D095
:102660003922525CD72A14D03922525CD82A10D091
:102670003922525CFC2A0CD03922525CFD2A08D047
:102680003922525CFE2A04D03922525CFF2A00D043
:102690000120C8637047000010B50121024800F016
:1026A000CCFB0249887010BD000C014032000020B4
:1026B00030B50446012025888D4202DB25889542ED
:1026C00001DD2380002030BD70B503463F2901DDC8
:1026D000012070BDCC1701EB5474E51003F1160412
:1026E000645D0A46CD1701EB5575ED10A1EBC506EB
:1026F0000125B540AC430846CD1701EB5575EE10EA
:1027000003F11605AC550020E3E704E0FFF740F9BC
:10271000022003F0BCFEF9E7704770B504460D4691
:102720000026012D05D12046FEF70CF80020607030
:1027300004E0601CFEF706F80020207020780A28CC
:1027400001DD0120A07060780A2801DD0020A07062
:10275000304670BD70B5002400254FF480513548D7
:1027600000F06BFB054629463348FFF7D6FF4FF4D0
:102770000051304800F061FB054629462E48C01C38
:10278000FFF7CBFF4FF480412A4800F056FB054687
:1027900029462948801DFFF7C0FF4FF40041254816
:1027A00000F04BFB0546294623480930FFF7B5FFEB
:1027B0002148807830B12148007820F001001F497D
:1027C000087005E01D48007840F001001B490870C2
:1027D0001948407930B11948007820F002001749B3
:1027E000087005E01548007840F0020013490870B1
:1027F0001148007A30B11148007820F004000F49E8
:10280000087005E00D48007840F004000B4908709E
:102810000948C07A30B10948007820F0080007491B
:10282000087005E00548007840F00800034908708A
:10283000204670BD000C0140602200202C000020CA
:102840000020FF210E4A1170517000219170FF216C
:10285000D170FF220A490A7100224A71FF21084AF9
:102860009171FF220649CA7100220A72FF21044AAF
:102870005172FF2202498A720022CA727047000018
:102880006022002010B503F0E7F9102000F014F8E2
:1028900030B10120044981F82000102000F006F832
:1028A00003F0EAF910BD0000501F00200149086044
:1028B0007047000014040140014600200022074B2D
:1028C0001B6803EA0102054B14331B680B4013B16C
:1028D0000AB1012000E00020704700000004014020
:1028E000002123498279002A3AD00A4612680368F7
:1028F0009A430B461A600A1D126803689A430B1D1F
:102900001A60027911440A6803681A430A60184A77
:102910000832126803689A43154B08331A601A1D6F
:10292000126803689A43124B0C331A604279102ADA
:102930000ED11A1F126803681A430D4B08331A6030
:102940001A1D126803681A43094B0C331A600DE014
:102950000749427911440A6803681A430A6005E08E
:10296000027911440A6803689A430A6070470000BC
:102970000004014008B54FF4C06001F01FFD0A20BB
:102980008DF8000001208DF8010007208DF802006D
:1029900001208DF80300684601F0D8FC08BD000056
:1029A00070B504462546012C04D10221044800F0EC
:1029B0004FFA03E00221024800F048FA284670BDB1
:1029C0000008014070B504462546012C04D12021A1
:1029D000044800F03DFA03E02021024800F036FAF6
:1029E000284670BD000801400149C86070470000DA
:1029F0000020024030B5044604254FF4302000F09A
:102A0000D5F80546042D17D10C48006940F00200A6
:102A10000A49086108464461006940F040000861C5
:102A20004FF4302000F0C2F805460448006941F632
:102A3000FD71084001490861284630BD0020024070
:102A400004200B49C96801F0010109B101200EE021
:102A50000749C96801F0040109B1022007E00449EF
:102A6000C96801F0100109B1032000E0042070479B
:102A7000002002401FB5002401F0B0FC09480A49BB
:102A80000A4A0B4BCDE90032CDE902100A23142289
:102A90000849094800F052FF04460CB900F02CFF29
:102AA0001FBD0000A3110008132B0008D12A000845
:102AB000D14300085C6A000808050020034800694B
:102AC00040F080000149086170470000002002408A
:102AD0002DE9F04706460C4615460027B846B9468C
:102AE000284605EBD071C1F34708B146E11704EB66
:102AF0005171C910A4EBC10111B10120BDE8F087EB
:102B000043464A4621463F2002F05FF9C7B23846A5
:102B1000F4E72DE9F04706460C4615460027B8466F
:102B2000B946284605EBD071C1F34708B146E11715
:102B300004EB5171C910A4EBC10111B10120BDE832
:102B4000F08743464A4621463F2002F06DF9C7B25E
:102B50003846F4E770B504460D460426F00200F04E
:102B600025F80646042E11D10948006940F00100FD
:102B7000074908612580F00200F018F8064604486D
:102B8000006941F6FE71084001490861304670BD98
:102B900000200240024803494860034848607047EB
:102BA0002301674500200240AB89EFCD00B5024606
:102BB0000423FFF745FF034603E0FFF741FF034609
:102BC000521E012B01D1002AF7D102B90523184664
:102BD00000BD00000EB5FFF7CDFE0121082001F079
:102BE0009FFD0120ADF8080003208DF80A00482061
:102BF0008DF80B0002A9294800F094F80220ADF8E6
:102C0000080003208DF80A0010208DF80B0002A99F
:102C1000224800F087F84FF47040ADF808004820D3
:102C20008DF80B0002A91D4800F07CF80220ADF8D9
:102C3000080003208DF80A0010208DF80B0002A96F
:102C4000174800F06FF81020ADF8080048208DF804
:102C50000B0002A9124800F065F80421002000F0E2
:102C600021F81020009000208DF804000C208DF831
:102C7000050001208DF806006846FFF731FE202090
:102C8000ADF8080003208DF80A0010208DF80B0025
:102C900002A9034800F046F80EBD0000000C0140F8
:102CA0000008014030B500228B071C0F0F2303FAE8
:102CB00004F20B4B8C1053F824309343084C8D10C6
:102CC00044F8253023468C1053F824308C07240F09
:102CD00000FA04F42343024C8D1044F8253030BD33
:102CE000080001400A480B4988610B490948C16145
:102CF0000A4901620A494162002180F8281080F8DF
:102D0000291080F82A1080F82B1080F82C107047BA
:102D100029580008CC000020A92E0008E12E000848
:102D2000CD2E00082DE9F0410246002500260020A6
:102D300000230024002791F803C00CF00F0591F840
:102D400003C00CF0100CBCF1000F03D091F802C0CE
:102D50004CEA050591F800C0BCF1000F31D01468B1
:102D600000202BE04FF0010C0CFA00F3B1F800C08A
:102D70000CEA03069E4220D183004FF00F0C0CFAA0
:102D800003F7BC4305FA03FC4CEA040491F803C0C2
:102D9000BCF1280F06D14FF0010C0CFA00FCC2F870
:102DA00014C00AE091F803C0BCF1480F05D14FF000
:102DB000010C0CFA00FCC2F810C0401C0828D1D34A
:102DC0001460B1F800C0BCF1FF0F34DD546800207E
:102DD0002EE000F1080C4FF0010808FA0CF3B1F8EE
:102DE00000C00CEA03069E4221D183004FF00F0C75
:102DF0000CFA03F7BC4305FA03FC4CEA040491F80F
:102E000003C0BCF1280F05D100F1080C08FA0CF83A
:102E1000C2F8148091F803C0BCF1480F07D100F14B
:102E2000080C4FF0010808FA0CF8C2F81080401C9A
:102E30000828CED35460BDE8F08102460020936894
:102E40000B400BB1012000E000207047416170474A
:102E500001617047002100BF01E000BF491C8142B1
:102E6000FBD370473CB504460020607201200090FF
:102E7000019020886FF0C7035B22094900F0EEFD46
:102E8000054640F2C670854202D00648854202D10E
:102E90000120607201E00020607228463CBD000005
:102EA000C86A000822FCFFFF10B504462CB94FF495
:102EB00080610548FFF7CAFF04E04FF480610248D3
:102EC000FFF7C6FF002010BD000C014010B54FF405
:102ED00000610248FFF7B1FF10BD0000000C014087
:102EE00010B504462CB94FF400610548FFF7AEFF5A
:102EF00004E04FF400610248FFF7AAFF002010BD74
:102F0000000C014021B1028842F48062028004E09A
:102F100002884FF6FF331A400280704770B50546AD
:102F20000C4616464FF400502A49086009E029492A
:102F30000868411E274A116018B9092000F043FBB8
:102F400070BD4FF40031284600F09EF80028EED105
:102F50000121284600F080F84FF480501D49086098
:102F600009E01C490868411E1A4A116018B90A2074
:102F700000F029FBE4E71849284600F02FF8002864
:102F8000EFD0E1B23246284600F012FB4FF48050F9
:102F90001049086009E00F490868411E0D4A116098
:102FA00018B90E2000F00FFBCAE70B49491C284650
:102FB00000F014F80028EED000212846FFF7A2FF09
:102FC0000121284600F054F801212846FFF79AFF16
:102FD0000120B5E7280000200100030070B502467B
:102FE0000024002500230020958A138B1B0445EA4A
:102FF000030626F07F4404EA01068E4201D1012037
:1030000000E0002070BD21B1028842F00102028080
:1030100004E002884FF6FE731A40028070470000F9
:1030200010B504460B48844209D10121480501F03E
:1030300067FB00214FF4001001F062FB08E0012162
:10304000880501F05DFB00214FF4800001F058FB82
:1030500010BD00000054004021B1028842F480728B
:10306000028004E002884FF6FF631A400280704736
:1030700021B1028842F40072028004E002884FF617
:10308000FF531A40028070470CB50246002000230F
:103090000193009300920B0F019321F07F41019B5C
:1030A0001BB1009B1433009303E0090C009B183301
:1030B0000093009B1B680B400BB1012000E0002037
:1030C0000CBD00002DE9F04385B004460D460026F6
:1030D000B1460427DFF8CC80A6884FF6C0700640C2
:1030E000684601F02DFBDDF808802F48B8FBF0F0B2
:1030F0001FFA80F946EA0906A68020884FF6FE717D
:103100000840208000262949286888420CD8286871
:103110004000B8FBF0F087B2042F00DA04273E43EA
:1031200009F10100208427E0E8884BF6FF7188420E
:1031300006D1286800EB4000B8FBF0F087B209E048
:10314000286800EBC00101EB0010B8FBF0F087B27B
:1031500047F48047C7F30B0008B947F0010747F46D
:10316000004006434FF4967009FB00F04FF47A716B
:1031700090FBF1F0401C2084A683208840F00100E1
:10318000208026884FF6F5300640A88869890843D4
:1031900006432680A88929890843208105B0BDE817
:1031A000F083000000127A0040420F00A086010068
:1031B0002DE9F04180460C4615461F46069E4FF409
:1031C0000050654908600AE063490868411E624A88
:1031D000116020B9092000F0F6F9BDE8F0814FF444
:1031E00000314046FFF750FF0028EDD10121404655
:1031F000FFF732FF4FF480505749086009E0564905
:103200000868411E544A116018B90A2000F0DBF921
:10321000E3E752494046FFF7E1FE0028EFD0E1B274
:103220000022404600F0C4F94FF480504A4908603B
:1032300009E049490868411E474A116018B90B2046
:1032400000F0C1F9C9E746494046FFF7C7FE00282C
:10325000EFD001214046FFF7D6FE3946404600F048
:10326000B0F94FF480503C49086009E03A490868D9
:10327000411E394A116018B90C2000F0A4F9ACE7DE
:103280003749891C4046FFF7A9FE0028EED00121EE
:103290004046FFF7E1FE4FF480502F49086009E0F7
:1032A0002D490868411E2C4A116018B90D2000F004
:1032B0008AF992E729494046FFF790FE0028EFD0AF
:1032C000E1B20122404600F073F94FF480502249E8
:1032D000086009E020490868411E1F4A116018B9BA
:1032E0000E2000F070F978E71C49491C4046FFF7B2
:1032F00075FE0028EED026E0012E07D100214046C1
:10330000FFF700FE01214046FFF7B2FE4FF40050E8
:103310001149086009E010490868411E0E4A116011
:1033200018B9032000F04FF957E70C493F314046E8
:10333000FFF754FE0028EED0404600F035F9287023
:103340006D1C701E86B2002ED6D101214046FFF7BB
:10335000D9FD012041E70000280000200100030002
:10336000820007002DE9F04107460E4614469846B4
:10337000069D4FF400503C4908600AE03A4908684D
:10338000411E394A116020B9092000F01CF9BDE83E
:10339000F0814FF400313846FFF776FE0028EDD17A
:1033A00001213846FFF758FE4FF480502E4908603F
:1033B00009E02D490868411E2B4A116018B90A20FE
:1033C00000F001F9E3E729493846FFF707FE002836
:1033D000EFD0F1B20122384600F0EAF84FF4805005
:1033E0002149086009E020490868411E1E4A116011
:1033F00018B90E2000F0E7F8C9E71C49491C384607
:10340000FFF7ECFD0028EED026E0012D07D10021CA
:103410003846FFF777FD01213846FFF729FE4FF4C4
:1034200000501149086009E00F490868411E0E4A22
:10343000116018B9032000F0C6F8A8E70B493F3126
:103440003846FFF7CBFD0028EED0384600F0ACF848
:103450002070641C681E85B2002DD6D1012138462B
:10346000FFF750FD012092E7280000200100030033
:103470002DE9F04107460D4614461E46DDF818803A
:103480004FF40050454908600AE044490868411E6D
:10349000424A116020B9042000F095F8BDE8F0819F
:1034A0004FF400313846FFF7EFFD0028EDD1012140
:1034B0003846FFF7D1FD4FF480503849086009E0E5
:1034C00036490868411E354A116018B9052000F0D8
:1034D0007AF8E3E732493846FFF780FD0028EFD05D
:1034E000E9B20022384600F063F84FF480502B49CF
:1034F000086009E029490868411E284A116018B986
:10350000062000F060F8C9E726493846FFF766FD57
:103510000028EFD03146384600F053F84FF4805081
:103520001E49086009E01D490868411E1B4A1160D8
:1035300018B9072000F047F8B0E71A49891C384647
:10354000FFF74CFD0028EED01AE02178384600F055
:1035500038F8641C4FF480501049086009E00F49A6
:103560000868411E0D4A116018B9082000F02BF8B8
:1035700094E70C49891C3846FFF730FD0028EED04F
:10358000B8F10000A8F1010101F0FF08DDD101212F
:103590003846FFF76DFD012080E70000280000207D
:1035A00001000300820007000146088AC0B270478C
:1035B00012B141F0010102E04FF6FE7319400182A1
:1035C000704701827047704708B50121880501F0F6
:1035D00087F80121082001F0A3F84FF44060ADF80E
:1035E000000003208DF802001C208DF803006946BE
:1035F0000148FFF797FB08BD000C014010B5FFF72D
:10360000E3FF00F001F810BD1FB50020ADF8040085
:103610004BF6FF70ADF806000A20ADF808004FF435
:103620008060ADF80A000001ADF80C00054800907C
:1036300069460548FFF746FD01210348FFF7E3FC13
:103640001FBD0000A08601000058004010B50448CE
:10365000FFF7E6FCFFF7B8FFFFF7D6FF10BD00004D
:103660000058004070B505460C4645F2555000F034
:103670002FF8284600F020F8204600F023F800F04C
:1036800013F800F001F870BD4CF6CC400149086019
:10369000704700000030004004E000F005F8C8204A
:1036A00002F0F5FEF9E700004AF6AA200149086099
:1036B000704700000030004001494860704700003A
:1036C0000030004001498860704700000030004031
:1036D00001490860704700000030004000210022CE
:1036E0000260426002728272C27400BF05E0002371
:1036F00000F10B0253544A1CD1B20829F7DB704782
:1037000010B5FEF75BFCFDF733FC00210448A0F880
:103710004A1090F84A00034908700020487010BD14
:10372000481E00203000002010B502460B46002144
:1037300003EB4300024C20448078D071084610BD52
:103740003200002010B500243848B0F84A0015288F
:1037500031D013DC102829D007DC10B3012824D085
:1037600002282FD003284BD139E011281FD012286E
:103770001ED013281DD0142842D11BE0232825D0A9
:1037800008DC162818D020281DD021281CD022287B
:1037900036D11AE024281AD0252819D026282FD16E
:1037A00017E00020224948702FE000BF00BF00BF93
:1037B00000BF00BF00BF00BF1E4890F824011C4995
:1037C000487022E000BF00BF00BF00BF00BF00BFC5
:1037D00000BF194890F892011549487015E0154846
:1037E000B0F82401012807D11348B0F8920101284C
:1037F00002D10F49487002E000200D49487004E0F2
:1038000000210A48A0F84A1000BF00BF0748B0F8DE
:103810004A0030B10648407808B1012402E0002493
:1038200000E00024204600F009F810BD481E0020EA
:1038300030000020501F00207820002070B5044682
:103840002546012C04D102210448FFF701FB03E0C7
:1038500002210248FFF7FAFA284670BD000C014029
:103860002DE9F84F06460C46154600272046FCF782
:1038700066FD834629464FF07E50FCF71FFD5946F2
:103880000090FCF721FD81463046FCF758FD834649
:103890002946FCF719FD82464946FCF7BDFC8046E7
:1038A000FCF76BFD07463846BDE8F88F2DE9F84F69
:1038B00006460C46154600272046FCF737FD834692
:1038C00029464FF07E50FCF7F9FC59460090FCF772
:1038D000FBFC81463046FCF729FD83462946FCF770
:1038E000F3FC82464946FCF797FC8046FCF72CFD2A
:1038F00007463846BDE8F88F10B50023FF22194669
:103900000C48FEF7D5FE0023FF2219460948801C0B
:10391000FEF7CEFE0023FF2219460648001DFEF7E3
:10392000C7FE05488388C2888188801CFEF7C0FED8
:1039300010BD0000401F0020481E00202DE9F05F50
:1039400004460D4691469A46DDF828B00026002729
:10395000B04615B90320BDE8F09F00262CE006EB29
:10396000460005EB8000406828B9B8F1000F01D08F
:10397000781C87B222E006EB460005EB8000007A57
:10398000032804D108F1020000F0FF0801E0012043
:10399000E1E7B8F1080F04D1781C87B24FF00008B6
:1039A00008E0B8F1080F05DD781C87B24FF0000879
:1039B000701E86B2701C86B2402ED0DB00BF781C11
:1039C000082801DD0220C6E72069E8BB40202080EE
:1039D000C0006080A780A0884FF6FF7101EAC00098
:1039E000E080A0882188884201DD2088A080E088CE
:1039F0006188884201DD6088E080A4F808900AEBC5
:103A00004A00C0EBCA104FF6FF7101EAC0006081A6
:103A100041F28830A081256100202075607584F80E
:103A20006600032084F86700002084F868000B9883
:103A3000E0660C9820670D986067204601F00AF850
:103A4000BBF1000F05D000E001E0D84701E0042001
:103A500081E700207FE700BFFEE700002DE9F04F7F
:103A600086B0044615469846DDF83CC000229346D1
:103A70000020059000268146002700230490039033
:103A8000029001900090824600BF681EC0B205906F
:103A9000AA4600BF50460AEBD07ECEF34F0A781CF0
:103AA00087B2BAF1000FF5DCBCF1000F0ED1088827
:103AB000A04204DA40F2C67006B0BDE8F08F681E7E
:103AC00031F81000A04214DD3448F5E710980128C1
:103AD0000CD10888A04201DD3048EDE7681E31F8BE
:103AE0001000A04205DA40F2C670E5E740F2C67069
:103AF000E2E741E00FB1781E87B205985844C2B2A0
:103B0000104602EBD07E4FEA6E0231F81260BCF133
:103B1000000F02D10394029601E003960294DDE9BE
:103B200002E0704527DC01EB4200B0F80290BCF1E6
:103B3000000F03D10194CDF8009002E0CDF804907D
:103B40000094DDE900E0704513DBA31BA9EB060040
:103B500000B2049003EB8300400003B2049893FB8F
:103B6000F0F302EB8200400004900498184403B282
:103B700007E0934600E005920598834501DC002F9D
:103B8000B8DC00BF1098012803D103EB080003B292
:103B900002E0A8EB030003B218468DE722FCFFFF0A
:103BA00070B504460D4600260DB1284670BD3A207A
:103BB000005D012805D13B20015D04F1270001F0E3
:103BC00083FB3046F2E770B504460D4600263B20E5
:103BD000015D284600F01EFE304670BD70B50446FB
:103BE0000D4600260DB1284670BD3A20005D012823
:103BF00004D1002104F1270001F0AEFB3046F3E7C9
:103C000070B506460C4600250021204600F04AFE0D
:103C1000284670BD70B504460D4600260DB12846F5
:103C200070BD3A20005D012804D1002104F1270075
:103C300001F0D2FB3046F3E770B506460C4600258E
:103C40000021204600F054FE284670BD70B50446A1
:103C50000D4600260DB1284670BD3A20005D0128B2
:103C600004D1002104F1270001F0F6FB3046F3E710
:103C700070B506460C4600250021204600F050FE97
:103C8000284670BD70B504460D4600260DB1284685
:103C900070BD3A20005D012804D1002104F1270005
:103CA00001F01AFC3046F3E770B506460C460025D5
:103CB0000021204600F04CFE284670BD70B500245F
:103CC000002600256B4890F827006A4981F83800E3
:103CD000084690F8281080F8391090F8291080F8DC
:103CE0003A1090F82A1080F83B10FEF76FFC05465A
:103CF000604890F83900D22870D017DCCC2848D022
:103D00000CDCC92833D004DC042824D0062871D167
:103D100027E0CA2831D0CB28F9D134E0CD380528A6
:103D200068D2DFE800F03C42484E5400D8287ED0EC
:103D300008DCA0F1D3000528F2D2DFE800F0555CE2
:103D400062696F00FC2878D0FD287CD0FE286DD0F9
:103D5000FF28DCD183E02946464800F0FFF80646FC
:103D600084E02946434800F0DDFA06467EE0294615
:103D7000404800F0B9F8064678E029463D4800F092
:103D8000D1F9064672E029463A4800F07DF9064628
:103D90006CE02946374800F017F9064666E02946E8
:103DA000344800F01BF9064660E02946314800F02F
:103DB0001FF906465AE029462E4800F05DF80646EF
:103DC00054E029462B4800F01DF906464EE02946EE
:103DD000284800F06DF8064648E0FFE729462548E8
:103DE00000F036F9064641E029462248FFF7D8FEA2
:103DF00006463BE039E029461E48FFF7EFFE06463F
:103E000034E029461B48FFF705FF06462EE00EE08A
:103E10002946184800F000F9064627E029461548CB
:103E2000FFF714FF064621E007E00CE011E0294609
:103E30001048FFF727FF064618E029460D4800F016
:103E400045F9064612E029460A4800F05AF90646A6
:103E50000CE02946074800F093F8064606E029469C
:103E6000044800F08DF8064600E000BF00BF204681
:103E700070BD0000601C002070B504460D46002691
:103E80000DB1284670BD3A20005D012804D1FF2104
:103E900004F1270001F064FB3046F3E770B50646F5
:103EA0000C4600250021204600F08CFD284670BD00
:103EB00070B504460D4600260DB1284670BD3A2067
:103EC000005D012804D1002104F1270001F05CFB12
:103ED0003046F3E770B506460C4600250021204623
:103EE00000F07AFD284670BD0346002209B108465D
:103EF00070471046FCE770B506460C4600250021C9
:103F0000204600F05BFD284670BD000070B50446F9
:103F10000D4600262088A0600021E16021746174B4
:103F20000821A17494F83810E1743920015D2175DD
:103F3000A9786175E978A1752979E17569792176A2
:103F4000A9796176E979A17604F108010248FDF7C3
:103F500049FC0646304670BD00640040034600221E
:103F600009B1084670471046FCE770B506460C4696
:103F7000002500212046FFF7D7FB284670BD000032
:103F800070B504460D4600260DB1284670BD94F864
:103F90002A000749C8733A20005D012805D1084668
:103FA000C17B04F1270001F069FB3046EEE7000019
:103FB000401F002070B506460C4600250021204613
:103FC00000F0AAFE284670BD0346002209B108464B
:103FD00070471046FCE70246002070470346002267
:103FE00009B1084670471046FCE7024600207047BA
:103FF0000346002209B1084670471046FCE7024616
:10400000002070470346002209B108467047104659
:10401000FCE702460020704770B504460D460026B6
:104020000DB1284670BD3A20005D012804D1002161
:1040300004F1270001F090FA3046F3E770B5064628
:104040000C4600250021204600F09AFC284670BD51
:1040500070B504460D4600260DB1284670BD3A20C5
:10406000005D012804D1002104F1270001F0EEFADF
:104070003046F3E770B506460C4600250021204681
:1040800000F0C4FC284670BD0346002209B1084672
:1040900070471046FCE7000070B506460C46002548
:1040A0000848808EB0F5FA7F06D2074890F868017C
:1040B000012801D1052070BD0021204600F0C2FC7E
:1040C0002846F8E7601C00207820002070B50446E0
:1040D0000D4600260DB1284670BD3A20005D20B97E
:1040E000002104F1270000F0D1FD3046F4E770B55F
:1040F00006460C4600250021204600F081FD28469A
:1041000070BD0346002209B1084670471046FCE71F
:1041100070B506460C4600250021204600F0C2FD81
:10412000284670BD70B504460D4600260DB12846E0
:1041300070BD3A20005D012804D1002104F1270060
:1041400001F088FA3046F3E770B506460C460025C4
:104150000021204600F03AFD284670BD7CB50125BF
:1041600000240020009001906D4890F83900D2287A
:1041700070D017DCCC2848D00CDCC92833D004DC44
:10418000042824D0062871D127E0CA2831D0CB28B2
:10419000F9D134E0CD38052868D2DFE800F03C42A0
:1041A000484E5400D8287ED008DCA0F1D300052862
:1041B000F2D2DFE800F0555C62696F00FC2878D02D
:1041C000FD287CD0FE286DD0FF28DCD183E0694635
:1041D0005348FFF7CAFE044684E06946504800F0A1
:1041E000A8F804467EE069464D48FFF784FE044681
:1041F00078E069464A48FFF7A7FF044672E069463F
:104200004748FFF749FF04466CE069464448FFF71A
:10421000E2FE044666E069464148FFF7E6FE0446D2
:1042200060E069463E48FFF7EAFE04465AE0694608
:104230003B48FFF733FE044654E069463848FFF731
:10424000E8FE04464EE069463548FFF743FE044663
:1042500048E0FFE769463248FFF70CFF044641E0BB
:1042600069462F48FFF7AFFC04463BE039E069465A
:104270002B48FFF7C5FC044634E069462848FFF7A1
:10428000DBFC04462EE00EE069462548FFF7D6FE2B
:10429000044627E069462248FFF7EAFC044621E08D
:1042A00007E00CE011E069461D48FFF7FDFC0446FD
:1042B00018E069461A48FFF71AFF044612E06946FB
:1042C0001748FFF725FF04460CE069461448FFF73E
:1042D00071FE044606E069461148FFF76BFE04468E
:1042E00000E000BF00BF0E48C06B012807D00C489B
:1042F000C06B022803D00A48C06B032804D10848C9
:1043000090F83C008DF802002CB969460448FFF78C
:10431000FDFD054602E0052C00D1052528467CBDA3
:10432000601C00200346002209B108467047104671
:10433000FCE770B504460D4600263B20015D28468B
:1043400000F0C2FC304670BD7047000070B500211F
:1043500000230F22C47804B3154C246804F4E064ED
:10436000C4F5E064210AC1F10403CA40447804FAA8
:1043700003F184781440214309010E4C0678A155BD
:10438000047804F01F050124AC4005786D11AD00E0
:1043900005F1E025C5F8004109E0047804F01F05A7
:1043A0000124AC40044D0678761145F8264070BDD6
:1043B0000CED00E000E400E080E100E00249014390
:1043C000024A1160704700000000FA050CED00E0A1
:1043D000704701708280C3807047000000B5D02311
:1043E000C92200217848FFF7F4FFFF2306220121AC
:1043F00075480830FFF7EDFF4FF6FF7300220221EA
:1044000071481030FFF7E5FF4FF6FF7300220321DC
:104410006D481830FFF7DDFF4FF6FF7300220421CF
:1044200069482030FFF7D5FF4FF6FF7300220421C3
:1044300065482830FFF7CDFF4FF6FF7300220621B5
:1044400061483030FFF7C5FF4FF6FF7300220721A8
:104450005D483830FFF7BDFF4FF6FF73002208219B
:1044600059484030FFF7B5FF2F2300220921564855
:104470004830FFF7AEFF4FF6FF7300220A21524883
:104480005030FFF7A6FF4FF6FF7300220B214E4876
:104490005830FFF79EFF4FF6FF7300220C214A4869
:1044A0006030FFF796FF4FF6FF7300220D2146485C
:1044B0006830FFF78EFFFF2300220E214248703044
:1044C000FFF787FFFF2306220F213F487830FFF7D1
:1044D00080FF0623002210213B488030FFF779FF40
:1044E00006230022112138488830FFF772FF4FF66B
:1044F000FF730022122134489030FFF76AFF4FF615
:10450000FF730022132130489830FFF762FF4FF607
:10451000FF73002214212C48A030FFF75AFF4FF6FA
:10452000FF73002215212848A830FFF752FF4FF6ED
:10453000FF73002216212448B030FFF74AFF4FF6E0
:10454000FF73002217212048B830FFF742FF4FF6D3
:10455000FF73002218211C48C030FFF73AFF4FF6C6
:10456000FF73002219211848C830FFF732FF4FF6B9
:10457000FF7300221A211448D030FFF72AFF4FF6AC
:10458000FF7300221B211048D830FFF722FF4FF69F
:10459000FF7300221C210C48E030FFF71AFF4FF692
:1045A000FF7300221D210848E830FFF712FF4FF685
:1045B000FF7300221E210448F030FFF70AFF4FF678
:1045C000FF700249C88000BD481E0020401F002027
:1045D0002DE9F04104460E460027B8460025204646
:1045E00000F05EF88046B8F1000F01D0012719E015
:1045F000002508E0715DB4F9020005EBC000A26877
:104600001154681CC5B2082DF4D36088401C00B258
:104610006080B4F90200B4F9041090FBF1F201FBE0
:10462000120060803846BDE8F08170B502460B4646
:1046300000200021B2F90240B2F90050AC4201D191
:10464000012019E0002108E0B2F9004001EBC404A8
:1046500095682C5D5C544C1CE1B20829F4D3148895
:10466000641C24B21480B2F90040B2F9045094FBE7
:10467000F5F605FB1644148070BD014600200022AB
:104680000A804A80CA80704710B503460020002483
:104690001C805C8014B29C800024DC80996010BD7A
:1046A00010B50146002001224B885B1C1AB2B1F9FB
:1046B000043092FBF3F403FB1422B1F9003093426F
:1046C00000D1012010BD000001460020034A5068BF
:1046D00020F4404008435060704700000010024042
:1046E00029B1064AD2690243044BDA6104E0034A65
:1046F000D2698243014BDA6170470000001002402A
:1047000029B1064A12690243044B1A6104E0034AC4
:1047100012698243014B1A61704700000010024089
:1047200029B1064A92690243044B9A6104E0034AA4
:1047300092698243014B9A61704700000010024069
:1047400030B500210022002400232D4D6D6805F0B6
:104750000C0121B1042905D0082923D105E0294DF8
:10476000056022E0274D05601FE0254D6D6805F4CA
:104770007012234D6D6805F48034022505EB9242DA
:104780001CB9214D554305600BE01D4D6D6805F4C6
:1047900000351DB11C4D5543056002E0194D5543D0
:1047A000056002E0174D056000BF00BF144D6D6845
:1047B00005F0F0010909154D6B5C0568DD404560A9
:1047C0000F4D6D6805F4E061090A104D6B5C45689A
:1047D000DD4085600A4D6D6805F46051C90A0B4DD6
:1047E0006B5C4568DD40C560054D6D6805F4404172
:1047F000890B074D6B5CC568B5FBF3F5056130BDF2
:104800000010024000127A0000093D001400002050
:104810002400002010B502460020002309B912230D
:1048200026E0012901D1172322E0022901D1142316
:104830001EE0032901D113231AE0042901D1162314
:1048400016E0052901D1152312E0062901D119230B
:104850000EE0072901D118230AE0082901D11A2303
:1048600006E0092901D11B2302E00A2900D11C23FB
:104870000B4C04EBC304648824161471084C04EB3D
:10488000C304648824145471054C04EBC304648885
:1048900024129471024C04EBC304A478D47110BDAB
:1048A000481E002010B502460B46002000210BB91F
:1048B0001D2102E0012B00D11E210C4C04EBC10490
:1048C000648824161471094C04EBC1046488241410
:1048D0005471064C04EBC104648824129471034C97
:1048E00004EBC104A478D47110BD0000481E002060
:1048F00002460020094BB3F854311B0A1371074BD1
:1049000093F854315371054BB3F856311B0A937128
:10491000024B93F85631D371704700007820002085
:1049200002460020094BB3F858311B0A1371074B9C
:1049300093F858315371054BB3F85A311B0A9371F0
:10494000024B93F85A31D371704700007820002051
:1049500002460020094BB3F85E311B0A1371074B66
:1049600093F85E315371054BB3F860311B0A9371B4
:10497000024B93F86031D37170470000782000201B
:10498000024600200B4B93F82A30012B01D10B2358
:104990009370094BDB691B0E1371074BDB691B0C12
:1049A0005371054B9B8B1B0A9371034B1B7FD37178
:1049B00070470000CC000020782000200246002034
:1049C0007047000002460020024B93F84A30D37033
:1049D00070470000481E0020024600200A4B93F852
:1049E0002230D370084B93F842301371064B93F882
:1049F00052305371044BB3F85A301B129371024B6F
:104A000093F85A30D3717047481E002010B5024603
:104A10000B4600200021094C94F82940012C01D1BB
:104A20000A249470064C646B21680C0E14710C0CF3
:104A300054710C0A9471D17110BD0000CC0000209B
:104A4000501F002002460020014B5B78D371704755
:104A5000300000202DE9F84F044600260027B1461B
:104A60000020009082460025A8E04FF6FF7000EA83
:104A7000C501082204F15E00E36E9847072104F1A6
:104A80005E00626F904783466520005D584506D101
:104A900029462046FDF718FE002000902EE04FF03A
:104AA000000817E04FF6FF7000EAC501082204F184
:104AB0005E00E36E9847072104F15E00626F904745
:104AC00083466520005D584500D106E008F10100ED
:104AD0001FFA80F8B8F1030FE4DB00BFB8F1030F51
:104AE00006DA29462046FDF7EFFD0020009005E09C
:104AF0002946204600F035FA012000900027B946EB
:104B000053E006EB4601206900EB81004068002875
:104B100049D006EB4601206900EB8100007A30B1F4
:104B2000012805D0022804D0032832D102E033E066
:104B300032E031E0781C082828DA009801280CD1EE
:104B400007EB4701206930F8210006EB4602216996
:104B500001EB82014968088015E004F15E0010F85D
:104B600007A04FF6FF7000EA0A2A04F15E00791CE4
:104B7000405C40EA0A0A06EB4601206900EB81002E
:104B80004068A0F800A0B81C87B201E04FF001090E
:104B900002E04FF0020900BF00BFB9F1000F04D1DD
:104BA000701C86B201E04FF00209B9F1000FA8D0E5
:104BB000B9F1020F00D105E0681C85B2A088A842B7
:104BC0003FF753AF00BFBDE8F88F0000024600205A
:104BD000094B93F82930012B02D10A23937006E088
:104BE000054B93F82A30012B01D10B239370034B13
:104BF00093F84A30D3717047CC000020481E002043
:104C0000F0B502460D4600210024002300201D4E71
:104C1000767826B900271B4EF770B7702EE0194E34
:104C20007678012E2AD1174EF6781827B7EB860F23
:104C300003D8FD27134EB77020E0124EF678B60663
:104C4000340E002108E066180F4FBB5D0E1D935512
:104C500003B903E04E1CF1B20429F4DB00BF094E96
:104C6000F678761CF7B2074EF77023B90027F77075
:104C7000FF27B77002E0FE27024EB770014EB678EC
:104C8000D670F0BD2C0000203A6A000810B502462C
:104C90000B460021D078024C6070084610BD000021
:104CA0002C00002002460020064B1B781371054B98
:104CB0009B785371034B9B881B129371014B1B799B
:104CC000D3717047526A000810B5024600204FF6B3
:104CD000FF7331B90F4C647A012C0BD114249470FA
:104CE00008E0012906D10B4C94F83140012C01D188
:104CF0001524947011B9074C636803E0012901D1B0
:104D0000044CE36A1C0E14711C0C54711C0A94713F
:104D1000D37110BD10220020024600201F2900DAA6
:104D200000E0012020B9034B03EBC1039B78137013
:104D300070470000481E00202DE9F04107460C4650
:104D40000025002600213846FEF75DF93846FEF7BB
:104D500067F900F07FFD2068804700F07BFDE06888
:104D600080470646AEB900BF10E000206168884762
:104D700000F070FD01206168884700F06BFDE0687D
:104D80008047064606B103E0681CC5B2092DECDB7E
:104D900000BF204600F065FD0020BDE8F08130B581
:104DA00003460C461546002200BF07E0184600F0F7
:104DB00009F824F812009B1C501C82B2AA42F5DBB1
:104DC000002030BD0146088870472DE9F0430446B5
:104DD0000D4616464FF00008C14600270022402C21
:104DE00002D30120BDE8F08305F0010008B10220E4
:104DF000F8E705EB4300B0F5806F01D90320F1E738
:104E00004FF0006000EB842909EB0507002207E062
:104E10003846FFF7D7FF26F81200BF1C501C82B29D
:104E20009A42F5DB4046DDE72DE9F05F04460D468A
:104E300090461E464FF00009CA46CB460027402C3C
:104E400002D30120BDE8F09F05F0010008B1022067
:104E5000F8E705EB4600B0F5806F01D90320F1E7D4
:104E60004FF0006000EB842AC5F34F0B8214124907
:104E70005046FFF794FFFDF78DFE3520FDF7B4FD9A
:104E80005046FDF7B7FD002708E038F817000BEB98
:104E90000701094A22F81100781C87B2B742F4DBF7
:104EA0004FF400720449504600F008F88146FDF7BF
:104EB00005FE4846C6E70000080100202DE9F04144
:104EC00005460F4616460024A04600BF08E037F806
:104ED00014102846FDF73EFE8046AD1C601C84B2CF
:104EE000B442F4DB4046BDE8F08170470BE0064871
:104EF000FBF718FC0548FBF725FCFCF781FB4FF49A
:104F00007A7001F0C4FAF2E706010020711F002058
:104F10000A480078401C0949087008464078401C3F
:104F2000487008468078401C88700846C078401C4D
:104F3000C87008460089401C08817047FC000020AA
:104F40000EE0FDF709FAFCF7CDF8FEF7FBFBFDF7E5
:104F5000A3FBFDF7FFFB00F02FF90A2001F097FA01
:104F6000EFE770B503463F2901DD012070BDCC1786
:104F700001EB5474E51003F11604645D0A46CD1785
:104F800001EB5575ED10A1EBC5060125B540EDB25D
:104F90002C430846CD1701EB5575EE1003F11605AD
:104FA000AC550020E2E70246002093888B4202DCE9
:104FB000D3888B4201DA012000E05180704710B5A0
:104FC00000F002F810BD00000CB500200190009028
:104FD0003348006840F480303149086000BF3048F1
:104FE000006800F4003000900198401C0190009887
:104FF00018B90198B0F5A06FF1D12948006800F404
:10500000003010B10120009001E0002000900098D5
:10501000012843D12348006840F01000214908606E
:105020000846006820F0030008600846006840F069
:10503000020008601A4840681949486008464068FC
:1050400048600846406840F4806048600846406810
:1050500020F47C1048600846406840F4E81048603E
:105060000846006840F08070086000BF0C48006887
:1050700000F000700028F9D00948406820F00300D3
:10508000074948600846406840F00200486000BF99
:105090000348406800F00C000828F9D10CBD00005E
:1050A000001002400020024030B503460C460020AC
:1050B0000021551EE9B206E04D1E53F8255043F875
:1050C00021504D1EE9B20029F6DC1C6030BD10B540
:1050D00000F0C2FD01F040FB00F0CEFD10BD00006D
:1050E00010B51348006840F00100114908600846F7
:1050F0004068104908400E494860084600680E495B
:1051000008400B4908600846006820F480200860C9
:105110000846406820F4FE0048604FF41F00886095
:10512000FFF74DFF4FF000600449086010BD00001C
:10513000001002400000FFF8FFFFF6FE08ED00E05F
:1051400010B500F089FD0121880700F024F840B176
:105150000121880700F01CF8FFF7DAFE0248FCF78F
:105160003FF800F089FD10BDF01C002010B500F0E4
:1051700073FD0121054800F00EF818B10121034824
:1051800000F006F800F078FD10BD000000040040BB
:10519000CA430282704730B5024600200023002433
:1051A000158A05EA0103958905EA010413B10CB1DA
:1051B000012000E0002030BD70B5002500240E4E17
:1051C0000E4890F82400012814D100200B4981F8E2
:1051D000240001210A48FBF735FA0848FDF742FE92
:1051E00004460648324641682046FEF75FFB04B29B
:1051F00002484460284670BDCDCC4C3E10220020B1
:105200000024014010B500F027FD40F22551074869
:1052100000F010F838B1054800F036F8C4B2214665
:10522000034800F040F800F027FD10BD00440040A6
:10523000F01C002070B50246002400230025002049
:1052400040F66A16B14200D100BFC1F3421501F029
:105250001F03012606FA03F3012D02D1968933407C
:1052600006E0022D02D1168A334001E0968A3340CF
:105270000C12012606FA04F41688344013B10CB15E
:10528000012000E0002070BD01468888C0F30800BE
:10529000704710B500F0E0FCFCF738FB00F0ECFCC8
:1052A00010BD00BFFEE78288642A0CDA838800F113
:1052B0006C02D154012280F8D020002280F8D22044
:1052C0008288521C828070472DE9FC4105460C46BD
:1052D0000027FF26002000900190E879A97940EA94
:1052E0000120ADF806000CB9122626E0012C01D1F0
:1052F000172622E0022C01D114261EE0032C01D136
:1053000013261AE0042C01D1162616E0052C01D133
:10531000152612E0062C01D119260EE0072C01D12A
:1053200018260AE0082C01D11A2606E0092C01D122
:105330001B2602E00A2C00D11C261C2E07DCBDF81F
:105340000610044A02EBC600FFF72DFE074638465A
:10535000BDE8FC81481E00202DE9FC4106460C46B4
:105360000027FF25002000900190F079B17940EAF4
:105370000120ADF806000CB91D2502E0012C00D17A
:105380001E251E2D07DCBDF80610114A02EBC500D4
:10539000FFF709FE074674B90D4800EBC500807899
:1053A0000C4981F86A01084690F86A0101280BD17E
:1053B00081F8680108E0012C06D1054800EBC50022
:1053C0008078044981F86B013846BDE8FC81000013
:1053D000481E0020782000202DE9FC4104460F469D
:1053E000002500260020009001906079217940EA94
:1053F0000120ADF80000E079A17940EA0120ADF884
:105400000200BDF800101248FFF7CDFD0646012E40
:1054100000D10125BDF802100D480838FFF7C3FD83
:105420000646012E00D1012575B90948A038B0F80B
:10543000A20000B20749A1F854010548A038B0F80D
:105440009A0000B2A1F856012846BDE8FC81000090
:10545000E81E0020782000202DE9FC4104460F467C
:10546000002500260020009001906079217940EA13
:105470000120ADF80000E079A17940EA0120ADF803
:105480000200BDF800101248FFF78DFD0646012E00
:1054900000D10125BDF802100D480838FFF783FD43
:1054A0000646012E00D1012575B90948B038B0F87B
:1054B000B20000B20749A1F858010548B038B0F869
:1054C000AA0000B2A1F85A012846BDE8FC810000FC
:1054D000F81E0020782000202DE9FC4104460F46EC
:1054E000002500260020009001906079217940EA93
:1054F0000120ADF80000E079A17940EA0120ADF883
:105500000200BDF800101248FFF74DFD0646012EBF
:1055100000D10125BDF802100D480838FFF743FD02
:105520000646012E00D1012575B90948C838B0F8E2
:10553000CA0000B20749A1F85E010548C838B0F8B2
:10554000C20000B2A1F860012846BDE8FC8100005D
:10555000101F002078200020024600207047000025
:105560007CB504460E460025002000900190E078AE
:10557000ADF80000BDF800100248FFF714FD054625
:1055800028467CBD901E00202DE9FC470446894634
:1055900000260027B0460025002000900190E0780A
:1055A000ADF800002079ADF802006079ADF8040094
:1055B000E079A17940EA0120ADF80600BDF80010BD
:1055C0002048FFF7F0FC0746012F00D10126BDF867
:1055D00002101C483838FFF7E6FC8046B8F1010F8E
:1055E00000D10126BDF8041016482838FFF7DBFC6F
:1055F0000546012D00D10126BDF8061011482038BE
:10560000FFF7D1FC0546012D00D10126BDB90D489B
:105610007838B0F8520000040B49C1F81001084670
:10562000D0F8100107497839B1F85A1008430649F3
:10563000C1F810010846D0F81001C1F81401304635
:10564000BDE8FC87C01E0020501F0020024600203D
:10565000704700007CB504460E46002500200090EF
:105660000190E079ADF80600BDF806100248FFF79A
:105670009AFC054628467CBD901E00201CB50246BB
:1056800000200023009301935379147943EA042303
:10569000ADF80430D379947943EA0423ADF80630A9
:1056A0001F2900DA00E0012028B9BDF80630024CBD
:1056B00004EBC10463801CBD481E0020014609B9EB
:1056C00000207047C8B220B1C8B20E4A105C401C1E
:1056D000F7E701F47F4028B10A48C1F30722805C54
:1056E0000930EEE701F47F0028B10648C1F3074214
:1056F000805C1130E5E7034800EB11600078193059
:10570000DFE700007E6B000802E008C8121F08C136
:10571000002AFAD170477047002001E001C1121F32
:10572000002AFBD1704700002DE9FC5F04468B4640
:1057300015461E46DDE90C9ADDE90E7804F11400E9
:105740004060006000BF1C346560A660C4F80C9027
:10575000C4F810A02321D4E9030200F0EDFBD4E942
:10576000033C63441A1F0F4BD4E9010100F04EFAC9
:105770002060A77667760020E061C4F82080C4F836
:105780002480606120766065A0651C3C0090234603
:10579000054A2146019004F1440001F08CF80020F4
:1057A000BDE8FC9F9D640008C96600082DE9F0472C
:1057B00004460E4617469846DDF8209084F8099076
:1057C000607A20F001006072E66127620020A0622A
:1057D000C4F82480002506E004F1140101EBC500A3
:1057E00000F0A9FA6D1C012DF6DBBDE8F08770B55D
:1057F0000546002406E005F1140101EBC40000F0A9
:10580000DBFA641C012CF6DB70BD70B50446FAF7B8
:1058100089FC0546206F10B12046216F8847284635
:10582000FAF784FC70BD000008B501210820FEF7DE
:1058300077FF4FF44060ADF8000003208DF80200C0
:1058400014208DF8030069460148FDF76BFA08BD86
:10585000000C0140002001E0411CC8B21428FBDB11
:10586000704710B504460020A16888470120616890
:105870008847FFF7EFFF0120A168884710BD0000AF
:105880001FB5052000218022214BCDE90032CDE952
:1058900002100B461F4A20A1214800F07DFE20483F
:1058A00000F0DAFE0520042180221E4BCDE90032F3
:1058B000CDE9021000231C4A1CA11E4800F06CFE1A
:1058C0001C4800F0C9FE052001214A021A4BCDE90F
:1058D0000032CDE902100023184A19A11A4800F03D
:1058E0005BFE194800F0B8FE05204FF40072174B1C
:1058F000CDE90120009303900023154A15A1174814
:1059000000F04AFE154800F0A7FE002004B010BDCC
:10591000600700209936000877646F670000000078
:1059200080050020E0070020ED4E00085357537912
:1059300073540000F805002060080020414F000863
:10594000535731306D73000070060020600A00204C
:105950000B270008436F6D6D4D6F6E00E806002049
:1059600010B5044600F064F8FFF78AFF10BD000090
:1059700030B51A4C436824681919884215D04B88F1
:105980009BB9174B1B6899420FD0164B1B688B4273
:1059900001D1144B18604B684360104B1B68C31A4D
:1059A0000E4D4C682D682C44A3600C4C8368246811
:1059B0001A19824211D053887BB90A4B1B68834263
:1059C00001D1084B1A6043685360044B1B68D31A1B
:1059D000024D44682D682C44A36030BD4000002077
:1059E00044000020480000201CB5142002210B02B6
:1059F0000022CDE90010044904A000F020FD044677
:105A0000204600F029FE1CBD615900086D61696ED9
:105A10000000000010B5044C02E020688047241DFF
:105A200002488442F9D310BDA46C0008A86C000899
:105A300010B5044C02E020688047241D02488442CF
:105A4000F9D310BDA86C0008AC6C000810B5FAF7CB
:105A500069FB044604480088401C00B202490880E3
:105A60002046FAF763FB10BD9C00002010B5FAF742
:105A700059FB04460C480088401E00B20A490880C1
:105A80000846B0F9000000280ADC00200880204603
:105A9000FAF74CFB0548006828B100F005FB02E06E
:105AA0002046FAF743FB10BD9C000020A000002018
:105AB00070B5054605B970BD16480068854203D328
:105AC00015480068854200D3F5E7A5F10C044FF0B6
:105AD000FF31124800F0B8FB002060804FF4F55011
