:020000040800F2
:10000000F023002005010008C93A0008CD010008CE
:10001000D1310008010F00085B4700080000000014
:100020000000000000000000000000008F410008F8
:100030009F220008000000005701000899430008B3
:100040001F0100081F0100081F0100081F01000810
:100050001F0100081F0100081F0100081F01000800
:100060001F0100081F010008C92300081F01000824
:100070001F0100081F0100081F0100081F010008E0
:100080001F0100081F010008850400081F01000867
:100090004B4700081F0100081F0100081F0100084E
:1000A0001F0100081F0100081F0100081F010008B0
:1000B00009440008354400081F0100081F0100081A
:1000C0001F0100081F0100081F0100081F01000890
:1000D0001F0100081F010008814500081F010008DA
:1000E0001F0100081F0100081F010008DFF810D0E1
:1000F00000F0B0F90048004779040008AFF3008031
:10010000F02300200648804706480047FEE7FEE748
:10011000FEE7FEE7FEE7FEE7FEE7FEE7FEE7FEE7B7
:10012000A9430008ED000008EFF3108072B6704795
:1001300080F310887047324A1368012B04D04FF0C7
:10014000010313602F4A10602F4A11602F484FF0AF
:10015000805101607047EFF3108272B62848016841
:1001600091B14FF0000101602648016829B1EFF319
:10017000098121E9F00F00680160234909680968D5
:10018000B1E8F00F81F3098882F310884EF0040E75
:1001900070471D4908601B494FF00000086018496E
:1001A0004FF0010008601A481A49D0F8002041EACF
:1001B0000201016015484FF0805101601648006847
:1001C000006880F3088861B662B670471EF0040FBD
:1001D0000CBFEFF30880EFF3098020E9F00F40F83F
:1001E00004ED1EF0040F0CBF80F3088880F309882B
:1001F00000B504F029FF5DF804EB4EF0040E7047E3
:10020000DC000020D4000020D800002004ED00E035
:1002100020ED00E00000FFFF08ED00E010B5431AFC
:10022000934209D28318881803E010F8011D03F8DF
:10023000011D521EF9D210BD40EA01039B0703D0F5
:1002400009E008C9121F08C0042AFAD203E011F815
:10025000013B00F8013B521EF9D210BDF0B480EA18
:100260000102D40F4200B2EB410F02D2024608460F
:1002700011464A0042D0C30DDDB2C1F3C752AD1AD8
:10028000202D35DAC1F3160141F4000204B15242C7
:10029000C5F1200602FA06F12A411044B3EBD05F03
:1002A00023D0C4B1012DA0EBC35009DCF0BC4FF04A
:1002B000004202EAC352DBB200F5000000F09CB835
:1002C000400000F1807000EBC350A0F1807040EA64
:1002D000D170490009E0490841EAC071A0EBC35060
:1002E00000F50000400800EBC350F0BC00F07BB804
:1002F0006142012202EB4101001BF6E7F0BC7047AE
:1003000081F00041AAE780F00040A7E780EA0102FF
:1003100010B502F00043400022D04A001FD0010E69
:1003200001EB1261C0F35600C2F3560240F4000024
:1003300042F40002A0FB022000047F39140400D024
:10034000401C50EA124001D44000491EC2B20C06C3
:1003500004EBD010401C4008802A02D003E00020AB
:1003600010BD20F00100002900DA0020184310BD64
:10037000C10F80EAE0700844CA079623002100F00C
:100380003BB896230022114600F036B800F0004238
:1003900020F00040C10DC0F3160040F400007F299A
:1003A00001DA00207047962903DCC1F19601C840AC
:1003B00001E096398840002AF4D04042704720F08E
:1003C0000040C10DC0F3160040F400007F2901DA9F
:1003D00000207047962903DCC1F19601C8407047A0
:1003E0009639884070470029A8BF7047401C4900D3
:1003F00008BF20F00100704710B4B0FA80FC00FA8A
:100400000CF050EA010404BF10BC704749B1CCF1B4
:10041000200421FA04F411FA0CF118BF0121214340
:100420000843A3EB0C01CB1D4FEA00614FEA1020FB
:1004300042BF002010BC704700EBC350104400299D
:10044000A4BF10BC7047401C490008BF20F0010049
:1004500010BC7047064C074D06E0E06840F0010311
:1004600094E8070098471034AC42F6D3FFF742FEF9
:10047000A4600008C460000810B505F0F9FC002075
:1004800010BD000010B504F017FE4FF408710A48C3
:1004900000F01FF8012807D1074800F016F80749B7
:1004A0000880012081F824004FF40871024800F010
:1004B00007F804F011FE10BD00240140B81D002013
:1004C00000220A12D343036070470146C86C80B211
:1004D000704770B502460020002300240B125568B7
:1004E000CEB205EA060415681D4015B10CB1012015
:1004F00000E0002070BD21B1826842F4A002826059
:1005000003E0826822F4A0028260704701884FF6FF
:10051000FF72914202DA0188491C0180704701682C
:10052000491C11B10168491C016070470178FF291D
:1005300002DA0178491C0170704770B504460D4617
:100540000026A07C09287ED2DFE800F005425ED2BA
:10055000DDDEDFE0E100022D01D0202D0CD194F88A
:100560008201012801DB0220A07494F88301012894
:100570002DDB0220A0742AE0212D03D0222D01D0F2
:10058000232D24D194F88801012810DB002084F861
:10059000820184F8880184F8890184F88A0184F84A
:1005A0008B0184F88C0184F88D010120A074222D28
:1005B00001D0232D0BD104F5C670FFF7B7FF94F8D7
:1005C0008C01B4F96211884201DB0620A074A2E01C
:1005D00004F5C670FFF7AAFF94F88C01B4F9641112
:1005E000884210DB002084F8820184F8880184F8B6
:1005F000890184F88A0184F88B0184F88C0184F8DD
:100600008D010220A07486E0022D0BD194F88201A6
:10061000012801DB0820A07494F88301012801DB84
:100620000820A074202D05D194F88201022801DB56
:100630000320A074222D03D0232D01D0292D10D109
:1006400094F86A0100E063E001280AD1A0690088FB
:10065000A0F5005006B2B4F96001B04201DD0620F9
:10066000A074212D05D0232D03D0282D01D0292DB4
:1006700015D194F86A01022807D1A0690068B0F585
:100680007A5F0CD30420A07409E094F86A01012871
:1006900005D194F88A01012801DB0420A074272DDC
:1006A00003D0282D01D0292D21D194F88B010128C8
:1006B00002DB012084F88D0194F88D01012816DBFE
:1006C00004F5C670FFF732FF94F86A0101280ED1D5
:1006D00094F88C01B4F96611884205DD002084F895
:1006E0008C010520A07402E0002084F88D0112E046
:1006F00094F88401032805DC94F88601022801DBC4
:100700000820A07407E006E005E004E003E002E052
:100710000020A07400BF00BFA07C70BD10B50024F5
:1007200000225021024802F0ABF8C4B2204610BDAE
:100730000058004070B50026002400251048C078FD
:100740000F49897840EA0125AC1300BF6CB9C5F3A5
:100750000D0500210A4880F82910C56101462022B4
:100760008869294603F0D0FD07E0022C05D0032C50
:1007700003D10121024880F82910304670BD0000E5
:10078000201C00202DE9F0470024A0460025A146AA
:1007900000260027FE4890F82C01401E00F0FF08BC
:1007A000FB4890F86801012802D1FA48FFF7BEFE25
:1007B000F74890F86901032805DB0020F44981F827
:1007C000690181F86801F24890F88E0109287CD20D
:1007D000DFE800F0053AB7FDFCFBFAF9F80000206D
:1007E000EB49C1F8440100240CE0E948806950F865
:1007F0002400E749D1F844110844E549C1F844010F
:10080000601C44B24445F0DBE148D0F8440190FB61
:10081000F8F000B2DE49A1F84801DF48B0F84A001C
:1008200088B1002088740021D948C1740020D849BB
:1008300081F86801022081F86A010020A1F8920184
:10084000012081F88E017FE20020D149C1F84C01DE
:10085000002422E0CE48806930F8240006B2CC485B
:10086000B0F94871F01B0FFA80F9C948B0F952018C
:10087000484505DBC648B0F95201404248450ADD0B
:10088000C348806950F82400C149D1F84C1108448C
:10089000BF49C1F84C01601C44B2202CDAD3BC48DB
:1008A000D0F84C01400900B2B949A1F85001BA484A
:1008B000B0F84A00022804D0B748B0F84A0020280F
:1008C00018D1B348B0F9506100E038E2B0F948718E
:1008D000F01B0FFA80F9AE48B0F95201484505DB2C
:1008E000AB48B0F952014042484503DD0220A84917
:1008F00081F88E01A848B0F84A00212809D0A648FE
:10090000B0F84A00222804D0A348B0F84A002328AF
:1009100008D19F48B0F848019D49A1F85001022034
:1009200081F88E019C48B0F84A0048B900209849E7
:1009300081F8680181F86A01A1F8920181F88E01BD
:1009400002E20020924981F86C0181F86D0181F882
:100950006E0181F86F0181F8700181F8710181F8F1
:10096000720181F8730181F8740181F8750181F8D1
:10097000760181F8770181F8780181F8790181F8B1
:100980007A0181F87B018448B0F8920000B2A1F8A6
:1009900052018148B0F8A20000B2A1F854017E488B
:1009A000B0F89A0000B2A1F856017B48B0F8B20046
:1009B00000B2A1F858017848B0F8AA0000B2A1F836
:1009C0005A0105E0AEE1A0E192E18CE186E178E137
:1009D0007148B0F8BA0000B2A1F85C016E48B0F8F6
:1009E000CA0000B2A1F85E016B48B0F8C20000B2C4
:1009F000A1F860016848B0F8D20000B2A1F8620125
:100A00006548B0F8DA0000B2A1F864016248B0F8B5
:100A1000E20000B2A1F866014FFA88F441E05C48B8
:100A20008069008806B25A48806930F8240007B20D
:100A3000F01B05B25648B0F95401A84204DA5548F3
:100A40000930FFF773FD09E05148B0F95401404205
:100A5000A84203DD4F480A30FFF768FD4C48816922
:100A6000601E31F8200006B24948806930F8240041
:100A700007B2F01B05B24648B0F95601A84204DAA5
:100A800044480B30FFF752FD09E04148B0F95601E8
:100A90004042A84203DD3F480C30FFF747FD601E8F
:100AA00044B2002CBBDC4FFA88F44AE03848816934
:100AB000601F31F8200006B23548806930F8240004
:100AC00007B2F01B05B23248B0F95201A84204DC6B
:100AD00030480F30FFF72AFD03E000202C4981F851
:100AE00078012B48B0F95E01B0F5005F04D32848C7
:100AF000808B0FFA80F900E0A9462548B0F95E0125
:100B0000484504DC23481130FFF710FD03E00020C6
:100B10001F4981F87A011E48B0F95C014042A842A1
:100B200004DC1B48B0F95C01A84204DA1948123011
:100B3000FFF7FCFC03E00020154981F87B01601EF3
:100B400044B2052CB2DA4FFA88F41DE010488169EE
:100B5000A4F10A0031F8200006B20D48806930F88F
:100B6000240007B2F01B05B20948B0F95A01A842A7
:100B700008DC0748B0F95801A84203DB05480D30EE
:100B8000FFF7D4FC601E44B20A2CDFDA004805E00F
:100B9000201C0020891D0020F019002090F87211FF
:100BA000022200F5C17000F0F5F8694890F8731161
:100BB000022200F2831000F0EDF8654890F87411FD
:100BC00000F5C27000F0C8F8614890F8751100F2A5
:100BD000851000F0C1F85E4890F8761100F5C370FA
:100BE00000F0BAF85A4890F8771100F2871000F038
:100BF000B3F8574890F87811032200F5C47000F05C
:100C0000C9F8534890F87A11032200F5C57000F036
:100C1000C1F84F4890F87B11032200F28B1000F0CE
:100C2000B9F84C4890F84A104948FFF786FC484804
:100C3000807C042807D103204549A1F892010620B1
:100C400081F88E012EE04248807C052807D10820DB
:100C50003F49A1F89201072081F88E0122E03C482B
:100C6000807C062807D104203949A1F89201072089
:100C700081F88E0116E03648807C072807D10520D0
:100C80003349A1F89201062081F88E010AE030482C
:100C9000807C082806D101202D49A1F8920103206B
:100CA00081F88E012B48B0F84A0048B90020284945
:100CB00081F8680181F86A01A1F8920181F88E013A
:100CC00042E02448B0F84A0038B90020204981F8B1
:100CD0006801A1F8920181F88E0135E000201C49DD
:100CE00081F88E0130E00020194981F88E012BE057
:100CF0001848B0F84A0038B90020154981F86A014F
:100D0000A1F8920181F88E011EE01248B0F84A0065
:100D100038B900200E4981F86A01A1F8920181F8E2
:100D20008E0111E00B48B0F84A0038B9002008499C
:100D300081F86A01A1F8920181F88E0104E0002097
:100D4000034981F88E0100BF00BFBDE8F0870000B5
:100D5000201C0020F0190020024600201A2902DB86
:100D60000523137015E0142902DB0423137010E02F
:100D70000D2902DB032313700BE0062902DB02239B
:100D8000137006E0032902DB0123137001E0002346
:100D9000137070472DE9F04104460D4616460027B2
:100DA000B54203DB2046FFF7C1FB01E000202070C5
:100DB0003846BDE8F081000038B500240220002349
:100DC000044A50210090044801F07EFFC4B220463E
:100DD00038BD0000221C00200058004010B501243E
:100DE00024480078052841D2DFE800F0030B1638CC
:100DF0003C00214890F8290010B901201D490870D5
:100E000035E01D4890F8290028B9FFF787FC044613
:100E10000220184908702AE0174890F82800022894
:100E200013D1FFF7C9FF0446012C06D00121124857
:100E300080F82A1080F82C1003E000210E4880F87A
:100E40002A10FFF777FCFFF79DFC0B4890F82A006B
:100E5000012802D103200749087008E00420054951
:100E6000087004E000200349087000E000BF00BFE4
:100E700010BD0000201C0020E400002010B5024638
:100E80000B460020002100BF04E0002442F821406E
:100E90004C1CE1B29942F8DB10BD0146084690F8BF
:100EA000D020012A09D190F8D220FA2A08DA90F845
:100EB000D220521C80F8D22002E0002280F8D220FA
:100EC000B0F8D420FA2A04DAB0F8D420521CA0F8E2
:100ED000D420B0F8DC204FF6FA739A4204DAB0F866
:100EE000DC20521CA0F8DC20B0F8D8204FF6FA73B2
:100EF0009A4204DAB0F8D820521CA0F8D8207047E3
:100F000000BFFEE770B504460D462946204600F0B6
:100F100090F92946204600F0A1F870BD10B50446AE
:100F20000B48844209D10121480602F09DFE0021B0
:100F30004FF0007002F098FE08E00121880602F0F0
:100F400093FE00214FF0806002F08EFE10BD000085
:100F50000064004010B50021837A012202FA03F1F7
:100F60003D4A126842F001023B4B1A603A4A1C3279
:100F700012688A43384B1C331A60027BCAB9364A5E
:100F80000C3212688A43344B0C331A604288C3888F
:100F900042EA0343304A4032847A42F834300288CD
:100FA000838842EA03432C4A4032847A02EBC4022B
:100FB0005360027B012A19D1274A0C3212680A4376
:100FC000254B0C331A604288038842EA0343224AC5
:100FD0004032847A42F83430C288838842EA03433C
:100FE0001D4A4032847A02EBC4025360C27A3AB995
:100FF000194A121D12688A43174B1B1D1A6006E01E
:10100000154A121D12680A43134B1B1D1A600289F0
:1010100032B9114A143212688A430F4B14331A60E2
:101020000289012A06D10C4A143212680A430A4B7B
:1010300014331A60427B012A06D1074A1C32126817
:101040000A43054B1C331A60034A126822F001025E
:10105000014B1A6010BD0000006600407FB50546D8
:101060000C4600208DF80A0001208DF80B000020AE
:101070008DF80C0020884005000CADF80000A08819
:101080004005000CADF80200E0884005000CADF80A
:10109000040060894005000CADF806000020ADF8A2
:1010A000080001208DF80D0001220221284600F0E1
:1010B0002DF86846FFF74EFF7FBD000008B50121FF
:1010C000480602F0C1FD0121052002F0DDFD4FF4CC
:1010D0008050ADF8000018208DF8030003208DF833
:1010E00002006946084801F0FDFA4FF40060ADF8CF
:1010F000000048208DF8030003208DF802006946A7
:10110000014801F0EFFA08BD000801401AB1436937
:101110000B43436102E043698B434361704730B541
:10112000024600200023146824F0020414601468AE
:1011300044F00104146000E05B1C546804F00104F6
:101140001CB94FF6FF74A342F6D1546804F00104B1
:101150000CB900206CE08C79012C04D1146844F0A7
:101160008004146003E0146824F080041460CC79D7
:10117000012C04D1146844F04004146003E01468A6
:1011800024F0400414600C7A012C04D1146844F05B
:101190002004146003E0146824F0200414604C7AE6
:1011A000012C04D1146844F01004146003E01468A6
:1011B00024F0100414608C7A012C04D1146844F0DB
:1011C0000804146003E0146824F008041460CC7A66
:1011D000012C04D1146844F00404146003E0146882
:1011E00024F0040414608C78A407CD7844EA0564E4
:1011F0000D7944EA05444D7944EA05540D886D1E85
:101200002C43D461146824F001041460002300E02E
:101210005B1C546804F001041CB14FF6FF74A34238
:10122000F6D1546804F001040CB1002000E0012064
:1012300030BD3EB505460C462846FFF76FFE6846B2
:1012400000F030F900208DF8060001208DF807002D
:101250008DF8080000208DF809008DF80A008DF83F
:101260000B008DF80200A08960B901208DF8030001
:1012700007208DF8040002208DF805000320ADF84A
:1012800000001AE0A08901280BD102208DF803008C
:101290000B208DF8040004208DF80500ADF8000047
:1012A0000BE001208DF8030007208DF804000220D8
:1012B0008DF805000320ADF8000069462846FFF7C9
:1012C0002EFF3EBD2DE9F0414FF00008002400271D
:1012D00000262548007800F0070606F1C904C92C4D
:1012E00001D3D02C00D9C92406F16505652D01D3A1
:1012F0006C2D00D965251D48C58000201B494881FB
:101300001948007800F008060EB9002702E0082E00
:1013100000D1012715480088A04203D113488089D5
:10132000B8421DD0002202211148FFF7EFFE00F065
:1013300037F80E484C3002F060FC0C48878104807E
:1013400040F2FE700949888001F1240001F046FE58
:1013500000F010F8FFF7B2FE04490548FFF7D2FD90
:101360004046BDE8F08100002C000020001800205D
:101370000064004008B54FF4C06002F0DFFB1420A9
:101380008DF8000000208DF8010003208DF8020088
:1013900001208DF80300684602F098FB08BD0000AC
:1013A00010B508220249A1F10C0002F02DFC10BD7D
:1013B0005818002010B500F5D87303EB01131B6813
:1013C00003F004031372137A53B900F5D87303EBD7
:1013D00001131B6840F2FF7404EA5353136009E0E1
:1013E00000F5D87303EB01131B686FF0604404EA47
:1013F000D303536000F5D87303EB01131B6803F0AC
:101400000203537200F5D87303EB01135B6803F01A
:101410000F03937200F5D87303EB01135B681B0A8B
:10142000D37400F5D87303EB01139B68D37200F5F6
:10143000D87303EB01139B681C0A147300F5D8736F
:1014400003EB01139B681C0C547300F5D87303EB7A
:1014500001139B681B0E937300F5D87303EB011304
:10146000DB68D37300F5D87303EB0113DB681C0A48
:10147000147400F5D87303EB0113DB681C0C54746F
:1014800000F5D87303EB0113DB681B0E937421B9CD
:10149000C36843F02003C36003E0036943F0200303
:1014A000036110BD00218171C171017241728172AD
:1014B000C1728170C170032101710221417101214A
:1014C0000180704710B502460020936803F08063E6
:1014D000B3F1806F00D110E0936803F00063B3F1C3
:1014E000006F01D1012008E0936803F08053B3F14D
:1014F000805F01D1022000E00420042874D002F5AE
:10150000C07303EB00131B6803F0010402F5C07302
:1015100003EB00131C600B7A7BB94B7A0C8843EA0F
:10152000445302F5C07404EB00142468234302F50D
:10153000C07404EB0014236010E00B7A4C6843EA9B
:10154000C4034C7A234302F5C07404EB00142468EE
:10155000234302F5C07404EB001423608B7A03F07C
:101560000F038B7202F5C07303EB00135B6823F06B
:101570000F0402F5C07303EB00135C6002F5C07347
:1015800003EB00135B688C7A234302F5C07404EB11
:10159000001463608B7B1C064B7B44EA03440B7B8B
:1015A00044EA0323CC7A234302F5C07404EB00140D
:1015B000A3608B7C1C064B7C44EA03440B7C44EA0E
:1015C0000323CC7B234302F5C07404EB0014E360D7
:1015D00002F5C07303EB00131B6843F0010402F52E
:1015E000C07303EB00131C6010BD00002DE9F04335
:1015F00085B0002500270026A846A94600246A4693
:1016000000212B48FFF7D6FE2A4909880098884216
:101610000CD19DF8080048B99DF80A00082805D1AA
:1016200001260120234981F8390033E021498988C6
:10163000009888420DD19DF8080050B99DF80A0025
:10164000082806D14FF0010801201A4981F83A0014
:1016500020E0184949890098884204D015494989F1
:101660000098884216D19DF8080098B99DF80A00A4
:1016700008280FD102F05CFE04465CB10420207003
:1016800008220DF10B01A01CFEF7C8FD0021204629
:1016900002F058FE012E06D10DF10B0105484C3029
:1016A00002F056FA8146284605B0BDE8F0830000F6
:1016B000006400400018002070B500250124234874
:1016C00090F8380020B1012807D0022836D11AE05E
:1016D00001201E4981F8380035E01C492F3101F105
:1016E0001D0002F062FAC5B23DB901F0A3FE044646
:1016F0000020164981F8390088871CB90220134957
:1017000081F838001FE011483C30FEF7FFFE02F080
:10171000E5F804462CB1042C03D10C490C48FFF722
:10172000F1FB052C05D10948808F40F22621884223
:1017300003D90120054981F8380004E0002003495D
:1017400081F8380000BF00BF70BD00000018002005
:10175000006400402DE9F84F4FF000080026B14624
:10176000B246B346002700240025002000905348CD
:10177000C07800F04009B9F1000F04D04F4826307E
:10178000FEF7C4FE03E04D482830FEF7BFFE4B488D
:101790002C30FEF7C4FE0020484981F8240081F86F
:1017A000220081F823000846C07800F0080ABAF148
:1017B000000F04D0012081F8220081F824003F4866
:1017C000C07800F0040BBBF1000F05D001203B49AD
:1017D00081F8230081F82400384890F8240001287B
:1017E00069D1364890F81901012807D10220334900
:1017F00081F819010020C8840885C8622F48417902
:10180000007941EA002424042C48C179807941EA16
:101810000020044324F070442848417A007A41EAC9
:1018200000252D042548C17A807A41EA002005432D
:1018300025F070450021214880F84510846380F828
:101840005D10056590F81E01012801D12F4600E0CA
:1018500027461B4800901948C16B3846009A01F092
:101860006BFC1649C8630846C76BC08C91F81A1107
:10187000884203DD1348B0F84A0000B900270F4939
:101880001022486B394602F03FFD01200B4981F8D8
:10189000E00000260AE00948406B50F8260018B91D
:1018A0000020064981F8E000701CC6B2034890F899
:1018B000E100B042EFDC4046BDE8F88FF81A0020A6
:1018C000CDCC4C3FF019002000200021084AB2F88E
:1018D00042204FF6FF7303EAC221064AB2F80C21F8
:1018E0008A4203D0034AA2F80C110120704700007D
:1018F000F0190020F81A00200020084991F818215A
:101900000749B1F87A108A4206D0054991F87A1051
:10191000024A82F81811012070470000F81A0020CE
:10192000F019002000200A4991F81E11012904D164
:1019300045F2016207494A8603E041F20152054936
:101940004A860449498E024AA2F8081170470000ED
:10195000F81A0020F01900200020084991F81E1103
:10196000012905D10021054A82F81E11012004E059
:101970000121024A82F81E1101207047F81A002046
:101980001CB50024002001906648B0F8FE0000124B
:101990008DF80400634890F8FE008DF8050061485A
:1019A00090F81E0148B90220082301AA5421009092
:1019B0005D4801F00FFAC4B208E00220092301AA31
:1019C00054210090584801F005FAC4B25548B0F8C7
:1019D000020100128DF80400524890F802018DF8BF
:1019E0000500504890F81E0148B90220102301AAB2
:1019F000542100904C4801F0EDF9C4B208E00220F7
:101A0000112301AA54210090474801F0E3F9C4B220
:101A10004448B0F8040100128DF80400414890F8E1
:101A200004018DF805003F4890F81E0148B90220D6
:101A3000142301AA542100903B4801F0CBF9C4B211
:101A400008E00220152301AA54210090364801F035
:101A5000C1F9C4B23348B0F80C0100128DF804008B
:101A6000304890F80C018DF805002E4890F81E01C2
:101A700048B902201E2301AA542100902A4801F0EF
:101A8000A9F9C4B208E002201F2301AA5421009042
:101A9000254801F09FF9C4B22248B0F806010012AF
:101AA0008DF804001F4890F806018DF8050002200B
:101AB000192301AA542100901B4801F08BF9C4B2EC
:101AC0001848B0F80A0100128DF80400154890F883
:101AD0000A018DF8050002201B2301AA5421009061
:101AE000114801F077F9C4B20E48B0F808010012AD
:101AF0008DF804000B4890F808018DF805000220CD
:101B00001A2301AA54210090074801F063F9C4B2D6
:101B10000120044981F819010020C8840885C862A1
:101B200020461CBDF81A0020005800402DE9F04363
:101B300000200021002200230024844600250026E6
:101B40000027DFF8988198F8E13098F8FA4098F883
:101B5000FCC098F82081B8F1070F70D2DFE808F0D8
:101B600004535455B0B1B2004FF00008DFF86C9147
:101B7000A9F82481C84698F82480B8F1010F34D11F
:101B8000C84698F8E080B8F1010F2ED101211AE083
:101B9000DFF84881D8F8348058F82160DFF83C81BC
:101BA000D8F83480D8F80070F51BDFF83081D8F809
:101BB0001081A84503DA02F1010808F0FF0201F1E3
:101BC000010808F0FF019942E2DBA2420DDBDFF8D9
:101BD0000C81D8F83480D8F80080DFF80091C9F87B
:101BE000F4804FF0030889F82081DFF8F480B8F81A
:101BF0004A80B8F1000F05D14FF00008DFF8DC9003
:101C000089F8208166E065E064E04FF00108DFF8C4
:101C1000CC90A9F82481C84698F82480B8F1010F27
:101C20002BD1C84698F8E080B8F1010F25D1C846FD
:101C300098F84580B8F1000F1FD101211BE042E068
:101C4000DFF89880D8F83480D8F80060DFF88C800E
:101C5000D8F8348058F82170F51BDFF88080D8F868
:101C60001081A84503DA02F1010808F0FF0201F132
:101C7000010808F0FF019942E2DBA24205DB4FF0C8
:101C80000008DFF8589089F82081DFF85480B8F810
:101C90004A80B8F1000F05D14FF00008DFF83C9002
:101CA00089F82081DFF8348098F84580B8F1010F79
:101CB00005D14FF00008DFF8249089F8208109E071
:101CC00008E007E006E04FF00008DFF8109089F820
:101CD000208100BF00BFBDE8F0830000F81A00209B
:101CE000F019002038B50024174890F81E01A0B95B
:101CF00002200023144A121D54210090134800F0C2
:101D000009FFC4B2022001230F4A921D5421009002
:101D10000E4800F0FFFEC4B213E0022003460A4A58
:101D2000083254210090094800F0F4FEC4B20220A9
:101D30000323054A0A3254210090044800F0EAFEC9
:101D4000C4B2204638BD0000F81A002000580040F8
:101D500038B5002402201823044A54210090044876
:101D600000F0D8FEC4B2204638BD0000FA1A0020A8
:101D7000005800401CB500240020019080208DF800
:101D8000040000208DF8050002201C2301AA542124
:101D90000090034801F01EF8C4B220461CBD0000AC
:101DA0000058004000207047002000210D4A92F8A2
:101DB00022100D4AB2FBF1F10A4AB2F87A205143DF
:101DC0000A096423B2FBF3F293B2064A53815289A3
:101DD000521C93B2034A53815289044BA3F8FE204C
:101DE00070470000F019002000093D00F81A00209B
:101DF0007CB504460025002001900F48B0F808018A
:101E000000128DF80400012C05D19DF8040040F06B
:101E100020008DF80400084890F808018DF80500AE
:101E200002201A2301AA54210090044800F0D2FF96
:101E3000C5B228467CBD0000F81A002000580040BA
:101E4000002000213B4A92F818210A2392FBF3F26A
:101E5000D0B200EB8002012303EB4201332937D0DB
:101E60000CDC15291CD004DC012910D00B2957D11A
:101E70000EE01F291CD0292952D121E03D292FD065
:101E8000472935D051293BD05B2949D140E000BFDB
:101E90001022284B83F8E1200E2283F81A2146E015
:101EA0001022244B83F8E120062283F81A213EE019
:101EB0000D22204B83F8E120062283F81A2136E018
:101EC0000C221C4B83F8E120062283F81A212EE015
:101ED0000922184B83F8E120062283F81A2126E014
:101EE0000822144B83F8E120062283F81A211EE011
:101EF0000722104B83F8E120052283F81A2116E00F
:101F000006220C4B83F8E120052283F81A210EE00B
:101F10000522084B83F8E120042283F81A2106E009
:101F20000422044B83F8E12083F81A2100BF00BF8C
:101F300070470000F81A00202DE9F0410027012425
:101F4000002500269548007805287DD2DFE800F0BE
:101F5000030E21FDFC000021914880F82810FFF7B6
:101F600009FF044601208D49087014E101218C48C5
:101F700080F82810FFF7D6FCFFF702FD0446012C7D
:101F800003D102208549087002E0032083490870CC
:101F900001E1FFF755FF814890F8200001280DD19D
:101FA00000207E4981F8200081F82100FFF7D0FE53
:101FB0000446FFF797FE0446FFF7CCFBFFF79CFCB7
:101FC0000546012D06D1FFF7EFFE074600207349B5
:101FD00081F81901FFF778FC0646012E06D1FFF7BC
:101FE000E1FE074600206D4981F819016B4890F821
:101FF0001901012808D10020684981F8E000486BE8
:102000001021FEF73BFF13E0644890F81901022805
:102010000ED16448B0F84A0050B900205F4981F8F9
:10202000E000C8840885C862486B1021FEF726FFCF
:10203000FFF77CFD012C0CD00121594880F82910B4
:1020400080F82B10002100E0A1E054488163016575
:1020500003E00021524880F82910504890F82001F0
:10206000032804D101204D4981F81B0103E0002021
:102070004A4981F81B014B48B0F84A0018B90120C1
:10208000464981F81B01454890F81901012804D000
:10209000424890F81C01012803D100203F4981F8F3
:1020A0001B013E4890F81D013C4991F81B118842E4
:1020B0000BD03A4991F81B01FFF79AFE04463748C6
:1020C00090F81B01354981F81D01354890F82B0027
:1020D000012804D0324890F82C00012809D10321AE
:1020E0002F4880F82810002180F82B1080F82C1041
:1020F00003E002212A4880F82810284890F81D01A2
:10210000012803D10020254981F82100234890F8B7
:10211000210003280ADB0020204981F82100FFF775
:102120001BFC074600201D4981F819011B4890F847
:10213000190110B9002019490870194890F82800B1
:10214000032804D1154901E013E001E0087022E002
:1021500002F0C0FE0321124880F8281000F1180197
:10216000114801F0E1FF02F0C5FE04200B490870A0
:1021700011E002F0AFFE0421094880F8281000F0B9
:1021800011FF02F0B7FE00200449087003E00020B0
:102190000249087000BF00BFBDE8F081F81A0020B6
:1021A000E4000020F0190020005800400146002003
:1021B0004222525C22B14222525C012A00D002200B
:1021C0004122525C042A54D04122525C062A50D04B
:1021D0004122525CC92A4CD04122525CCA2A48D0C2
:1021E0004122525CCB2A44D04122525CCC2A40D0BE
:1021F0004122525CCD2A3CD04122525CCE2A38D0BA
:102200004122525CCF2A34D04122525CD02A30D0B5
:102210004122525CD12A2CD04122525CD22A28D0B1
:102220004122525CD32A24D04122525CD42A20D0AD
:102230004122525CD52A1CD04122525CD62A18D0A9
:102240004122525CD72A14D04122525CD82A10D0A5
:102250004122525CFC2A0CD04122525CFD2A08D05B
:102260004122525CFE2A04D04122525CFF2A00D057
:10227000012048647047000010B50121024800F0B9
:10228000BCFA0249887010BD000C014032000020E9
:1022900004E0FFF711FA022003F029FBF9E7704789
:1022A00070B504460D460026012D05D12046FEF7E7
:1022B0003DF90020607004E0601CFEF737F9002053
:1022C000207020780A2801DD0120A07060780A289B
:1022D00001DD0020A070304670BD000070B5002404
:1022E00000254FF48051354800F087FA054629460D
:1022F0003348FFF7D5FF4FF40051304800F07DFA26
:10230000054629462E48C01CFFF7CAFF4FF48041FE
:102310002A4800F072FA054629462948801DFFF731
:10232000BFFF4FF40041254800F067FA05462946F3
:1023300023480930FFF7B4FF2148807830B12148A5
:10234000007820F001001F49087005E01D48007862
:1023500040F001001B4908701948407930B1194814
:10236000007820F002001749087005E01548007851
:1023700040F00200134908701148007A30B111484A
:10238000007820F004000F49087005E00D4800783F
:1023900040F004000B4908700948C07A30B1094880
:1023A000007820F008000749087005E0054800782B
:1023B00040F0080003490870204670BD000C014041
:1023C000081E00202C00002010B502F075FE102021
:1023D00000F014F830B10120044981F820001020E9
:1023E00000F006F802F078FE10BD0000F81A002098
:1023F00001490860704700001404014001460020B4
:102400000022074B1B6803EA0102054B14331B68CB
:102410000B4013B10AB1012000E00020704700001A
:1024200000040140002123498279002A3AD00A465B
:10243000126803689A430B461A600A1D1268036803
:102440009A430B1D1A60027911440A6803681A4303
:102450000A60184A0832126803689A43154B083319
:102460001A601A1D126803689A43124B0C331A60E3
:102470004279102A0ED11A1F126803681A430D4BB5
:1024800008331A601A1D126803681A43094B0C338B
:102490001A600DE00749427911440A6803681A433B
:1024A0000A6005E0027911440A6803689A430A60E9
:1024B000704700000004014008B54FF4C06001F00F
:1024C0003DFB0A208DF8000001208DF80100072057
:1024D0008DF8020001208DF80300684601F0F6FA3D
:1024E00008BD00000EB5FFF7E7FF0121042001F051
:1024F000CBFB0121082001F0C7FB0121102001F0D6
:10250000C3FB4FF40040ADF8080003208DF80A002B
:1025100048208DF80B0002A95F4800F0E3F8012085
:10252000ADF8080003208DF80A0048208DF80B0054
:1025300002A95A4800F0D6F80220ADF8080003209E
:102540008DF80A0010208DF80B0002A9534800F006
:10255000C9F84FF46040ADF8080048208DF80B0032
:1025600002A94F4800F0BEF88020ADF808004820CE
:102570008DF80B0002A9484800F0B4F80820ADF827
:10258000080003208DF80A0010208DF80B0002A926
:10259000424800F0A7F80821404800F037F9102021
:1025A000ADF8080003208DF80A0010208DF80B000C
:1025B00002A93A4800F096F81021384800F026F9B0
:1025C0004020ADF8080003208DF80A0010208DF897
:1025D0000B0002A9304800F085F840212E4800F099
:1025E00017F92020ADF8080003208DF80A0010200C
:1025F0008DF80B0002A9294800F074F82021274823
:1026000000F004F94FF48070ADF8080003208DF855
:102610000A0010208DF80B0002A91F4800F062F894
:102620004FF480711C4800F0F1F80220ADF808006A
:1026300003208DF80A0010208DF80B0002A916481F
:1026400000F050F81020ADF8080048208DF80B007D
:1026500002A9114800F046F80421002000F022F8F9
:102660001020009000208DF804000C208DF805004B
:1026700001208DF806006846FFF7D4FE2020ADF853
:10268000080003208DF80A0010208DF80B0002A925
:10269000014800F027F80EBD00080140000C014081
:1026A0000010014030B500228B071C0F0F2303FAE6
:1026B00004F20B4B8C1053F824309343084C8D10CC
:1026C00044F8253023468C1053F824308C07240F0F
:1026D00000FA04F42343024C8D1044F8253030BD39
:1026E000080001402DE9F0410246002500260020A7
:1026F00000230024002791F803C00CF00F0591F887
:1027000003C00CF0100CBCF1000F03D091F802C014
:102710004CEA050591F800C0BCF1000F31D01468F7
:1027200000202BE04FF0010C0CFA00F3B1F800C0D0
:102730000CEA03069E4220D183004FF00F0C0CFAE6
:1027400003F7BC4305FA03FC4CEA040491F803C008
:10275000BCF1280F06D14FF0010C0CFA00FCC2F8B6
:1027600014C00AE091F803C0BCF1480F05D14FF046
:10277000010C0CFA00FCC2F810C0401C0828D1D390
:102780001460B1F800C0BCF1FF0F34DD54680020C4
:102790002EE000F1080C4FF0010808FA0CF3B1F834
:1027A00000C00CEA03069E4221D183004FF00F0CBB
:1027B0000CFA03F7BC4305FA03FC4CEA040491F855
:1027C00003C0BCF1280F05D100F1080C08FA0CF881
:1027D000C2F8148091F803C0BCF1480F07D100F192
:1027E000080C4FF0010808FA0CF8C2F81080401CE1
:1027F0000828CED35460BDE8F081024600209368DB
:102800000B400BB1012000E0002070474161704790
:1028100001617047002100BF01E000BF491C8142F7
:10282000FBD370473CB50446002060720120009045
:10283000019020886FF0C7035B22094900F0CAFCB1
:10284000054640F2C670854202D00648854202D154
:102850000120607201E00020607228463CBD00004B
:10286000BA5E000822FCFFFF21B1028842F48062B8
:10287000028004E002884FF6FF331A40028070475E
:1028800070B505460C4616464FF400502A490860BC
:1028900009E029490868411E274A116018B9092032
:1028A00000F043FB70BD4FF40031284600F09EF865
:1028B0000028EED10121284600F080F84FF4805026
:1028C0001D49086009E01C490868411E1A4A116048
:1028D00018B90A2000F029FBE4E71849284600F05F
:1028E0002FF80028EFD0E1B23246284600F012FB64
:1028F0004FF480501049086009E00F490868411EF4
:102900000D4A116018B90E2000F00FFBCAE70B4901
:10291000491C284600F014F80028EED00021284673
:10292000FFF7A2FF0121284600F054F801212846B4
:10293000FFF79AFF0120B5E72800002001000300FF
:1029400070B502460024002500230020958A138BD1
:102950001B0445EA030626F07F4404EA01068E4282
:1029600001D1012000E0002070BD21B1028842F0B9
:102970000102028004E002884FF6FE731A400280D2
:102980007047000010B504460B48844209D101216C
:10299000480501F069F900214FF4001001F064F9D5
:1029A00008E00121880501F05FF900214FF4800063
:1029B00001F05AF910BD00000054004021B1028816
:1029C00042F48072028004E002884FF6FF631A40EE
:1029D0000280704721B1028842F40072028004E054
:1029E00002884FF6FF531A40028070470CB502462A
:1029F000002000230193009300920B0F019321F01C
:102A00007F41019B1BB1009B1433009303E0090C31
:102A1000009B18330093009B1B680B400BB10120F7
:102A200000E000200CBD00002DE9F04385B0044615
:102A30000D460026B1460427DFF8CC80A6884FF665
:102A4000C0700640684601F02FF9DDF808802F4875
:102A5000B8FBF0F01FFA80F946EA0906A680208844
:102A60004FF6FE71084020800026294928688842D8
:102A70000CD828684000B8FBF0F087B2042F00DAC9
:102A800004273E4309F10100208427E0E8884BF643
:102A9000FF71884206D1286800EB4000B8FBF0F0D7
:102AA00087B209E0286800EBC00101EB0010B8FB19
:102AB000F0F087B247F48047C7F30B0008B947F03E
:102AC000010747F4004006434FF4967009FB00F0FD
:102AD0004FF47A7190FBF1F0401C2084A68320888B
:102AE00040F00100208026884FF6F5300640A88887
:102AF0006989084306432680A889298908432081DB
:102B000005B0BDE8F083000000127A0040420F00DB
:102B1000A08601002DE9F04180460C4615461F466F
:102B2000069E4FF40050654908600AE06349086852
:102B3000411E624A116020B9092000F0F6F9BDE893
:102B4000F0814FF400314046FFF750FF0028EDD1EF
:102B500001214046FFF732FF4FF48050574908608B
:102B600009E056490868411E544A116018B90A2004
:102B700000F0DBF9E3E752494046FFF7E1FE0028A9
:102B8000EFD0E1B20022404600F0C4F94FF480508B
:102B90004A49086009E049490868411E474A1160EE
:102BA00018B90B2000F0C1F9C9E746494046FFF7C4
:102BB000C7FE0028EFD001214046FFF7D6FE394678
:102BC000404600F0B0F94FF480503C49086009E0FD
:102BD0003A490868411E394A116018B90C2000F0C2
:102BE000A4F9ACE73749891C4046FFF7A9FE002845
:102BF000EED001214046FFF7E1FE4FF480502F490F
:102C0000086009E02D490868411E2C4A116018B976
:102C10000D2000F08AF992E729494046FFF790FE1F
:102C20000028EFD0E1B20122404600F073F94FF4E2
:102C300080502249086009E020490868411E1F4A67
:102C4000116018B90E2000F070F978E71C49491C92
:102C50004046FFF775FE0028EED026E0012E07D192
:102C600000214046FFF700FE01214046FFF7B2FE7B
:102C70004FF400501149086009E010490868411EEE
:102C80000E4A116018B9032000F04FF957E70C49BC
:102C90003F314046FFF754FE0028EED0404600F09A
:102CA00035F928706D1C701E86B2002ED6D1012118
:102CB0004046FFF7D9FD012041E700002800002031
:102CC00001000300820007002DE9F04107460E468F
:102CD00014469846069D4FF400503C4908600AE0AF
:102CE0003A490868411E394A116020B9092000F0AC
:102CF0001CF9BDE8F0814FF400313846FFF776FE4D
:102D00000028EDD101213846FFF758FE4FF48050DE
:102D10002E49086009E02D490868411E2B4A1160C0
:102D200018B90A2000F001F9E3E729493846FFF70E
:102D300007FE0028EFD0F1B20122384600F0EAF891
:102D40004FF480502149086009E020490868411E7D
:102D50001E4A116018B90E2000F0E7F8C9E71C49B7
:102D6000491C3846FFF7ECFD0028EED026E0012D87
:102D700007D100213846FFF777FD01213846FFF7DC
:102D800029FE4FF400501149086009E00F49086816
:102D9000411E0E4A116018B9032000F0C6F8A8E7DA
:102DA0000B493F313846FFF7CBFD0028EED03846BF
:102DB00000F0ACF82070641C681E85B2002DD6D1DE
:102DC00001213846FFF750FD012092E7280000203E
:102DD000010003002DE9F04107460D4614461E464A
:102DE000DDF818804FF40050454908600AE0444976
:102DF0000868411E424A116020B9042000F095F88D
:102E0000BDE8F0814FF400313846FFF7EFFD0028B0
:102E1000EDD101213846FFF7D1FD4FF480503849FC
:102E2000086009E036490868411E354A116018B942
:102E3000052000F07AF8E3E732493846FFF780FDD5
:102E40000028EFD0E9B20022384600F063F84FF4D2
:102E500080502B49086009E029490868411E284A2A
:102E6000116018B9062000F060F8C9E72649384615
:102E7000FFF766FD0028EFD03146384600F053F8E2
:102E80004FF480501E49086009E01D490868411E42
:102E90001B4A116018B9072000F047F8B0E71A493B
:102EA000891C3846FFF74CFD0028EED01AE0217847
:102EB000384600F038F8641C4FF480501049086020
:102EC00009E00F490868411E0D4A116018B9082031
:102ED00000F02BF894E70C49891C3846FFF730FDC9
:102EE0000028EED0B8F10000A8F1010101F0FF08C0
:102EF000DDD101213846FFF76DFD012080E700009C
:102F00002800002001000300820007000146088A13
:102F1000C0B2704712B141F0010102E04FF6FE73FA
:102F200019400182704701827047704708B501213E
:102F3000880500F089FE0121082000F0A5FE4FF46D
:102F40004060ADF8000003208DF802001C208DF8D1
:102F5000030069460148FFF7C5FB08BD000C0140AE
:102F60001FB50020ADF804004BF6FF70ADF8060069
:102F70000A20ADF808004FF48060ADF80A000001A7
:102F8000ADF80C000548009069460548FFF74CFD78
:102F900001210348FFF7E9FC1FBD0000A0860100E6
:102FA0000058004010B50448FFF7ECFCFFF7BEFFE7
:102FB000FFF7D6FF10BD00000058004004E000F00D
:102FC00005F8C82002F093FCF9E700004AF6AA20B1
:102FD00001490860704700000030004000210022D5
:102FE0000260426002728272C27400BF05E0002378
:102FF00000F10B0253544A1CD1B20829F7DB704789
:1030000010B502460B46002103EB4300024C20445E
:103010008078D071084610BD3200002010B5002421
:103020003848B0F84A00152831D013DC102829D0D0
:1030300007DC10B3012824D002282FD003284BD15D
:1030400039E011281FD012281ED013281DD01428B3
:1030500042D11BE0232825D008DC162818D02028D0
:103060001DD021281CD0222836D11AE024281AD0BD
:10307000252819D026282FD117E000202249487092
:103080002FE000BF00BF00BF00BF00BF00BF00BFF8
:103090001E4890F824011C49487022E000BF00BF80
:1030A00000BF00BF00BF00BF00BF194890F89201E9
:1030B0001549487015E01548B0F82401012807D1DA
:1030C0001348B0F89201012802D10F49487002E07C
:1030D00000200D49487004E000210A48A0F84A1079
:1030E00000BF00BF0748B0F84A0030B1064840783A
:1030F00008B1012402E0002400E00024204600F092
:1031000009F810BDF019002030000020F81A002046
:10311000201C002070B504462546012C04D1022154
:103120000448FFF775FB03E002210248FFF76EFB3E
:10313000284670BD000C01402DE9F84F06460C46AC
:10314000154600272046FDF71CF9834629464FF017
:103150007E50FDF7D5F859460090FDF7D7F8814627
:103160003046FDF70EF983462946FDF7CFF8824633
:103170004946FDF773F88046FDF721F907463846C2
:10318000BDE8F88F2DE9F84F06460C461546002796
:103190002046FDF7EDF8834629464FF07E50FDF7B7
:1031A000AFF859460090FDF7B1F881463046FDF77B
:1031B000DFF883462946FDF7A9F882464946FDF720
:1031C0004DF88046FDF7E2F807463846BDE8F88F2F
:1031D00000BFFEE72DE9F04F86B00446154698463D
:1031E000DDF83CC000229346002005900026814671
:1031F00000270023049003900290019000908246E3
:1032000000BF681EC0B20590AA4600BF50460AEB38
:10321000D07ECEF34F0A781C87B2BAF1000FF5DCEE
:10322000BCF1000F0ED10888A04204DA40F2C6704B
:1032300006B0BDE8F08F681E31F81000A04214DD22
:103240003448F5E7109801280CD10888A04201DD28
:103250003048EDE7681E31F81000A04205DA40F270
:10326000C670E5E740F2C670E2E741E00FB1781EB4
:1032700087B205985844C2B2104602EBD07E4FEA9E
:103280006E0231F81260BCF1000F02D10394029675
:1032900001E003960294DDE902E0704527DC01EBD2
:1032A0004200B0F80290BCF1000F03D10194CDF8B8
:1032B000009002E0CDF804900094DDE900E0704554
:1032C00013DBA31BA9EB060000B2049003EB830001
:1032D000400003B2049893FBF0F302EB820040003D
:1032E00004900498184403B207E0934600E0059266
:1032F0000598834501DC002FB8DC00BF1098012839
:1033000003D103EB080003B202E0A8EB030003B211
:1033100018468DE722FCFFFF70B504460D460026D7
:103320000DB1284670BD4220005D012805D1432023
:10333000015D04F12F0001F023FA3046F2E770B589
:1033400004460D4600264320015D284600F016FD88
:10335000304670BD70B504460D4600260DB12846B6
:1033600070BD4220005D012804D1002104F12F002E
:1033700001F04EFA3046F3E770B506460C460025DC
:103380000021204600F042FD284670BD70B504467D
:103390000D4600260DB1284670BD4220005D012873
:1033A00004D1002104F12F0001F072FA3046F3E756
:1033B00070B506460C4600250021204600F04CFD65
:1033C000284670BD70B504460D4600260DB128464E
:1033D00070BD4220005D012804D1002104F12F00BE
:1033E00001F096FA3046F3E770B506460C46002524
:1033F0000021204600F048FD284670BD70B5044607
:103400000D4600260DB1284670BD4220005D012802
:1034100004D1002104F12F0001F0BAFA3046F3E79D
:1034200070B506460C4600250021204600F044FDFC
:10343000284670BD70B50024002600256B4890F822
:103440002F006A4981F84000084690F8301080F853
:10345000411090F8311080F8421090F8321080F846
:103460004310FEF7A3FE0546604890F84100D228BD
:1034700070D017DCCC2848D00CDCC92833D004DC51
:10348000042824D0062871D127E0CA2831D0CB28BF
:10349000F9D134E0CD38052868D2DFE800F03C42AD
:1034A000484E5400D8287ED008DCA0F1D30005286F
:1034B000F2D2DFE800F0555C62696F00FC2878D03A
:1034C000FD287CD0FE286DD0FF28DCD183E0294682
:1034D000464800F003F9064684E02946434800F0D8
:1034E000E1FA06467EE02946404800F0B9F8064673
:1034F00078E029463D4800F0D5F9064672E02946B5
:103500003A4800F081F906466CE02946374800F059
:103510001BF9064666E02946344800F01FF90646C6
:1035200060E02946314800F023F906465AE0294672
:103530002E4800F05DF8064654E029462B4800F07E
:1035400021F906464EE02946284800F06DF8064667
:1035500048E0FFE72946254800F03AF9064641E0F1
:1035600029462248FFF7D8FE06463BE039E02946C7
:103570001E48FFF7EFFE064634E029461B48FFF7DA
:1035800005FF06462EE00EE02946184800F004F933
:10359000064627E029461548FFF714FF064621E0B6
:1035A00007E00CE011E029461048FFF727FF064628
:1035B00018E029460D4800F049F9064612E0294670
:1035C0000A4800F05EF906460CE02946074800F07C
:1035D00097F8064606E02946044800F091F80646AA
:1035E00000E000BF00BF204670BD000000180020B2
:1035F00070B504460D4600260DB1284670BD422028
:10360000005D012804D1FF2104F12F0001F004FA2C
:103610003046F3E770B506460C46002500212046EB
:1036200000F084FC284670BD70B504460D460026A7
:103630000DB1284670BD4220005D012804D1002153
:1036400004F12F0001F0FCF93046F3E770B50646AF
:103650000C4600250021204600F072FC284670BD73
:103660000346002209B1084670471046FCE770B5D2
:1036700006460C4600250021204600F053FC284653
:1036800070BD000070B504460D46002620882061FC
:1036900000216161217661760821A17694F84010BD
:1036A000E1764120015D2177A9786177E978A177FA
:1036B0002979E177697984F82010A97984F82110B3
:1036C000E97984F8221004F110010348FDF7FAFEAD
:1036D0000646304670BD00000064004003460022EC
:1036E00009B1084670471046FCE770B506460C461F
:1036F000002500212046FFF783FC284670BD00000E
:1037000070B504460D4600260DB1284670BD94F8EC
:1037100032000749C8734220005D012805D10846E0
:10372000C17B04F12F0001F005FA3046EEE70000FE
:10373000E81A002070B506460C46002500212046F8
:1037400000F0E2FC284670BD0346002209B108469D
:1037500070471046FCE702460020704703460022EF
:1037600009B1084670471046FCE702460020704742
:103770000346002209B1084670471046FCE702469E
:10378000002070470346002209B1084670471046E2
:10379000FCE702460020704770B504460D4600263F
:1037A0000DB1284670BD4220005D012804D10021E2
:1037B00004F12F0001F02CF93046F3E770B506460E
:1037C0000C4600250021204600F08EFB284670BDE7
:1037D00070B504460D4600260DB1284670BD422046
:1037E000005D012804D1002104F12F0001F08AF9C5
:1037F0003046F3E770B506460C460025002120460A
:1038000000F0B8FB284670BD0346002209B1084607
:1038100070471046FCE7000070B506460C460025D0
:103820000848808FB0F5FA7F06D2074890F8680103
:10383000012801D1052070BD0021204600F0B6FB13
:103840002846F8E700180020201C002070B5044628
:103850000D4600260DB1284670BD4220005D20B9FE
:10386000002104F12F0000F009FC3046F4E770B5A8
:1038700006460C4600250021204600F0B9FB2846EC
:1038800070BD0346002209B1084670471046FCE7A8
:1038900070B506460C4600250021204600F0FAFBD4
:1038A000284670BD70B504460D4600260DB1284669
:1038B00070BD4220005D012804D1002104F12F00D9
:1038C00001F024F93046F3E770B506460C460025B2
:1038D0000021204600F072FB284670BD7CB5012512
:1038E00000240020009001906D4890F84100D228FB
:1038F00070D017DCCC2848D00CDCC92833D004DCCD
:10390000042824D0062871D127E0CA2831D0CB283A
:10391000F9D134E0CD38052868D2DFE800F03C4228
:10392000484E5400D8287ED008DCA0F1D3000528EA
:10393000F2D2DFE800F0555C62696F00FC2878D0B5
:10394000FD287CD0FE286DD0FF28DCD183E06946BD
:103950005348FFF7CAFE044684E06946504800F029
:10396000A8F804467EE069464D48FFF780FE04460D
:1039700078E069464A48FFF7A7FF044672E06946C7
:103980004748FFF749FF04466CE069464448FFF7A3
:10399000E2FE044666E069464148FFF7E6FE04465B
:1039A00060E069463E48FFF7EAFE04465AE0694691
:1039B0003B48FFF72FFE044654E069463848FFF7BE
:1039C000E8FE04464EE069463548FFF73FFE0446F0
:1039D00048E0FFE769463248FFF70CFF044641E044
:1039E00069462F48FFF7ABFC04463BE039E06946E7
:1039F0002B48FFF7C1FC044634E069462848FFF72E
:103A0000D7FC04462EE00EE069462548FFF7D6FEB7
:103A1000044627E069462248FFF7E6FC044621E019
:103A200007E00CE011E069461D48FFF7F9FC044689
:103A300018E069461A48FFF71AFF044612E0694683
:103A40001748FFF725FF04460CE069461448FFF7C6
:103A500071FE044606E069461148FFF76BFE044616
:103A600000E000BF00BF0E48406C012807D00C48A2
:103A7000406C022803D00A48406C032804D108484F
:103A800090F844008DF802002CB969460448FFF70D
:103A9000F9FD054602E0052C00D1052528467CBD30
:103AA000001800200346002209B10846704710465E
:103AB000FCE770B504460D4600264320015D28460C
:103AC00000F0FAFA304670BD7047000070B5002172
:103AD00000230F22C47804B3154C246804F4E06476
:103AE000C4F5E064210AC1F10403CA40447804FA31
:103AF00003F184781440214309010E4C0678A15546
:103B0000047804F01F050124AC4005786D11AD0068
:103B100005F1E025C5F8004109E0047804F01F052F
:103B20000124AC40044D0678761145F8264070BD5E
:103B30000CED00E000E400E080E100E00249014318
:103B4000024A1160704700000000FA050CED00E029
:103B50002DE9F04104460E460027B84600252046D0
:103B600000F05EF88046B8F1000F01D0012719E09F
:103B7000002508E0715DB4F9020005EBC000A26801
:103B80001154681CC5B2082DF4D36088401C00B2E3
:103B90006080B4F90200B4F9041090FBF1F201FB6B
:103BA000120060803846BDE8F08170B502460B46D1
:103BB00000200021B2F90240B2F90050AC4201D11C
:103BC000012019E0002108E0B2F9004001EBC40433
:103BD00095682C5D5C544C1CE1B20829F4D3148820
:103BE000641C24B21480B2F90040B2F9045094FB72
:103BF000F5F605FB1644148070BD01460020002236
:103C00000A804A80CA80704710B50346002000240D
:103C10001C805C8014B29C800024DC80996010BD04
:103C200010B50146002001224B885B1C1AB2B1F985
:103C3000043092FBF3F403FB1422B1F900309342F9
:103C400000D1012010BD000029B1064AD26902430B
:103C5000044BDA6104E0034AD2698243014BDA6122
:103C6000704700000010024029B1064A1269024361
:103C7000044B1A6104E0034A12698243014B1A6142
:103C8000704700000010024029B1064A92690243C1
:103C9000044B9A6104E0034A92698243014B9A61A2
:103CA000704700000010024030B5002100220024BF
:103CB00000232D4D6D6805F00C0121B1042905D0BC
:103CC000082923D105E0294D056022E0274D056034
:103CD0001FE0254D6D6805F47012234D6D6805F4E5
:103CE0008034022505EB92421CB9214D55430560F5
:103CF0000BE01D4D6D6805F400351DB11C4D55439D
:103D0000056002E0194D5543056002E0174D05605E
:103D100000BF00BF144D6D6805F0F0010909154D95
:103D20006B5C0568DD4045600F4D6D6805F4E06132
:103D3000090A104D6B5C4568DD4085600A4D6D6871
:103D400005F46051C90A0B4D6B5C4568DD40C560E8
:103D5000054D6D6805F44041890B074D6B5CC568E6
:103D6000B5FBF3F5056130BD0010024000127A008A
:103D700000093D00140000202400002010B5024678
:103D80000020002309B9122326E0012901D11723BD
:103D900022E0022901D114231EE0032901D11323BB
:103DA0001AE0042901D1162316E0052901D11523B3
:103DB00012E0062901D119230EE0072901D11823A9
:103DC0000AE0082901D11A2306E0092901D11B23A1
:103DD00002E00A2900D11C230B4C04EBC3046488C5
:103DE00024161471084C04EBC30464882414547121
:103DF000054C04EBC304648824129471024C04EB58
:103E0000C304A478D47110BDF019002010B5024687
:103E10000B46002000210BB91D2102E0012B00D12F
:103E20001E210C4C04EBC104648824161471094C47
:103E300004EBC104648824145471064C04EBC104DF
:103E4000648824129471034C04EBC104A478D471E7
:103E500010BD0000F019002002460020094BB3F805
:103E600054311B0A1371074B93F854315371054BAE
:103E7000B3F856311B0A9371024B93F85631D37144
:103E800070470000201C002002460020094BB3F8B8
:103E900058311B0A1371074B93F858315371054B76
:103EA000B3F85A311B0A9371024B93F85A31D3710C
:103EB00070470000201C002002460020094BB3F888
:103EC0005E311B0A1371074B93F85E315371054B3A
:103ED000B3F860311B0A9371024B93F86031D371D0
:103EE00070470000201C0020024600200B4B93F876
:103EF0002A30012B01D10B239370094BDB691B0E78
:103F00001371074BDB691B0C5371054B9B8B1B0A11
:103F10009371034B1B7FD37170470000E4000020B6
:103F2000201C0020024600207047000002460020AE
:103F3000024B93F84A30D37070470000F01900200C
:103F4000024600200A4B93F82230D370084B93F8B6
:103F500042301371064B93F852305371044BB3F84F
:103F60005A301B129371024B93F85A30D371704739
:103F7000F019002010B502460B4600200021094C24
:103F800094F82940012C01D10A249470064C646BEA
:103F900021680C0E14710C0C54710C0A9471D171BF
:103FA00010BD0000E4000020F81A002002460020A6
:103FB000014B5B78D371704730000020024600202F
:103FC000094B93F82930012B02D10A23937006E0A4
:103FD000054B93F82A30012B01D10B239370034B2F
:103FE00093F84A30D3717047E4000020F0190020A4
:103FF000F0B502460D4600210024002300201D4E8E
:10400000767826B900271B4EF770B7702EE0194E50
:104010007678012E2AD1174EF6781827B7EB860F3F
:1040200003D8FD27134EB77020E0124EF678B6067F
:10403000340E002108E066180F4FBB5D0E1D93552E
:1040400003B903E04E1CF1B20429F4DB00BF094EB2
:10405000F678761CF7B2074EF77023B90027F77091
:10406000FF27B77002E0FE27024EB770014EB67808
:10407000D670F0BD2C0000209A5E000810B50246F4
:104080000B460021D078024C6070084610BD00003D
:104090002C00002002460020064B1B781371054BB4
:1040A0009B785371034B9B881B129371014B1B79B7
:1040B000D3717047B25E000810B5024600204FF67B
:1040C000FF7331B90F4C647A012C0BD11424947016
:1040D00008E0012906D10B4C94F83140012C01D1A4
:1040E0001524947011B9074C636803E0012901D1CC
:1040F000044CE36A1C0E14711C0C54711C0A94715C
:10410000D37110BDB81D0020024600201F2900DA1F
:1041100000E0012020B9034B03EBC1039B7813702F
:1041200070470000F01900202DE9F04107460C46C9
:104130000025002600213846FEF717FC3846FEF71A
:1041400021FC00F0CCFD2068804700F0C8FDE0684D
:1041500080470646AEB900BF10E00020616888477E
:1041600000F0BDFD01206168884700F0B8FDE068FF
:104170008047064606B103E0681CC5B2092DECDB9A
:1041800000BF204600F0B2FD0020BDE8F08170477E
:104190000BE00648FCF7BAF90548FCF7C7F9FDF74C
:1041A00091F84FF47A7001F0A2FBF2E71E010020B3
:1041B000191B00200A480078401C0949087008466D
:1041C0004078401C487008468078401C887008463B
:1041D000C078401CC87008460089401C08817047A0
:1041E000140100200EE0FDF7A7FEFCF7F7FDFEF737
:1041F00015FFFEF741F8FEF771F800F041F90A20CB
:1042000001F075FBEFE70246002093888B4202DC49
:10421000D3888B4201DA012000E05180704710B54D
:1042200000F002F810BD00000CB5002001900090D5
:104230003348006840F480303149086000BF30489E
:10424000006800F4003000900198401C0190009834
:1042500018B90198B0F5A06FF1D12948006800F4B1
:10426000003010B10120009001E000200090009883
:10427000012843D12348006840F01000214908601C
:104280000846006820F0030008600846006840F017
:10429000020008601A4840681949486008464068AA
:1042A00048600846406840F48060486008464068BE
:1042B00020F47C1048600846406840F4E8104860EC
:1042C0000846006840F08070086000BF0C48006835
:1042D00000F000700028F9D00948406820F0030081
:1042E000074948600846406840F00200486000BF47
:1042F0000348406800F00C000828F9D10CBD00000C
:10430000001002400020024030B503460C46002059
:104310000021551EE9B206E04D1E53F8255043F822
:1043200021504D1EE9B20029F6DC1C6030BD0000B2
:104330000349086818B109680969014A11607047A2
:1043400048000020F8B1104A1278102A16DA0E4AF6
:104350001278521C0C4B1A70002202610B4A52F860
:10436000212022B1094A52F82120106102E0084AB6
:1043700042F82100054A42F8210004E0054A12688B
:104380000261044A106070474C0000204000002089
:10439000380000204800002010B500F08DFE01F02C
:1043A0000BFC00F099FE10BD10B51348006840F0FA
:1043B00001001149086008464068104908400E494C
:1043C0004860084600680E4908400B4908600846E6
:1043D000006820F4802008600846406820F4FE0051
:1043E00048604FF41F008860FFF719FF4FF000602E
:1043F0000449086010BD0000001002400000FFF8F2
:10440000FFFFF6FE08ED00E010B500F055FE0121BB
:10441000880700F024F840B10121880700F01CF85B
:10442000FFF7C8FE0248FCF738FD00F055FE10BD4E
:104430009818002010B500F03FFE0121054800F05B
:104440000EF818B10121034800F006F800F044FE10
:1044500010BD000000040040CA430282704730B51E
:104460000246002000230024158A05EA01039589ED
:1044700005EA010413B10CB1012000E0002030BDB9
:1044800070B5002500240E4E0E4890F82400012837
:1044900014D100200B4981F8240001210A48FCF7BF
:1044A0002AF80848FEF7BEF9044606483246416835
:1044B0002046FEF767FE04B202484460284670BDFD
:1044C000CDCC4C3EB81D00200024014000B585B085
:1044D00001218803FFF7D8FB01210420FFF7D4FB5B
:1044E0004FF40070ADF8100018208DF81300032071
:1044F0008DF8120004A91748FEF7F4F84FF4806015
:10450000ADF8100004208DF8130004A91148FEF73F
:10451000E9F84FF4E13000900020ADF80400ADF868
:104520000600ADF80800ADF80C000C20ADF80A004C
:104530006946094800F098F800F010F8012240F2AE
:104540002551054800F06AF80121034800F030F8D1
:1045500005B000BD000801400038014008B5252025
:104560008DF8000000208DF8010004208DF8020075
:1045700001208DF803006846FFF7A8FA08BD000087
:1045800010B500F099FD40F22551074800F01CF8E5
:1045900038B1054800F0D4F8C4B22146034800F011
:1045A000DEF800F099FD10BD00440040981800208E
:1045B00021B1828942F40052828104E082894DF661
:1045C000FF731A408281704770B5024600240023B1
:1045D0000025002040F66A16B14200D100BFC1F3A9
:1045E000421501F01F03012606FA03F3012D02D143
:1045F0009689334006E0022D02D1168A334001E04D
:10460000968A33400C12012606FA04F416883440C8
:1046100013B10CB1012000E0002070BDF0B50346DD
:10462000002400260025002040F66A17B94200D178
:1046300000BF1846C1F3421401F01F06012707FA14
:1046400006F5012C01D10C3004E0022C01D1103010
:1046500000E014301AB107682F43076002E00768D2
:10466000AF430760F0BD00002DE9F04786B0054676
:104670000E460024A24600BFA1460027B08900B123
:1046800000BF2F462C8A4CF6FF700440F08804438C
:104690002C82AC894EF6F3100440B088318908436F
:1046A000718908430443AC81AC8A4FF6FF40044053
:1046B000B0890443AC8201A8FFF7F6FA1F4887428D
:1046C00002D1DDF810A001E0DDF80CA0A88900F40B
:1046D000004040B10AEBCA0000EB0A103168490003
:1046E000B0FBF1F807E00AEBCA0000EB0A103168F2
:1046F0008900B0FBF1F86420B8FBF0F00401200958
:10470000642101FB1089A88900F4004040B13220E7
:1047100000EBC900B0FBF1F000F00700044308E033
:10472000322000EB09106421B0FBF1F000F00F0023
:1047300004432C8106B0BDE8F0870000003801403A
:1047400001468888C0F30800704710B500F0B4FC3B
:10475000FCF74CFF00F0C0FC10BD00BFFEE78288F4
:10476000642A0CDA838800F16C02D154012280F8AB
:10477000D020002280F8D2208288521C828070478C
:104780002DE9FC4105460C460027FF26002000903D
:104790000190E879A97940EA0120ADF806000CB94A
:1047A000122626E0012C01D1172622E0022C01D18D
:1047B00014261EE0032C01D113261AE0042C01D18B
:1047C000162616E0052C01D1152612E0062C01D183
:1047D00019260EE0072C01D118260AE0082C01D179
:1047E0001A2606E0092C01D11B2602E00A2C00D172
:1047F0001C261C2E07DCBDF80610044A02EBC6007E
:10480000FFF701FD07463846BDE8FC81F01900209E
:104810002DE9FC4106460C460027FF2500200090AC
:104820000190F079B17940EA0120ADF806000CB9A9
:104830001D2502E0012C00D11E251E2D07DCBDF830
:104840000610114A02EBC500FFF7DDFC074674B9FC
:104850000D4800EBC50080780C4981F86A010846D4
:1048600090F86A0101280BD181F8680108E0012C59
:1048700006D1054800EBC5008078044981F86B013A
:104880003846BDE8FC810000F0190020201C002003
:104890002DE9FC4104460F4600250026002000902B
:1048A00001906079217940EA0120ADF80000E079BB
:1048B000A17940EA0120ADF80200BDF800101248CD
:1048C000FFF7A1FC0646012E00D10125BDF802101C
:1048D0000D480838FFF797FC0646012E00D1012548
:1048E00075B90948A038B0F8A20000B20749A1F88C
:1048F00054010548A038B0F89A0000B2A1F856015A
:104900002846BDE8FC810000901A0020201C0020F1
:104910002DE9FC4104460F460025002600200090AA
:1049200001906079217940EA0120ADF80000E0793A
:10493000A17940EA0120ADF80200BDF8001012484C
:10494000FFF761FC0646012E00D10125BDF80210DB
:104950000D480838FFF757FC0646012E00D1012507
:1049600075B90948B038B0F8B20000B20749A1F8EB
:1049700058010548B038B0F8AA0000B2A1F85A01B1
:104980002846BDE8FC810000A01A0020201C002061
:104990002DE9FC4104460F4600250026002000902A
:1049A00001906079217940EA0120ADF80000E079BA
:1049B000A17940EA0120ADF80200BDF800101248CC
:1049C000FFF721FC0646012E00D10125BDF802109B
:1049D0000D480838FFF717FC0646012E00D10125C7
:1049E00075B90948C838B0F8CA0000B20749A1F83B
:1049F0005E010548C838B0F8C20000B2A1F86001F5
:104A00002846BDE8FC810000B81A0020201C0020C8
:104A100002460020704700007CB504460E46002583
:104A2000002000900190E078ADF80000BDF8001083
:104A30000248FFF7E8FB054628467CBD381A0020EF
:104A40002DE9FC470446894600260027B04600258C
:104A5000002000900190E078ADF800002079ADF8DA
:104A600002006079ADF80400E079A17940EA012004
:104A7000ADF80600BDF800102048FFF7C4FB07465C
:104A8000012F00D10126BDF802101C483838FFF76D
:104A9000BAFB8046B8F1010F00D10126BDF8041021
:104AA00016482838FFF7AFFB0546012D00D1012637
:104AB000BDF8061011482038FFF7A5FB0546012D6B
:104AC00000D10126BDB90D487838B0F85200000475
:104AD0000B49C1F810010846D0F810010749783990
:104AE000B1F85A1008430649C1F810010846D0F839
:104AF0001001C1F814013046BDE8FC87681A002097
:104B0000F81A002002460020704700007CB50446D9
:104B10000E460025002000900190E079ADF80600D7
:104B2000BDF806100248FFF76EFB054628467CBD1F
:104B3000381A00201CB50246002000230093019380
:104B40005379147943EA0423ADF80430D379947986
:104B500043EA0423ADF806301F2900DA00E0012003
:104B600028B9BDF80630024C04EBC10463801CBDBB
:104B7000F0190020014609B900207047C8B220B1E1
:104B8000C8B20E4A105C401CF7E701F47F4028B120
:104B90000A48C1F30722805C0930EEE701F47F0088
:104BA00028B10648C1F30742805C1130E5E70348AD
:104BB00000EB116000781930DFE70000705F00083B
:104BC00002E008C8121F08C1002AFAD170477047D6
:104BD000002001E001C1121F002AFBD17047000034
:104BE0002DE9FC5F04468B4615461E46DDE90C9A0E
:104BF000DDE90E7804F114004060006000BF1C3451
:104C00006560A660C4F80C90C4F810A02321D4E914
:104C1000030200F0C1FBD4E9033C63441A1F0F4BAD
:104C2000D4E9010100F022FA2060A776677600201F
:104C3000E061C4F82080C4F824806061207660655B
:104C4000A0651C3C00902346054A2146019004F1D2
:104C5000440001F060F80020BDE8FC9FFD5800080A
:104C6000295B00082DE9F04704460E461746984692
:104C7000DDF8209084F80990607A20F001006072DD
:104C8000E66127620020A062C4F82480002506E0C7
:104C900004F1140101EBC50000F07DFA6D1C012D3B
:104CA000F6DBBDE8F08770B50546002406E005F1A7
:104CB000140101EBC40000F0AFFA641C012CF6DB18
:104CC00070BD70B50446FBF72FFA0546206F10B192
:104CD0002046216F88472846FBF72AFA70BD00203E
:104CE00001E0411CC8B21428FBDB704710B5044634
:104CF0000020A1688847012061688847FFF7EFFF1F
:104D00000120A168884710BD1FB505200021802221
:104D1000214BCDE90032CDE902100B461F4A20A1FC
:104D2000214800F069FE204800F0C6FE052004215D
:104D300080221E4BCDE90032CDE9021000231C4A2F
:104D40001CA11E4800F058FE1C4800F0B5FE0520CE
:104D500001214A021A4BCDE90032CDE902100023AD
:104D6000184A19A11A4800F047FE194800F0A4FE9D
:104D700005204FF40072174BCDE9012000930390FA
:104D80000023154A15A1174800F036FE154800F01B
:104D900093FE002004B010BD00030020BD2F0008CA
:104DA00077646F670000000020010020800300206E
:104DB0009141000853575379735400009801002023
:104DC00000040020E5410008535731306D730000A6
:104DD000100200200006002091220008436F6D6D34
:104DE0004D6F6E008802002010B5044600F064F894
:104DF000FFF78AFF10BD000030B51A4C43682468E5
:104E00001919884215D04B889BB9174B1B689942DA
:104E10000FD0164B1B688B4201D1144B18604B68A6
:104E20004360104B1B68C31A0E4D4C682D682C4410
:104E3000A3600C4C836824681A19824211D05388ED
:104E40007BB90A4B1B68834201D1084B1A60436847
:104E50005360044B1B68D31A024D44682D682C44E0
:104E6000A36030BD580000205C00002060000020DE
:104E70001CB5142002210B020022CDE900100449C8
:104E800004A000F00CFD0446204600F015FE1CBDF9
:104E9000E94D00086D61696E0000000010B5044C1A
:104EA00002E020688047241D02488442F9D310BDE7
:104EB000986000089C60000810B5044C02E020686F
:104EC0008047241D02488442F9D310BD9C6000082D
:104ED000A060000810B5FBF727F9044604480088D5
:104EE000401C00B2024908802046FBF721F910BDA2
:104EF000B400002010B5FBF717F904460C480088F1
:104F0000401E00B20A4908800846B0F90000002897
:104F10000ADC002008802046FBF70AF905480068F3
:104F200028B100F0F1FA02E02046FBF701F910BDCC
:104F3000B4000020B800002070B5054605B970BD6A
:104F400016480068854203D315480068854200D39F
:104F5000F5E7A5F10C044FF0FF31124800F0A4FB77
:104F6000002060804FF4F55020800F480068844294
:104F700001D20D480460094960680968611A401A45
:104F80000A490968081A094908602046FFF734FFF2
:104F9000044800F060FB00BFD1E70000580000208B
:104FA0005C0000208C1F00206000002068000020B2
:104FB0000048704700080020004870470018002093
:104FC00070B51D4800684FF47A72B0FBF2F1B1F190
:104FD000807F00D31DE021F07F40401E4FF0E02293
:104FE000506150170F22002807DA13071D0E134BCC
:104FF00000F00F04241F1D5503E013071C0E104B77
:105000001C5400BF00204FF0E02290610720106187
:1050100000BFFFF75BFAFDF765FA0A48FDF7FAFBF8
:10502000FFF73CFFFFF7C8FF0446FFF7C1FF054647
:10503000214600F08FFB70BD0000002018ED00E05D
:1050400000E400E04019010070B50446261D064842
:10505000006838B12046044909688847054605B903
:1050600070BD00BF00BFFEE7E0000020F0B50446C1
:105070000D461646301D20F007004038014600223C
:1050800003E00C4F41F82270521C102AF9D30D6234
:105090004FF0000CC1F824C0C1F828C0C1F82CC0E2
:1050A000C1F830C04B638C634FF0807CC1F83CC0CA
:1050B000F0BD0000EFBEADDE10B5FBF735F80446DD
:1050C00004480078401C034908702046FBF730F87C
:1050D00010BD00005400002010B5FBF725F8044671
:1050E00004480078401E034908702046FBF720F86A
:1050F00010BD00005400002070B504462068A0F1E7
:105100001405284600F092FC002070BD2DE9F04106
:1051100005460C469046204600F0E4FCB8F1000F2E
:1051200003D0B8F1010F23D105E004F114012846A2
:1051300000F049F81DE02E680FE0A6F1140794F87E
:10514000350097F83510884206DA04F1140107F1AA
:10515000140000F038F802E03668AE42EDD100BF2E
:10516000AE4204D104F11401284600F02CF800E00E
:1051700000BF00BF0020BDE8F08110B5044604F177
:10518000140000F002F8002010BD4060006070477D
:105190004060006070474060006070470268516086
:1051A00002680A60016048607047026851600268E6
:1051B0000A600160486070470268516002680A60D6
:1051C0000160486070474268116042684A6041600F
:1051D0000860704701460868884201D10120704785
:1051E0000020FCE701460868884201D10120704791
:1051F0000020FCE7D0E900215160D0E900121160E5
:10520000406000607047D0E900215160D0E9001291
:105210001160406000607047D0E900215160D0E922
:105220000012116040600060704700002DE9F041FD
:10523000054615B90020BDE8F081E81C20F0030503
:105240004E480068854201D90020F4E70C2D00D2B9
:105250000C254FF0FF314A4800F026FA4948006813
:1052600049490968461A7EE0474800688419608801
:10527000002874D106F10C006168081AA8426ED3A8
:1052800006F10C006168091A05F11800814230D35B
:1052900006F10C0000EB05083B48006800EB08072E
:1052A0004FF4F55038800020788060687860BE60E8
:1052B000C4F80480012060803048796800680C30B0
:1052C000814205D03049786809680844C0F80880F0
:1052D0002E48016805F10C0008442C4908602C4850
:1052E00000680968884219D228480068284908607F
:1052F00014E001206080244960680968611A401A3E
:105300002249096808442149086021480068096861
:10531000884203D21D4800681D4908604FF4F550CB
:10532000208018480068844212D107E015480068C0
:105330004068154909680844124908601148006826
:10534000408828B10F480068124909688842EDD1A9
:105350000B4800F080F904F10C006CE7FFE70A4805
:1053600000683044466805480068401BB0423FF67C
:105370007BAF034800F06FF900205CE76400002079
:105380008C1F0020600000205800002068000020D2
:105390006C0000205C000020F0B50C460546E6B22B
:1053A000042A15D300F0030797B9014646EA0623FD
:1053B00043EA034304E008C108C108C108C1103A28
:1053C000102AF8D201E008C1121F042AFBD20D46B0
:1053D00001E005F8016B171EA2F10102F9D1F0BD41
:1053E0002DE9F04106460F46304600F045F80546E7
:1053F000E868FFF71BFF044614B90020BDE8F08100
:1054000000212046EA68FFF7C7FF2672002060727D
:1054100008223946204600F082F9FAF785FE8046D8
:1054200004F10C01281DFFF7B9FE4046FAF780FE93
:105430002046E3E770B5044600202072FAF774FEB8
:10544000054604F10C00FFF7D5FE2846FAF770FE7A
:105450002046FFF771FD70BD70B504460020207234
:10546000FAF762FE054604F10C00FFF7C3FE28467A
:10547000FAF75EFE70BD0000024600210AE0074810
:1054800000EB01100078904203D1044800EB0110BA
:105490007047491C0429F2DB0020F9E77000002066
:1054A0002DE9F04704460D46904600262846FFF7B2
:1054B000E3FF0746FFF70EFD7E6802E0A6F10C0051
:1054C0003668381D8642F9D1FFF714FD45F080009B
:1054D000207208224146204600F021F9FAF724FE06
:1054E000814604F10C01381DFFF758FE4846FAF7D3
:1054F0001FFEBDE8F0870146087A00F0800008B181
:10550000012070470020FCE72DE9F041FAF70CFE7E
:1055100007461848008838BB17480068FFF72AFB81
:10552000461E164850F83600A0F1140414480068CE
:10553000844218D013490E7011480568046012485F
:10554000007850B904F11C0105F11C00FAF7F3FDD5
:105550003846FAF7EDFDBDE8F08104F11C0105F1D4
:105560001C00FAF7E8FD00BF3846FAF7E1FD00BF7E
:10557000F1E70000B4000020B0000020AC1F0020C4
:10558000B8000020BC0000205400002070B5044684
:10559000FAF7CAFD054614F8340F20F00F0040F06A
:1055A000010020706278343C0A4B03EBC20004F126
:1055B00014014268116042684A604160086000BF9F
:1055C0000549A06B09680843034908602846FAF7B3
:1055D000AFFD70BDAC1F0020B000002070B50446C8
:1055E000FAF7A2FD054604F11400D0E9002151604C
:1055F000D0E9001211604060006000BF94F83510DF
:10560000094A02EBC1000168814201D1012100E099
:10561000002129B10548A16B00688843034908604F
:105620002846FAF785FD70BDAC1F0020B0000020B1
:105630002DE9F04104460D4616461F462A46022132
:105640002046FFF72DFF2046FFF797FDA6836772E0
:105650000020BDE8F08170B504460025FAF764FD2E
:10566000064604F11400FFF7B5FD28B904F1140053
:10567000FFF742FD01250EE0A08B4FF6FF71884237
:1056800003DAA08B401CA08305E03046FAF750FDFA
:105690006FF0020070BD3046FAF74AFD012D01D1CE
:1056A000FFF732FF0020F5E773B50546FAF73CFD3A
:1056B0000646A88B002806DDA88B401EA88330462E
:1056C000FAF736FD28E0019828B93046FAF730FDA0
:1056D0006FF001007CBD00F0C7F904460020206394
:1056E0006A7A214605F11400FFF710FD01980028A1
:1056F00009DD01AA002104F1440000F0C7FA04F119
:10570000440000F01FFB3046FAF712FDFFF7FCFEE5
:10571000206B08B1206BDDE70020DBE7704770B538
:105720000346A2B118460C4600BF14F8016B00F8FE
:10573000016B3EB902E0002500F8015B551E2A1EF0
:10574000F9D102E0551E2A1EEFD100BF00BF184656
:1057500070BD00002DE9F04107468846F81C20F096
:10576000030528F00306182E08D9A6F11800A84250
:1057700004D3701B18381C49086001E0BDE8F081B3
:105780001A48056004684FF4F550208016480068F8
:105790000C3060600020A060608014496068096877
:1057A0000844134908604FF4F55009680880012047
:1057B0000F49096848800C4800680C300C4909689A
:1057C0004860094800680C3009490968886000236E
:1057D000012208A10948FFF72BFF04480068084987
:1057E000086000BFCAE700006400002058000020E5
:1057F0005C00002068656170000000008C1F0020C4
:105800006000002010B500200B490880002405E04E
:105810000A4901EBC400FFF7BBFC641C082CF7DB52
:1058200007200749087000200649086006490860FB
:105830000648FFF7ADFC10BDB4000020AC1F0020EF
:10584000BC000020B8000020B0000020C0000020F4
:1058500070B508480068FFF78DF9451E064850F8F6
:105860003500A0F114040548046004F11C00FAF7A7
:1058700090FC70BDB0000020AC1F0020B8000020DC
:1058800010B5002405E0044901EBC400FFF783FCD8
:10589000641C002CF7D010BDC800002070472DE913
:1058A000FF5F06460F4690461D46DDE90EAB3146CA
:1058B0000120FFF795FD8146B9F1000F03D10020CB
:1058C00004B0BDE8F09F2846FFF7B0FC044624B9B9
:1058D0004846FFF7AFFD0020F2E743463A4631461F
:1058E00048468DE8300CFFF77BF94846E8E710B5ED
:1058F0000446204600F0BEF810BD000070B5134805
:105900000468FAF711FC05462046FFF7DAF920464D
:10591000FFF764FE042084F8340004F1440000F032
:10592000E6F92046FFF7E7FD012803D12046FFF7FF
:1059300093FD04E004F114010548FFF736FCFFF77E
:10594000E3FD2846FAF7F4FB70BD0000B800002024
:10595000C000002001E000F001F8FCE770B528E08D
:10596000FAF7E2FB054600BF13480168814201D007
:10597000012100E0002119B92846FAF7D9FB19E006
:105980000D480068A0F1140404F11400D0E90021CE
:105990005160D0E9001211604060006000BFA06A51
:1059A000FFF7CAFA2046FFF745FD2846FAF7C0FB85
:1059B00000BFD5E700BF70BDC00000201FB520208C
:1059C0000721C200074BCDE90032CDE902100023C8
:1059D000054A06A1074800F00FF8064800F06CF8E9
:1059E0001FBD00008C1E0020555900087469646CAE
:1059F00065000000141E00202DE9FF5F05460C46DF
:105A000016461F46DDE910ABDDE90E89224601216D
:105A10002846FFF745FD3B463246214628468DE89D
:105A2000000FFFF7DDF804B0BDE8F09F70B5044645
:105A300094F8340000F00F00022802D04FF0FF303D
:105A400070BDFAF771FB054604F11400FFF7DBFBAC
:105A500004F1440000F0ECF92846FAF769FB20460F
:105A6000FFF794FD0020EBE7014800687047000055
:105A7000B800002031B5FAF757FB05460D48046819
:105A8000204600F02FF86A46002104F1440000F09F
:105A9000FDF804F1440000F055F92846FAF748FBF8
:105AA000FFF732FD206B801C08B900202063002026
:105AB00038BD0000B800002010B504463434A0788A
:105AC00060706178012088406060022004F8340929
:105AD0002046FFF7ABFFFFF7C7FF08B1FFF714FD44
